{
  "_format": "hh-sol-artifact-1",
  "contractName": "manufacturerProduct",
  "sourceName": "contracts/manufacturerProduct.sol",
  "abi": [
    {
      "anonymous": false,
      "inputs": [
        {
          "indexed": true,
          "internalType": "uint256",
          "name": "_mpId",
          "type": "uint256"
        },
        {
          "indexed": true,
          "internalType": "address[]",
          "name": "_supplierAddress",
          "type": "address[]"
        },
        {
          "indexed": true,
          "internalType": "uint256[]",
          "name": "_smId",
          "type": "uint256[]"
        },
        {
          "indexed": false,
          "internalType": "bytes",
          "name": "_name",
          "type": "bytes"
        },
        {
          "indexed": false,
          "internalType": "bytes",
          "name": "_description",
          "type": "bytes"
        },
        {
          "indexed": false,
          "internalType": "uint128",
          "name": "_unit",
          "type": "uint128"
        },
        {
          "indexed": false,
          "internalType": "uint128",
          "name": "_price",
          "type": "uint128"
        },
        {
          "indexed": false,
          "internalType": "uint32",
          "name": "_date",
          "type": "uint32"
        },
        {
          "indexed": false,
          "internalType": "uint32",
          "name": "_expiryDate",
          "type": "uint32"
        }
      ],
      "name": "eventAddManufacturerProduct",
      "type": "event"
    },
    {
      "anonymous": false,
      "inputs": [
        {
          "indexed": false,
          "internalType": "uint256",
          "name": "_Id",
          "type": "uint256"
        }
      ],
      "name": "eventDeleteManufacturerProduct",
      "type": "event"
    },
    {
      "anonymous": false,
      "inputs": [
        {
          "indexed": true,
          "internalType": "uint256",
          "name": "_dpId",
          "type": "uint256"
        },
        {
          "indexed": false,
          "internalType": "uint128",
          "name": "_quantity",
          "type": "uint128"
        }
      ],
      "name": "eventUpdateDistributorProductUints",
      "type": "event"
    },
    {
      "inputs": [
        {
          "internalType": "address[]",
          "name": "_supplierAddress",
          "type": "address[]"
        },
        {
          "internalType": "uint256[]",
          "name": "_smId",
          "type": "uint256[]"
        },
        {
          "internalType": "bytes",
          "name": "_name",
          "type": "bytes"
        },
        {
          "internalType": "bytes",
          "name": "_description",
          "type": "bytes"
        },
        {
          "internalType": "uint128",
          "name": "_unit",
          "type": "uint128"
        },
        {
          "internalType": "uint128",
          "name": "_price",
          "type": "uint128"
        },
        {
          "internalType": "uint32",
          "name": "_date",
          "type": "uint32"
        },
        {
          "internalType": "uint32",
          "name": "_expiryDate",
          "type": "uint32"
        }
      ],
      "name": "addManufacturerProduct",
      "outputs": [],
      "stateMutability": "nonpayable",
      "type": "function"
    },
    {
      "inputs": [
        {
          "internalType": "uint256",
          "name": "_id",
          "type": "uint256"
        }
      ],
      "name": "deleteManufacturerProduct",
      "outputs": [],
      "stateMutability": "nonpayable",
      "type": "function"
    },
    {
      "inputs": [
        {
          "internalType": "address",
          "name": "_manufacturerAddress",
          "type": "address"
        }
      ],
      "name": "getAllProductsOfManufacturer",
      "outputs": [
        {
          "components": [
            {
              "internalType": "address[]",
              "name": "supplierAddress",
              "type": "address[]"
            },
            {
              "internalType": "uint256[]",
              "name": "smId",
              "type": "uint256[]"
            },
            {
              "internalType": "bytes",
              "name": "mp_name",
              "type": "bytes"
            },
            {
              "internalType": "bytes",
              "name": "mp_description",
              "type": "bytes"
            },
            {
              "internalType": "uint128",
              "name": "mp_unit",
              "type": "uint128"
            },
            {
              "internalType": "uint128",
              "name": "mp_price",
              "type": "uint128"
            },
            {
              "internalType": "uint32",
              "name": "mp_date",
              "type": "uint32"
            },
            {
              "internalType": "uint32",
              "name": "mp_expiryDate",
              "type": "uint32"
            }
          ],
          "internalType": "struct IManufacturerProduct.manufacturerProduct[]",
          "name": "",
          "type": "tuple[]"
        }
      ],
      "stateMutability": "view",
      "type": "function"
    },
    {
      "inputs": [],
      "name": "getManufacturerProductIds",
      "outputs": [
        {
          "internalType": "uint256[]",
          "name": "",
          "type": "uint256[]"
        }
      ],
      "stateMutability": "view",
      "type": "function"
    },
    {
      "inputs": [
        {
          "internalType": "uint256",
          "name": "_id",
          "type": "uint256"
        }
      ],
      "name": "getSingleManufacturerProduct",
      "outputs": [
        {
          "components": [
            {
              "internalType": "address[]",
              "name": "supplierAddress",
              "type": "address[]"
            },
            {
              "internalType": "uint256[]",
              "name": "smId",
              "type": "uint256[]"
            },
            {
              "internalType": "bytes",
              "name": "mp_name",
              "type": "bytes"
            },
            {
              "internalType": "bytes",
              "name": "mp_description",
              "type": "bytes"
            },
            {
              "internalType": "uint128",
              "name": "mp_unit",
              "type": "uint128"
            },
            {
              "internalType": "uint128",
              "name": "mp_price",
              "type": "uint128"
            },
            {
              "internalType": "uint32",
              "name": "mp_date",
              "type": "uint32"
            },
            {
              "internalType": "uint32",
              "name": "mp_expiryDate",
              "type": "uint32"
            }
          ],
          "internalType": "struct IManufacturerProduct.manufacturerProduct",
          "name": "",
          "type": "tuple"
        }
      ],
      "stateMutability": "view",
      "type": "function"
    },
    {
      "inputs": [
        {
          "internalType": "address",
          "name": "",
          "type": "address"
        },
        {
          "internalType": "uint256",
          "name": "",
          "type": "uint256"
        }
      ],
      "name": "manufacturerAddressToproductsIdMapping",
      "outputs": [
        {
          "internalType": "uint256",
          "name": "",
          "type": "uint256"
        }
      ],
      "stateMutability": "view",
      "type": "function"
    },
    {
      "inputs": [
        {
          "internalType": "uint256",
          "name": "",
          "type": "uint256"
        }
      ],
      "name": "manufacturerProductsIdToStructMapping",
      "outputs": [
        {
          "internalType": "bytes",
          "name": "mp_name",
          "type": "bytes"
        },
        {
          "internalType": "bytes",
          "name": "mp_description",
          "type": "bytes"
        },
        {
          "internalType": "uint128",
          "name": "mp_unit",
          "type": "uint128"
        },
        {
          "internalType": "uint128",
          "name": "mp_price",
          "type": "uint128"
        },
        {
          "internalType": "uint32",
          "name": "mp_date",
          "type": "uint32"
        },
        {
          "internalType": "uint32",
          "name": "mp_expiryDate",
          "type": "uint32"
        }
      ],
      "stateMutability": "view",
      "type": "function"
    },
    {
      "inputs": [
        {
          "internalType": "uint256",
          "name": "_mpId",
          "type": "uint256"
        },
        {
          "internalType": "uint128",
          "name": "_quantity",
          "type": "uint128"
        }
      ],
      "name": "updateDistributorProductUints",
      "outputs": [],
      "stateMutability": "nonpayable",
      "type": "function"
    }
  ],
  "bytecode": "0x6080604052600160005534801561001557600080fd5b506124a9806100256000396000f3fe608060405234801561001057600080fd5b50600436106100885760003560e01c8063607159711161005b578063607159711461011357806365603df2146101435780639ea61c7e14610178578063f6a989f81461019457610088565b806324e5e6aa1461008d578063365c66a0146100ab578063448952e1146100c7578063580f469c146100e3575b600080fd5b6100956101c4565b6040516100a29190611374565b60405180910390f35b6100c560048036038101906100c0919061141e565b610259565b005b6100e160048036038101906100dc919061176f565b61033e565b005b6100fd60048036038101906100f8919061189e565b610678565b60405161010a91906118ed565b60405180910390f35b61012d60048036038101906101289190611908565b6106a9565b60405161013a9190611c86565b60405180910390f35b61015d60048036038101906101589190611ca8565b610b01565b60405161016f96959493929190611d3d565b60405180910390f35b610192600480360381019061018d9190611ca8565b610ca5565b005b6101ae60048036038101906101a99190611ca8565b610da9565b6040516101bb9190611e71565b60405180910390f35b6060600260003373ffffffffffffffffffffffffffffffffffffffff1673ffffffffffffffffffffffffffffffffffffffff16815260200190815260200160002080548060200260200160405190810160405280929190818152602001828054801561024f57602002820191906000526020600020905b81548152602001906001019080831161023b575b5050505050905090565b806001600084815260200190815260200160002060040160008282829054906101000a90046fffffffffffffffffffffffffffffffff1661029a9190611ec2565b92506101000a8154816fffffffffffffffffffffffffffffffff02191690836fffffffffffffffffffffffffffffffff160217905550817f68bde38859e54f5324143149657742ab33dc1d248bbd68795382aa56cc1b99426001600085815260200190815260200160002060040160009054906101000a90046fffffffffffffffffffffffffffffffff166040516103329190611f06565b60405180910390a25050565b6040518061010001604052808b81526020018a815260200189898080601f016020809104026020016040519081016040528093929190818152602001838380828437600081840152601f19601f82011690508083019250505050505050815260200187878080601f016020809104026020016040519081016040528093929190818152602001838380828437600081840152601f19601f820116905080830192505050505050508152602001856fffffffffffffffffffffffffffffffff168152602001846fffffffffffffffffffffffffffffffff1681526020018363ffffffff1681526020018263ffffffff16815250600160008054815260200190815260200160002060008201518160000190805190602001906104609291906110c1565b50602082015181600101908051906020019061047d92919061114b565b506040820151816002019081610493919061212d565b5060608201518160030190816104a9919061212d565b5060808201518160040160006101000a8154816fffffffffffffffffffffffffffffffff02191690836fffffffffffffffffffffffffffffffff16021790555060a08201518160040160106101000a8154816fffffffffffffffffffffffffffffffff02191690836fffffffffffffffffffffffffffffffff16021790555060c08201518160050160006101000a81548163ffffffff021916908363ffffffff16021790555060e08201518160050160046101000a81548163ffffffff021916908363ffffffff160217905550905050600260003373ffffffffffffffffffffffffffffffffffffffff1673ffffffffffffffffffffffffffffffffffffffff1681526020019081526020016000206000549080600181540180825580915050600190039060005260206000200160009091909190915055886040516105ef919061228f565b60405180910390208a6040516106059190612336565b60405180910390206000547f0e20c89151faf0b5dda54ebc9d15340d8f36e022eaab7561945a997b339fc56e8b8b8b8b8b8b8b8b60405161064d989796959493929190612389565b60405180910390a4600080815480929190610667906123fc565b919050555050505050505050505050565b6002602052816000526040600020818154811061069457600080fd5b90600052602060002001600091509150505481565b60606000600260008473ffffffffffffffffffffffffffffffffffffffff1673ffffffffffffffffffffffffffffffffffffffff16815260200190815260200160002080548060200260200160405190810160405280929190818152602001828054801561073657602002820191906000526020600020905b815481526020019060010190808311610722575b505050505090506000815167ffffffffffffffff81111561075a57610759611474565b5b60405190808252806020026020018201604052801561079357816020015b610780611198565b8152602001906001900390816107785790505b50905060005b8251811015610af657600160008483815181106107b9576107b8612444565b5b60200260200101518152602001908152602001600020604051806101000160405290816000820180548060200260200160405190810160405280929190818152602001828054801561086057602002820191906000526020600020905b8160009054906101000a900473ffffffffffffffffffffffffffffffffffffffff1673ffffffffffffffffffffffffffffffffffffffff1681526020019060010190808311610816575b50505050508152602001600182018054806020026020016040519081016040528092919081815260200182805480156108b857602002820191906000526020600020905b8154815260200190600101908083116108a4575b505050505081526020016002820180546108d190611f50565b80601f01602080910402602001604051908101604052809291908181526020018280546108fd90611f50565b801561094a5780601f1061091f5761010080835404028352916020019161094a565b820191906000526020600020905b81548152906001019060200180831161092d57829003601f168201915b5050505050815260200160038201805461096390611f50565b80601f016020809104026020016040519081016040528092919081815260200182805461098f90611f50565b80156109dc5780601f106109b1576101008083540402835291602001916109dc565b820191906000526020600020905b8154815290600101906020018083116109bf57829003601f168201915b505050505081526020016004820160009054906101000a90046fffffffffffffffffffffffffffffffff166fffffffffffffffffffffffffffffffff166fffffffffffffffffffffffffffffffff1681526020016004820160109054906101000a90046fffffffffffffffffffffffffffffffff166fffffffffffffffffffffffffffffffff166fffffffffffffffffffffffffffffffff1681526020016005820160009054906101000a900463ffffffff1663ffffffff1663ffffffff1681526020016005820160049054906101000a900463ffffffff1663ffffffff1663ffffffff1681525050828281518110610ad857610ad7612444565b5b60200260200101819052508080610aee906123fc565b915050610799565b508092505050919050565b6001602052806000526040600020600091509050806002018054610b2490611f50565b80601f0160208091040260200160405190810160405280929190818152602001828054610b5090611f50565b8015610b9d5780601f10610b7257610100808354040283529160200191610b9d565b820191906000526020600020905b815481529060010190602001808311610b8057829003601f168201915b505050505090806003018054610bb290611f50565b80601f0160208091040260200160405190810160405280929190818152602001828054610bde90611f50565b8015610c2b5780601f10610c0057610100808354040283529160200191610c2b565b820191906000526020600020905b815481529060010190602001808311610c0e57829003601f168201915b5050505050908060040160009054906101000a90046fffffffffffffffffffffffffffffffff16908060040160109054906101000a90046fffffffffffffffffffffffffffffffff16908060050160009054906101000a900463ffffffff16908060050160049054906101000a900463ffffffff16905086565b6001600082815260200190815260200160002060008082016000610cc9919061120d565b600182016000610cd9919061122e565b600282016000610ce9919061124f565b600382016000610cf9919061124f565b6004820160006101000a8154906fffffffffffffffffffffffffffffffff02191690556004820160106101000a8154906fffffffffffffffffffffffffffffffff02191690556005820160006101000a81549063ffffffff02191690556005820160046101000a81549063ffffffff021916905550507fbe5aa4247333e0978e80edfd1266e28e6cba6ea134522f795973c7133bc4317481604051610d9e91906118ed565b60405180910390a150565b610db1611198565b600160008381526020019081526020016000206040518061010001604052908160008201805480602002602001604051908101604052809291908181526020018280548015610e5557602002820191906000526020600020905b8160009054906101000a900473ffffffffffffffffffffffffffffffffffffffff1673ffffffffffffffffffffffffffffffffffffffff1681526020019060010190808311610e0b575b5050505050815260200160018201805480602002602001604051908101604052809291908181526020018280548015610ead57602002820191906000526020600020905b815481526020019060010190808311610e99575b50505050508152602001600282018054610ec690611f50565b80601f0160208091040260200160405190810160405280929190818152602001828054610ef290611f50565b8015610f3f5780601f10610f1457610100808354040283529160200191610f3f565b820191906000526020600020905b815481529060010190602001808311610f2257829003601f168201915b50505050508152602001600382018054610f5890611f50565b80601f0160208091040260200160405190810160405280929190818152602001828054610f8490611f50565b8015610fd15780601f10610fa657610100808354040283529160200191610fd1565b820191906000526020600020905b815481529060010190602001808311610fb457829003601f168201915b505050505081526020016004820160009054906101000a90046fffffffffffffffffffffffffffffffff166fffffffffffffffffffffffffffffffff166fffffffffffffffffffffffffffffffff1681526020016004820160109054906101000a90046fffffffffffffffffffffffffffffffff166fffffffffffffffffffffffffffffffff166fffffffffffffffffffffffffffffffff1681526020016005820160009054906101000a900463ffffffff1663ffffffff1663ffffffff1681526020016005820160049054906101000a900463ffffffff1663ffffffff1663ffffffff16815250509050919050565b82805482825590600052602060002090810192821561113a579160200282015b828111156111395782518260006101000a81548173ffffffffffffffffffffffffffffffffffffffff021916908373ffffffffffffffffffffffffffffffffffffffff160217905550916020019190600101906110e1565b5b509050611147919061128f565b5090565b828054828255906000526020600020908101928215611187579160200282015b8281111561118657825182559160200191906001019061116b565b5b509050611194919061128f565b5090565b6040518061010001604052806060815260200160608152602001606081526020016060815260200160006fffffffffffffffffffffffffffffffff16815260200160006fffffffffffffffffffffffffffffffff168152602001600063ffffffff168152602001600063ffffffff1681525090565b508054600082559060005260206000209081019061122b919061128f565b50565b508054600082559060005260206000209081019061124c919061128f565b50565b50805461125b90611f50565b6000825580601f1061126d575061128c565b601f01602090049060005260206000209081019061128b919061128f565b5b50565b5b808211156112a8576000816000905550600101611290565b5090565b600081519050919050565b600082825260208201905092915050565b6000819050602082019050919050565b6000819050919050565b6112eb816112d8565b82525050565b60006112fd83836112e2565b60208301905092915050565b6000602082019050919050565b6000611321826112ac565b61132b81856112b7565b9350611336836112c8565b8060005b8381101561136757815161134e88826112f1565b975061135983611309565b92505060018101905061133a565b5085935050505092915050565b6000602082019050818103600083015261138e8184611316565b905092915050565b6000604051905090565b600080fd5b600080fd5b6113b3816112d8565b81146113be57600080fd5b50565b6000813590506113d0816113aa565b92915050565b60006fffffffffffffffffffffffffffffffff82169050919050565b6113fb816113d6565b811461140657600080fd5b50565b600081359050611418816113f2565b92915050565b60008060408385031215611435576114346113a0565b5b6000611443858286016113c1565b925050602061145485828601611409565b9150509250929050565b600080fd5b6000601f19601f8301169050919050565b7f4e487b7100000000000000000000000000000000000000000000000000000000600052604160045260246000fd5b6114ac82611463565b810181811067ffffffffffffffff821117156114cb576114ca611474565b5b80604052505050565b60006114de611396565b90506114ea82826114a3565b919050565b600067ffffffffffffffff82111561150a57611509611474565b5b602082029050602081019050919050565b600080fd5b600073ffffffffffffffffffffffffffffffffffffffff82169050919050565b600061154b82611520565b9050919050565b61155b81611540565b811461156657600080fd5b50565b60008135905061157881611552565b92915050565b600061159161158c846114ef565b6114d4565b905080838252602082019050602084028301858111156115b4576115b361151b565b5b835b818110156115dd57806115c98882611569565b8452602084019350506020810190506115b6565b5050509392505050565b600082601f8301126115fc576115fb61145e565b5b813561160c84826020860161157e565b91505092915050565b600067ffffffffffffffff8211156116305761162f611474565b5b602082029050602081019050919050565b600061165461164f84611615565b6114d4565b905080838252602082019050602084028301858111156116775761167661151b565b5b835b818110156116a0578061168c88826113c1565b845260208401935050602081019050611679565b5050509392505050565b600082601f8301126116bf576116be61145e565b5b81356116cf848260208601611641565b91505092915050565b600080fd5b60008083601f8401126116f3576116f261145e565b5b8235905067ffffffffffffffff8111156117105761170f6116d8565b5b60208301915083600182028301111561172c5761172b61151b565b5b9250929050565b600063ffffffff82169050919050565b61174c81611733565b811461175757600080fd5b50565b60008135905061176981611743565b92915050565b6000806000806000806000806000806101008b8d031215611793576117926113a0565b5b60008b013567ffffffffffffffff8111156117b1576117b06113a5565b5b6117bd8d828e016115e7565b9a505060208b013567ffffffffffffffff8111156117de576117dd6113a5565b5b6117ea8d828e016116aa565b99505060408b013567ffffffffffffffff81111561180b5761180a6113a5565b5b6118178d828e016116dd565b985098505060608b013567ffffffffffffffff81111561183a576118396113a5565b5b6118468d828e016116dd565b965096505060806118598d828e01611409565b94505060a061186a8d828e01611409565b93505060c061187b8d828e0161175a565b92505060e061188c8d828e0161175a565b9150509295989b9194979a5092959850565b600080604083850312156118b5576118b46113a0565b5b60006118c385828601611569565b92505060206118d4858286016113c1565b9150509250929050565b6118e7816112d8565b82525050565b600060208201905061190260008301846118de565b92915050565b60006020828403121561191e5761191d6113a0565b5b600061192c84828501611569565b91505092915050565b600081519050919050565b600082825260208201905092915050565b6000819050602082019050919050565b600081519050919050565b600082825260208201905092915050565b6000819050602082019050919050565b61199681611540565b82525050565b60006119a8838361198d565b60208301905092915050565b6000602082019050919050565b60006119cc82611961565b6119d6818561196c565b93506119e18361197d565b8060005b83811015611a125781516119f9888261199c565b9750611a04836119b4565b9250506001810190506119e5565b5085935050505092915050565b600082825260208201905092915050565b6000611a3b826112ac565b611a458185611a1f565b9350611a50836112c8565b8060005b83811015611a81578151611a6888826112f1565b9750611a7383611309565b925050600181019050611a54565b5085935050505092915050565b600081519050919050565b600082825260208201905092915050565b60005b83811015611ac8578082015181840152602081019050611aad565b60008484015250505050565b6000611adf82611a8e565b611ae98185611a99565b9350611af9818560208601611aaa565b611b0281611463565b840191505092915050565b611b16816113d6565b82525050565b611b2581611733565b82525050565b6000610100830160008301518482036000860152611b4982826119c1565b91505060208301518482036020860152611b638282611a30565b91505060408301518482036040860152611b7d8282611ad4565b91505060608301518482036060860152611b978282611ad4565b9150506080830151611bac6080860182611b0d565b5060a0830151611bbf60a0860182611b0d565b5060c0830151611bd260c0860182611b1c565b5060e0830151611be560e0860182611b1c565b508091505092915050565b6000611bfc8383611b2b565b905092915050565b6000602082019050919050565b6000611c1c82611935565b611c268185611940565b935083602082028501611c3885611951565b8060005b85811015611c745784840389528151611c558582611bf0565b9450611c6083611c04565b925060208a01995050600181019050611c3c565b50829750879550505050505092915050565b60006020820190508181036000830152611ca08184611c11565b905092915050565b600060208284031215611cbe57611cbd6113a0565b5b6000611ccc848285016113c1565b91505092915050565b600082825260208201905092915050565b6000611cf182611a8e565b611cfb8185611cd5565b9350611d0b818560208601611aaa565b611d1481611463565b840191505092915050565b611d28816113d6565b82525050565b611d3781611733565b82525050565b600060c0820190508181036000830152611d578189611ce6565b90508181036020830152611d6b8188611ce6565b9050611d7a6040830187611d1f565b611d876060830186611d1f565b611d946080830185611d2e565b611da160a0830184611d2e565b979650505050505050565b6000610100830160008301518482036000860152611dca82826119c1565b91505060208301518482036020860152611de48282611a30565b91505060408301518482036040860152611dfe8282611ad4565b91505060608301518482036060860152611e188282611ad4565b9150506080830151611e2d6080860182611b0d565b5060a0830151611e4060a0860182611b0d565b5060c0830151611e5360c0860182611b1c565b5060e0830151611e6660e0860182611b1c565b508091505092915050565b60006020820190508181036000830152611e8b8184611dac565b905092915050565b7f4e487b7100000000000000000000000000000000000000000000000000000000600052601160045260246000fd5b6000611ecd826113d6565b9150611ed8836113d6565b925082820390506fffffffffffffffffffffffffffffffff811115611f0057611eff611e93565b5b92915050565b6000602082019050611f1b6000830184611d1f565b92915050565b7f4e487b7100000000000000000000000000000000000000000000000000000000600052602260045260246000fd5b60006002820490506001821680611f6857607f821691505b602082108103611f7b57611f7a611f21565b5b50919050565b60008190508160005260206000209050919050565b60006020601f8301049050919050565b600082821b905092915050565b600060088302611fe37fffffffffffffffffffffffffffffffffffffffffffffffffffffffffffffffff82611fa6565b611fed8683611fa6565b95508019841693508086168417925050509392505050565b6000819050919050565b600061202a612025612020846112d8565b612005565b6112d8565b9050919050565b6000819050919050565b6120448361200f565b61205861205082612031565b848454611fb3565b825550505050565b600090565b61206d612060565b61207881848461203b565b505050565b5b8181101561209c57612091600082612065565b60018101905061207e565b5050565b601f8211156120e1576120b281611f81565b6120bb84611f96565b810160208510156120ca578190505b6120de6120d685611f96565b83018261207d565b50505b505050565b600082821c905092915050565b6000612104600019846008026120e6565b1980831691505092915050565b600061211d83836120f3565b9150826002028217905092915050565b61213682611a8e565b67ffffffffffffffff81111561214f5761214e611474565b5b6121598254611f50565b6121648282856120a0565b600060209050601f8311600181146121975760008415612185578287015190505b61218f8582612111565b8655506121f7565b601f1984166121a586611f81565b60005b828110156121cd578489015182556001820191506020850194506020810190506121a8565b868310156121ea57848901516121e6601f8916826120f3565b8355505b6001600288020188555050505b505050505050565b600081905092915050565b612213816112d8565b82525050565b6000612225838361220a565b60208301905092915050565b600061223c826112ac565b61224681856121ff565b9350612251836112c8565b8060005b838110156122825781516122698882612219565b975061227483611309565b925050600181019050612255565b5085935050505092915050565b600061229b8284612231565b915081905092915050565b600081905092915050565b6122ba81611540565b82525050565b60006122cc83836122b1565b60208301905092915050565b60006122e382611961565b6122ed81856122a6565b93506122f88361197d565b8060005b8381101561232957815161231088826122c0565b975061231b836119b4565b9250506001810190506122fc565b5085935050505092915050565b600061234282846122d8565b915081905092915050565b82818337600083830152505050565b60006123688385611cd5565b935061237583858461234d565b61237e83611463565b840190509392505050565b600060c08201905081810360008301526123a4818a8c61235c565b905081810360208301526123b981888a61235c565b90506123c86040830187611d1f565b6123d56060830186611d1f565b6123e26080830185611d2e565b6123ef60a0830184611d2e565b9998505050505050505050565b6000612407826112d8565b91507fffffffffffffffffffffffffffffffffffffffffffffffffffffffffffffffff820361243957612438611e93565b5b600182019050919050565b7f4e487b7100000000000000000000000000000000000000000000000000000000600052603260045260246000fdfea2646970667358221220e8f5e55a5b914006cba423031f1e31288cb8d0fd0f861afb5f79be86932a6a0f64736f6c63430008130033",
  "linkReferences": {},
  "deployedLinkReferences": {}
}