{
  "_format": "hh-sol-artifact-1",
  "contractName": "manufacturerProduct",
  "sourceName": "contracts/manufacturerProduct.sol",
  "abi": [
    {
      "anonymous": false,
      "inputs": [
        {
          "indexed": true,
          "internalType": "uint256",
          "name": "_mpId",
          "type": "uint256"
        },
        {
          "indexed": true,
          "internalType": "address[]",
          "name": "_supplierAddress",
          "type": "address[]"
        },
        {
          "indexed": true,
          "internalType": "uint256[]",
          "name": "_smId",
          "type": "uint256[]"
        },
        {
          "indexed": false,
          "internalType": "bytes",
          "name": "_name",
          "type": "bytes"
        },
        {
          "indexed": false,
          "internalType": "bytes",
          "name": "_description",
          "type": "bytes"
        },
        {
          "indexed": false,
          "internalType": "uint128",
          "name": "_unit",
          "type": "uint128"
        },
        {
          "indexed": false,
          "internalType": "uint128",
          "name": "_price",
          "type": "uint128"
        },
        {
          "indexed": false,
          "internalType": "uint32",
          "name": "_date",
          "type": "uint32"
        },
        {
          "indexed": false,
          "internalType": "uint32",
          "name": "_expiryDate",
          "type": "uint32"
        },
        {
          "indexed": false,
          "internalType": "bool",
          "name": "status",
          "type": "bool"
        }
      ],
      "name": "eventAddManufacturerProduct",
      "type": "event"
    },
    {
      "anonymous": false,
      "inputs": [
        {
          "indexed": false,
          "internalType": "uint256",
          "name": "_Id",
          "type": "uint256"
        }
      ],
      "name": "eventDeleteManufacturerProduct",
      "type": "event"
    },
    {
      "anonymous": false,
      "inputs": [
        {
          "indexed": true,
          "internalType": "uint256",
          "name": "_dpId",
          "type": "uint256"
        },
        {
          "indexed": false,
          "internalType": "uint128",
          "name": "_quantity",
          "type": "uint128"
        }
      ],
      "name": "eventUpdateDistributorProductUints",
      "type": "event"
    },
    {
      "inputs": [
        {
          "internalType": "address[]",
          "name": "_supplierAddress",
          "type": "address[]"
        },
        {
          "internalType": "uint256[]",
          "name": "_smId",
          "type": "uint256[]"
        },
        {
          "internalType": "bytes",
          "name": "_name",
          "type": "bytes"
        },
        {
          "internalType": "bytes",
          "name": "_description",
          "type": "bytes"
        },
        {
          "internalType": "uint128",
          "name": "_unit",
          "type": "uint128"
        },
        {
          "internalType": "uint128",
          "name": "_price",
          "type": "uint128"
        },
        {
          "internalType": "uint32",
          "name": "_date",
          "type": "uint32"
        },
        {
          "internalType": "uint32",
          "name": "_expiryDate",
          "type": "uint32"
        }
      ],
      "name": "addManufacturerProduct",
      "outputs": [],
      "stateMutability": "nonpayable",
      "type": "function"
    },
    {
      "inputs": [
        {
          "internalType": "uint256",
          "name": "_id",
          "type": "uint256"
        }
      ],
      "name": "deleteManufacturerProduct",
      "outputs": [],
      "stateMutability": "nonpayable",
      "type": "function"
    },
    {
      "inputs": [
        {
          "internalType": "address",
          "name": "_manufacturerAddress",
          "type": "address"
        }
      ],
      "name": "getAllProductsOfManufacturer",
      "outputs": [
        {
          "components": [
            {
              "internalType": "address[]",
              "name": "supplierAddress",
              "type": "address[]"
            },
            {
              "internalType": "uint256[]",
              "name": "smId",
              "type": "uint256[]"
            },
            {
              "internalType": "bytes",
              "name": "mp_name",
              "type": "bytes"
            },
            {
              "internalType": "bytes",
              "name": "mp_description",
              "type": "bytes"
            },
            {
              "internalType": "uint128",
              "name": "mp_unit",
              "type": "uint128"
            },
            {
              "internalType": "uint128",
              "name": "mp_price",
              "type": "uint128"
            },
            {
              "internalType": "uint32",
              "name": "mp_date",
              "type": "uint32"
            },
            {
              "internalType": "uint32",
              "name": "mp_expiryDate",
              "type": "uint32"
            },
            {
              "internalType": "bool",
              "name": "status",
              "type": "bool"
            }
          ],
          "internalType": "struct IManufacturerProduct.manufacturerProduct[]",
          "name": "",
          "type": "tuple[]"
        }
      ],
      "stateMutability": "view",
      "type": "function"
    },
    {
      "inputs": [],
      "name": "getManufacturerProductIds",
      "outputs": [
        {
          "internalType": "uint256[]",
          "name": "",
          "type": "uint256[]"
        }
      ],
      "stateMutability": "view",
      "type": "function"
    },
    {
      "inputs": [
        {
          "internalType": "uint256",
          "name": "_id",
          "type": "uint256"
        }
      ],
      "name": "getSingleManufacturerProduct",
      "outputs": [
        {
          "components": [
            {
              "internalType": "address[]",
              "name": "supplierAddress",
              "type": "address[]"
            },
            {
              "internalType": "uint256[]",
              "name": "smId",
              "type": "uint256[]"
            },
            {
              "internalType": "bytes",
              "name": "mp_name",
              "type": "bytes"
            },
            {
              "internalType": "bytes",
              "name": "mp_description",
              "type": "bytes"
            },
            {
              "internalType": "uint128",
              "name": "mp_unit",
              "type": "uint128"
            },
            {
              "internalType": "uint128",
              "name": "mp_price",
              "type": "uint128"
            },
            {
              "internalType": "uint32",
              "name": "mp_date",
              "type": "uint32"
            },
            {
              "internalType": "uint32",
              "name": "mp_expiryDate",
              "type": "uint32"
            },
            {
              "internalType": "bool",
              "name": "status",
              "type": "bool"
            }
          ],
          "internalType": "struct IManufacturerProduct.manufacturerProduct",
          "name": "",
          "type": "tuple"
        }
      ],
      "stateMutability": "view",
      "type": "function"
    },
    {
      "inputs": [
        {
          "internalType": "address",
          "name": "",
          "type": "address"
        },
        {
          "internalType": "uint256",
          "name": "",
          "type": "uint256"
        }
      ],
      "name": "manufacturerAddressToproductsIdMapping",
      "outputs": [
        {
          "internalType": "uint256",
          "name": "",
          "type": "uint256"
        }
      ],
      "stateMutability": "view",
      "type": "function"
    },
    {
      "inputs": [
        {
          "internalType": "uint256",
          "name": "",
          "type": "uint256"
        }
      ],
      "name": "manufacturerProductsIdToStructMapping",
      "outputs": [
        {
          "internalType": "bytes",
          "name": "mp_name",
          "type": "bytes"
        },
        {
          "internalType": "bytes",
          "name": "mp_description",
          "type": "bytes"
        },
        {
          "internalType": "uint128",
          "name": "mp_unit",
          "type": "uint128"
        },
        {
          "internalType": "uint128",
          "name": "mp_price",
          "type": "uint128"
        },
        {
          "internalType": "uint32",
          "name": "mp_date",
          "type": "uint32"
        },
        {
          "internalType": "uint32",
          "name": "mp_expiryDate",
          "type": "uint32"
        },
        {
          "internalType": "bool",
          "name": "status",
          "type": "bool"
        }
      ],
      "stateMutability": "view",
      "type": "function"
    },
    {
      "inputs": [
        {
          "internalType": "uint256",
          "name": "_mpId",
          "type": "uint256"
        },
        {
          "internalType": "uint128",
          "name": "_quantity",
          "type": "uint128"
        }
      ],
      "name": "updateDistributorProductUints",
      "outputs": [],
      "stateMutability": "nonpayable",
      "type": "function"
    }
  ],
  "bytecode": "0x6080604052600160005534801561001557600080fd5b5061247c806100256000396000f3fe608060405234801561001057600080fd5b50600436106100885760003560e01c8063607159711161005b578063607159711461011357806365603df2146101435780639ea61c7e14610179578063f6a989f81461019557610088565b806324e5e6aa1461008d578063365c66a0146100ab578063448952e1146100c7578063580f469c146100e3575b600080fd5b6100956101c5565b6040516100a291906112d7565b60405180910390f35b6100c560048036038101906100c09190611381565b61025a565b005b6100e160048036038101906100dc91906116d2565b61033f565b005b6100fd60048036038101906100f89190611801565b6106a6565b60405161010a9190611850565b60405180910390f35b61012d6004803603810190610128919061186b565b6106d7565b60405161013a9190611c19565b60405180910390f35b61015d60048036038101906101589190611c3b565b610b4a565b6040516101709796959493929190611cdf565b60405180910390f35b610193600480360381019061018e9190611c3b565b610d01565b005b6101af60048036038101906101aa9190611c3b565b610d6a565b6040516101bc9190611e36565b60405180910390f35b6060600260003373ffffffffffffffffffffffffffffffffffffffff1673ffffffffffffffffffffffffffffffffffffffff16815260200190815260200160002080548060200260200160405190810160405280929190818152602001828054801561025057602002820191906000526020600020905b81548152602001906001019080831161023c575b5050505050905090565b806001600084815260200190815260200160002060040160008282829054906101000a90046fffffffffffffffffffffffffffffffff1661029b9190611e87565b92506101000a8154816fffffffffffffffffffffffffffffffff02191690836fffffffffffffffffffffffffffffffff160217905550817f68bde38859e54f5324143149657742ab33dc1d248bbd68795382aa56cc1b99426001600085815260200190815260200160002060040160009054906101000a90046fffffffffffffffffffffffffffffffff166040516103339190611ecb565b60405180910390a25050565b6040518061012001604052808b81526020018a815260200189898080601f016020809104026020016040519081016040528093929190818152602001838380828437600081840152601f19601f82011690508083019250505050505050815260200187878080601f016020809104026020016040519081016040528093929190818152602001838380828437600081840152601f19601f820116905080830192505050505050508152602001856fffffffffffffffffffffffffffffffff168152602001846fffffffffffffffffffffffffffffffff1681526020018363ffffffff1681526020018263ffffffff168152602001600115158152506001600080548152602001908152602001600020600082015181600001908051906020019061046a92919061109d565b506020820151816001019080519060200190610487929190611127565b50604082015181600201908161049d91906120f2565b5060608201518160030190816104b391906120f2565b5060808201518160040160006101000a8154816fffffffffffffffffffffffffffffffff02191690836fffffffffffffffffffffffffffffffff16021790555060a08201518160040160106101000a8154816fffffffffffffffffffffffffffffffff02191690836fffffffffffffffffffffffffffffffff16021790555060c08201518160050160006101000a81548163ffffffff021916908363ffffffff16021790555060e08201518160050160046101000a81548163ffffffff021916908363ffffffff1602179055506101008201518160050160086101000a81548160ff021916908315150217905550905050600260003373ffffffffffffffffffffffffffffffffffffffff1673ffffffffffffffffffffffffffffffffffffffff16815260200190815260200160002060005490806001815401808255809150506001900390600052602060002001600090919091909150558860405161061a9190612254565b60405180910390208a60405161063091906122fb565b60405180910390206000547fc107ed61474a95961f1bbc14d77c724deb0bd18fefb1fc6f58b8e99c1e98fb638b8b8b8b8b8b8b8b600160405161067b9998979695949392919061234e565b60405180910390a4600080815480929190610695906123cf565b919050555050505050505050505050565b600260205281600052604060002081815481106106c257600080fd5b90600052602060002001600091509150505481565b60606000600260008473ffffffffffffffffffffffffffffffffffffffff1673ffffffffffffffffffffffffffffffffffffffff16815260200190815260200160002080548060200260200160405190810160405280929190818152602001828054801561076457602002820191906000526020600020905b815481526020019060010190808311610750575b505050505090506000815167ffffffffffffffff811115610788576107876113d7565b5b6040519080825280602002602001820160405280156107c157816020015b6107ae611174565b8152602001906001900390816107a65790505b50905060005b8251811015610b3f57600160008483815181106107e7576107e6612417565b5b60200260200101518152602001908152602001600020604051806101200160405290816000820180548060200260200160405190810160405280929190818152602001828054801561088e57602002820191906000526020600020905b8160009054906101000a900473ffffffffffffffffffffffffffffffffffffffff1673ffffffffffffffffffffffffffffffffffffffff1681526020019060010190808311610844575b50505050508152602001600182018054806020026020016040519081016040528092919081815260200182805480156108e657602002820191906000526020600020905b8154815260200190600101908083116108d2575b505050505081526020016002820180546108ff90611f15565b80601f016020809104026020016040519081016040528092919081815260200182805461092b90611f15565b80156109785780601f1061094d57610100808354040283529160200191610978565b820191906000526020600020905b81548152906001019060200180831161095b57829003601f168201915b5050505050815260200160038201805461099190611f15565b80601f01602080910402602001604051908101604052809291908181526020018280546109bd90611f15565b8015610a0a5780601f106109df57610100808354040283529160200191610a0a565b820191906000526020600020905b8154815290600101906020018083116109ed57829003601f168201915b505050505081526020016004820160009054906101000a90046fffffffffffffffffffffffffffffffff166fffffffffffffffffffffffffffffffff166fffffffffffffffffffffffffffffffff1681526020016004820160109054906101000a90046fffffffffffffffffffffffffffffffff166fffffffffffffffffffffffffffffffff166fffffffffffffffffffffffffffffffff1681526020016005820160009054906101000a900463ffffffff1663ffffffff1663ffffffff1681526020016005820160049054906101000a900463ffffffff1663ffffffff1663ffffffff1681526020016005820160089054906101000a900460ff161515151581525050828281518110610b2157610b20612417565b5b60200260200101819052508080610b37906123cf565b9150506107c7565b508092505050919050565b6001602052806000526040600020600091509050806002018054610b6d90611f15565b80601f0160208091040260200160405190810160405280929190818152602001828054610b9990611f15565b8015610be65780601f10610bbb57610100808354040283529160200191610be6565b820191906000526020600020905b815481529060010190602001808311610bc957829003601f168201915b505050505090806003018054610bfb90611f15565b80601f0160208091040260200160405190810160405280929190818152602001828054610c2790611f15565b8015610c745780601f10610c4957610100808354040283529160200191610c74565b820191906000526020600020905b815481529060010190602001808311610c5757829003601f168201915b5050505050908060040160009054906101000a90046fffffffffffffffffffffffffffffffff16908060040160109054906101000a90046fffffffffffffffffffffffffffffffff16908060050160009054906101000a900463ffffffff16908060050160049054906101000a900463ffffffff16908060050160089054906101000a900460ff16905087565b60006001600083815260200190815260200160002060050160086101000a81548160ff0219169083151502179055507fbe5aa4247333e0978e80edfd1266e28e6cba6ea134522f795973c7133bc4317481604051610d5f9190611850565b60405180910390a150565b610d72611174565b600160008381526020019081526020016000206040518061012001604052908160008201805480602002602001604051908101604052809291908181526020018280548015610e1657602002820191906000526020600020905b8160009054906101000a900473ffffffffffffffffffffffffffffffffffffffff1673ffffffffffffffffffffffffffffffffffffffff1681526020019060010190808311610dcc575b5050505050815260200160018201805480602002602001604051908101604052809291908181526020018280548015610e6e57602002820191906000526020600020905b815481526020019060010190808311610e5a575b50505050508152602001600282018054610e8790611f15565b80601f0160208091040260200160405190810160405280929190818152602001828054610eb390611f15565b8015610f005780601f10610ed557610100808354040283529160200191610f00565b820191906000526020600020905b815481529060010190602001808311610ee357829003601f168201915b50505050508152602001600382018054610f1990611f15565b80601f0160208091040260200160405190810160405280929190818152602001828054610f4590611f15565b8015610f925780601f10610f6757610100808354040283529160200191610f92565b820191906000526020600020905b815481529060010190602001808311610f7557829003601f168201915b505050505081526020016004820160009054906101000a90046fffffffffffffffffffffffffffffffff166fffffffffffffffffffffffffffffffff166fffffffffffffffffffffffffffffffff1681526020016004820160109054906101000a90046fffffffffffffffffffffffffffffffff166fffffffffffffffffffffffffffffffff166fffffffffffffffffffffffffffffffff1681526020016005820160009054906101000a900463ffffffff1663ffffffff1663ffffffff1681526020016005820160049054906101000a900463ffffffff1663ffffffff1663ffffffff1681526020016005820160089054906101000a900460ff1615151515815250509050919050565b828054828255906000526020600020908101928215611116579160200282015b828111156111155782518260006101000a81548173ffffffffffffffffffffffffffffffffffffffff021916908373ffffffffffffffffffffffffffffffffffffffff160217905550916020019190600101906110bd565b5b50905061112391906111f2565b5090565b828054828255906000526020600020908101928215611163579160200282015b82811115611162578251825591602001919060010190611147565b5b50905061117091906111f2565b5090565b6040518061012001604052806060815260200160608152602001606081526020016060815260200160006fffffffffffffffffffffffffffffffff16815260200160006fffffffffffffffffffffffffffffffff168152602001600063ffffffff168152602001600063ffffffff1681526020016000151581525090565b5b8082111561120b5760008160009055506001016111f3565b5090565b600081519050919050565b600082825260208201905092915050565b6000819050602082019050919050565b6000819050919050565b61124e8161123b565b82525050565b60006112608383611245565b60208301905092915050565b6000602082019050919050565b60006112848261120f565b61128e818561121a565b93506112998361122b565b8060005b838110156112ca5781516112b18882611254565b97506112bc8361126c565b92505060018101905061129d565b5085935050505092915050565b600060208201905081810360008301526112f18184611279565b905092915050565b6000604051905090565b600080fd5b600080fd5b6113168161123b565b811461132157600080fd5b50565b6000813590506113338161130d565b92915050565b60006fffffffffffffffffffffffffffffffff82169050919050565b61135e81611339565b811461136957600080fd5b50565b60008135905061137b81611355565b92915050565b6000806040838503121561139857611397611303565b5b60006113a685828601611324565b92505060206113b78582860161136c565b9150509250929050565b600080fd5b6000601f19601f8301169050919050565b7f4e487b7100000000000000000000000000000000000000000000000000000000600052604160045260246000fd5b61140f826113c6565b810181811067ffffffffffffffff8211171561142e5761142d6113d7565b5b80604052505050565b60006114416112f9565b905061144d8282611406565b919050565b600067ffffffffffffffff82111561146d5761146c6113d7565b5b602082029050602081019050919050565b600080fd5b600073ffffffffffffffffffffffffffffffffffffffff82169050919050565b60006114ae82611483565b9050919050565b6114be816114a3565b81146114c957600080fd5b50565b6000813590506114db816114b5565b92915050565b60006114f46114ef84611452565b611437565b905080838252602082019050602084028301858111156115175761151661147e565b5b835b81811015611540578061152c88826114cc565b845260208401935050602081019050611519565b5050509392505050565b600082601f83011261155f5761155e6113c1565b5b813561156f8482602086016114e1565b91505092915050565b600067ffffffffffffffff821115611593576115926113d7565b5b602082029050602081019050919050565b60006115b76115b284611578565b611437565b905080838252602082019050602084028301858111156115da576115d961147e565b5b835b8181101561160357806115ef8882611324565b8452602084019350506020810190506115dc565b5050509392505050565b600082601f830112611622576116216113c1565b5b81356116328482602086016115a4565b91505092915050565b600080fd5b60008083601f840112611656576116556113c1565b5b8235905067ffffffffffffffff8111156116735761167261163b565b5b60208301915083600182028301111561168f5761168e61147e565b5b9250929050565b600063ffffffff82169050919050565b6116af81611696565b81146116ba57600080fd5b50565b6000813590506116cc816116a6565b92915050565b6000806000806000806000806000806101008b8d0312156116f6576116f5611303565b5b60008b013567ffffffffffffffff81111561171457611713611308565b5b6117208d828e0161154a565b9a505060208b013567ffffffffffffffff81111561174157611740611308565b5b61174d8d828e0161160d565b99505060408b013567ffffffffffffffff81111561176e5761176d611308565b5b61177a8d828e01611640565b985098505060608b013567ffffffffffffffff81111561179d5761179c611308565b5b6117a98d828e01611640565b965096505060806117bc8d828e0161136c565b94505060a06117cd8d828e0161136c565b93505060c06117de8d828e016116bd565b92505060e06117ef8d828e016116bd565b9150509295989b9194979a5092959850565b6000806040838503121561181857611817611303565b5b6000611826858286016114cc565b925050602061183785828601611324565b9150509250929050565b61184a8161123b565b82525050565b60006020820190506118656000830184611841565b92915050565b60006020828403121561188157611880611303565b5b600061188f848285016114cc565b91505092915050565b600081519050919050565b600082825260208201905092915050565b6000819050602082019050919050565b600081519050919050565b600082825260208201905092915050565b6000819050602082019050919050565b6118f9816114a3565b82525050565b600061190b83836118f0565b60208301905092915050565b6000602082019050919050565b600061192f826118c4565b61193981856118cf565b9350611944836118e0565b8060005b8381101561197557815161195c88826118ff565b975061196783611917565b925050600181019050611948565b5085935050505092915050565b600082825260208201905092915050565b600061199e8261120f565b6119a88185611982565b93506119b38361122b565b8060005b838110156119e45781516119cb8882611254565b97506119d68361126c565b9250506001810190506119b7565b5085935050505092915050565b600081519050919050565b600082825260208201905092915050565b60005b83811015611a2b578082015181840152602081019050611a10565b60008484015250505050565b6000611a42826119f1565b611a4c81856119fc565b9350611a5c818560208601611a0d565b611a65816113c6565b840191505092915050565b611a7981611339565b82525050565b611a8881611696565b82525050565b60008115159050919050565b611aa381611a8e565b82525050565b6000610120830160008301518482036000860152611ac78282611924565b91505060208301518482036020860152611ae18282611993565b91505060408301518482036040860152611afb8282611a37565b91505060608301518482036060860152611b158282611a37565b9150506080830151611b2a6080860182611a70565b5060a0830151611b3d60a0860182611a70565b5060c0830151611b5060c0860182611a7f565b5060e0830151611b6360e0860182611a7f565b50610100830151611b78610100860182611a9a565b508091505092915050565b6000611b8f8383611aa9565b905092915050565b6000602082019050919050565b6000611baf82611898565b611bb981856118a3565b935083602082028501611bcb856118b4565b8060005b85811015611c075784840389528151611be88582611b83565b9450611bf383611b97565b925060208a01995050600181019050611bcf565b50829750879550505050505092915050565b60006020820190508181036000830152611c338184611ba4565b905092915050565b600060208284031215611c5157611c50611303565b5b6000611c5f84828501611324565b91505092915050565b600082825260208201905092915050565b6000611c84826119f1565b611c8e8185611c68565b9350611c9e818560208601611a0d565b611ca7816113c6565b840191505092915050565b611cbb81611339565b82525050565b611cca81611696565b82525050565b611cd981611a8e565b82525050565b600060e0820190508181036000830152611cf9818a611c79565b90508181036020830152611d0d8189611c79565b9050611d1c6040830188611cb2565b611d296060830187611cb2565b611d366080830186611cc1565b611d4360a0830185611cc1565b611d5060c0830184611cd0565b98975050505050505050565b6000610120830160008301518482036000860152611d7a8282611924565b91505060208301518482036020860152611d948282611993565b91505060408301518482036040860152611dae8282611a37565b91505060608301518482036060860152611dc88282611a37565b9150506080830151611ddd6080860182611a70565b5060a0830151611df060a0860182611a70565b5060c0830151611e0360c0860182611a7f565b5060e0830151611e1660e0860182611a7f565b50610100830151611e2b610100860182611a9a565b508091505092915050565b60006020820190508181036000830152611e508184611d5c565b905092915050565b7f4e487b7100000000000000000000000000000000000000000000000000000000600052601160045260246000fd5b6000611e9282611339565b9150611e9d83611339565b925082820390506fffffffffffffffffffffffffffffffff811115611ec557611ec4611e58565b5b92915050565b6000602082019050611ee06000830184611cb2565b92915050565b7f4e487b7100000000000000000000000000000000000000000000000000000000600052602260045260246000fd5b60006002820490506001821680611f2d57607f821691505b602082108103611f4057611f3f611ee6565b5b50919050565b60008190508160005260206000209050919050565b60006020601f8301049050919050565b600082821b905092915050565b600060088302611fa87fffffffffffffffffffffffffffffffffffffffffffffffffffffffffffffffff82611f6b565b611fb28683611f6b565b95508019841693508086168417925050509392505050565b6000819050919050565b6000611fef611fea611fe58461123b565b611fca565b61123b565b9050919050565b6000819050919050565b61200983611fd4565b61201d61201582611ff6565b848454611f78565b825550505050565b600090565b612032612025565b61203d818484612000565b505050565b5b818110156120615761205660008261202a565b600181019050612043565b5050565b601f8211156120a65761207781611f46565b61208084611f5b565b8101602085101561208f578190505b6120a361209b85611f5b565b830182612042565b50505b505050565b600082821c905092915050565b60006120c9600019846008026120ab565b1980831691505092915050565b60006120e283836120b8565b9150826002028217905092915050565b6120fb826119f1565b67ffffffffffffffff811115612114576121136113d7565b5b61211e8254611f15565b612129828285612065565b600060209050601f83116001811461215c576000841561214a578287015190505b61215485826120d6565b8655506121bc565b601f19841661216a86611f46565b60005b828110156121925784890151825560018201915060208501945060208101905061216d565b868310156121af57848901516121ab601f8916826120b8565b8355505b6001600288020188555050505b505050505050565b600081905092915050565b6121d88161123b565b82525050565b60006121ea83836121cf565b60208301905092915050565b60006122018261120f565b61220b81856121c4565b93506122168361122b565b8060005b8381101561224757815161222e88826121de565b97506122398361126c565b92505060018101905061221a565b5085935050505092915050565b600061226082846121f6565b915081905092915050565b600081905092915050565b61227f816114a3565b82525050565b60006122918383612276565b60208301905092915050565b60006122a8826118c4565b6122b2818561226b565b93506122bd836118e0565b8060005b838110156122ee5781516122d58882612285565b97506122e083611917565b9250506001810190506122c1565b5085935050505092915050565b6000612307828461229d565b915081905092915050565b82818337600083830152505050565b600061232d8385611c68565b935061233a838584612312565b612343836113c6565b840190509392505050565b600060e0820190508181036000830152612369818b8d612321565b9050818103602083015261237e81898b612321565b905061238d6040830188611cb2565b61239a6060830187611cb2565b6123a76080830186611cc1565b6123b460a0830185611cc1565b6123c160c0830184611cd0565b9a9950505050505050505050565b60006123da8261123b565b91507fffffffffffffffffffffffffffffffffffffffffffffffffffffffffffffffff820361240c5761240b611e58565b5b600182019050919050565b7f4e487b7100000000000000000000000000000000000000000000000000000000600052603260045260246000fdfea26469706673582212201fc95256e3799039dd49ae28d2a197709ecc76fc4cfdba914aa541d82dcae18d64736f6c63430008120033",
  "linkReferences": {},
  "deployedLinkReferences": {}
}