{"contracts/supplierManufacturer.sol":{"supplierManufacturer":{"abi":[{"anonymous":false,"inputs":[{"indexed":false,"internalType":"uint32","name":"_arrivalTime","type":"uint32"}],"name":"eventArrivalTime","type":"event"},{"anonymous":false,"inputs":[{"indexed":true,"internalType":"uint256","name":"_smId","type":"uint256"},{"indexed":true,"internalType":"uint256","name":"_spId","type":"uint256"},{"indexed":false,"internalType":"address","name":"_supplierAddress","type":"address"},{"indexed":false,"internalType":"address","name":"_manufacturerAddress","type":"address"},{"indexed":false,"internalType":"uint32","name":"_dispatchTime","type":"uint32"}],"name":"eventSupplierManufacturerTransfer","type":"event"},{"inputs":[{"internalType":"address","name":"_manufacturerAddress","type":"address"}],"name":"getAllSmIdForManufacturer","outputs":[{"components":[{"internalType":"uint256","name":"spId","type":"uint256"},{"internalType":"address","name":"supplierAddress","type":"address"},{"internalType":"address","name":"manufacturerAddress","type":"address"},{"internalType":"uint32","name":"dispatchTime","type":"uint32"},{"internalType":"uint32","name":"arrivalTime","type":"uint32"}],"internalType":"struct ISupplierManufacturer.supplierManufacturer[]","name":"","type":"tuple[]"}],"stateMutability":"view","type":"function"},{"inputs":[{"internalType":"uint256","name":"_smId","type":"uint256"}],"name":"getProduct","outputs":[{"components":[{"internalType":"uint256","name":"spId","type":"uint256"},{"internalType":"address","name":"supplierAddress","type":"address"},{"internalType":"address","name":"manufacturerAddress","type":"address"},{"internalType":"uint32","name":"dispatchTime","type":"uint32"},{"internalType":"uint32","name":"arrivalTime","type":"uint32"}],"internalType":"struct ISupplierManufacturer.supplierManufacturer","name":"","type":"tuple"}],"stateMutability":"view","type":"function"},{"inputs":[{"internalType":"address","name":"","type":"address"},{"internalType":"uint256","name":"","type":"uint256"}],"name":"manufacturerTosmIdMapping","outputs":[{"internalType":"uint256","name":"","type":"uint256"}],"stateMutability":"view","type":"function"},{"inputs":[{"internalType":"uint256","name":"_smId","type":"uint256"}],"name":"receiveProduct","outputs":[],"stateMutability":"nonpayable","type":"function"},{"inputs":[],"name":"smId","outputs":[{"internalType":"uint256","name":"","type":"uint256"}],"stateMutability":"view","type":"function"},{"inputs":[{"internalType":"uint256","name":"","type":"uint256"}],"name":"smIdToStructMapping","outputs":[{"internalType":"uint256","name":"spId","type":"uint256"},{"internalType":"address","name":"supplierAddress","type":"address"},{"internalType":"address","name":"manufacturerAddress","type":"address"},{"internalType":"uint32","name":"dispatchTime","type":"uint32"},{"internalType":"uint32","name":"arrivalTime","type":"uint32"}],"stateMutability":"view","type":"function"},{"inputs":[{"internalType":"uint256","name":"_spId","type":"uint256"},{"internalType":"address","name":"_supplierAddress","type":"address"},{"internalType":"address","name":"_manufacturerAddress","type":"address"},{"internalType":"uint32","name":"_dispatchTime","type":"uint32"}],"name":"transferProduct","outputs":[],"stateMutability":"nonpayable","type":"function"}],"evm":{"bytecode":{"linkReferences":{},"object":"6080604052600160005534801561001557600080fd5b50610eb5806100256000396000f3fe608060405234801561001057600080fd5b506004361061007d5760003560e01c806329d783281161005b57806329d78328146100ec57806370b775a014610108578063b9db15b414610138578063ec02181a146101685761007d565b8063029e2fe414610082578063055498bd146100a05780631001f30f146100bc575b600080fd5b61008a61019c565b6040516100979190610917565b60405180910390f35b6100ba60048036038101906100b591906109fd565b6101a2565b005b6100d660048036038101906100d19190610a64565b6103c3565b6040516100e39190610917565b60405180910390f35b61010660048036038101906101019190610aa4565b6103f4565b005b610122600480360381019061011d9190610ad1565b610463565b60405161012f9190610c42565b60405180910390f35b610152600480360381019061014d9190610aa4565b6106d2565b60405161015f9190610ccc565b60405180910390f35b610182600480360381019061017d9190610aa4565b610801565b604051610193959493929190610d05565b60405180910390f35b60005481565b6040518060a001604052808581526020018473ffffffffffffffffffffffffffffffffffffffff1681526020018373ffffffffffffffffffffffffffffffffffffffff1681526020018263ffffffff168152602001600063ffffffff1681525060016000805481526020019081526020016000206000820151816000015560208201518160010160006101000a81548173ffffffffffffffffffffffffffffffffffffffff021916908373ffffffffffffffffffffffffffffffffffffffff16021790555060408201518160020160006101000a81548173ffffffffffffffffffffffffffffffffffffffff021916908373ffffffffffffffffffffffffffffffffffffffff16021790555060608201518160020160146101000a81548163ffffffff021916908363ffffffff16021790555060808201518160020160186101000a81548163ffffffff021916908363ffffffff160217905550905050600260008373ffffffffffffffffffffffffffffffffffffffff1673ffffffffffffffffffffffffffffffffffffffff1681526020019081526020016000206000549080600181540180825580915050600190039060005260206000200160009091909190915055836000547f6abc5964a9f8c02bee56a206f75c7526ea67f5abd5cbbe939c60d4a489607e4985858560405161039e93929190610d58565b60405180910390a36000808154809291906103b890610dbe565b919050555050505050565b600260205281600052604060002081815481106103df57600080fd5b90600052602060002001600091509150505481565b426001600083815260200190815260200160002060020160186101000a81548163ffffffff021916908363ffffffff1602179055507f64e64e323422dcfed18a892f84596ccf7cc94b1952625f3cc82e6461b529fff1426040516104589190610e06565b60405180910390a150565b60606000600260008473ffffffffffffffffffffffffffffffffffffffff1673ffffffffffffffffffffffffffffffffffffffff1681526020019081526020016000208054806020026020016040519081016040528092919081815260200182805480156104f057602002820191906000526020600020905b8154815260200190600101908083116104dc575b505050505090506000815167ffffffffffffffff81111561051457610513610e21565b5b60405190808252806020026020018201604052801561054d57816020015b61053a610897565b8152602001906001900390816105325790505b50905060005b82518110156106c7576001600084838151811061057357610572610e50565b5b602002602001015181526020019081526020016000206040518060a0016040529081600082015481526020016001820160009054906101000a900473ffffffffffffffffffffffffffffffffffffffff1673ffffffffffffffffffffffffffffffffffffffff1673ffffffffffffffffffffffffffffffffffffffff1681526020016002820160009054906101000a900473ffffffffffffffffffffffffffffffffffffffff1673ffffffffffffffffffffffffffffffffffffffff1673ffffffffffffffffffffffffffffffffffffffff1681526020016002820160149054906101000a900463ffffffff1663ffffffff1663ffffffff1681526020016002820160189054906101000a900463ffffffff1663ffffffff1663ffffffff16815250508282815181106106a9576106a8610e50565b5b602002602001018190525080806106bf90610dbe565b915050610553565b508092505050919050565b6106da610897565b600160008381526020019081526020016000206040518060a0016040529081600082015481526020016001820160009054906101000a900473ffffffffffffffffffffffffffffffffffffffff1673ffffffffffffffffffffffffffffffffffffffff1673ffffffffffffffffffffffffffffffffffffffff1681526020016002820160009054906101000a900473ffffffffffffffffffffffffffffffffffffffff1673ffffffffffffffffffffffffffffffffffffffff1673ffffffffffffffffffffffffffffffffffffffff1681526020016002820160149054906101000a900463ffffffff1663ffffffff1663ffffffff1681526020016002820160189054906101000a900463ffffffff1663ffffffff1663ffffffff16815250509050919050565b60016020528060005260406000206000915090508060000154908060010160009054906101000a900473ffffffffffffffffffffffffffffffffffffffff16908060020160009054906101000a900473ffffffffffffffffffffffffffffffffffffffff16908060020160149054906101000a900463ffffffff16908060020160189054906101000a900463ffffffff16905085565b6040518060a0016040528060008152602001600073ffffffffffffffffffffffffffffffffffffffff168152602001600073ffffffffffffffffffffffffffffffffffffffff168152602001600063ffffffff168152602001600063ffffffff1681525090565b6000819050919050565b610911816108fe565b82525050565b600060208201905061092c6000830184610908565b92915050565b600080fd5b610940816108fe565b811461094b57600080fd5b50565b60008135905061095d81610937565b92915050565b600073ffffffffffffffffffffffffffffffffffffffff82169050919050565b600061098e82610963565b9050919050565b61099e81610983565b81146109a957600080fd5b50565b6000813590506109bb81610995565b92915050565b600063ffffffff82169050919050565b6109da816109c1565b81146109e557600080fd5b50565b6000813590506109f7816109d1565b92915050565b60008060008060808587031215610a1757610a16610932565b5b6000610a258782880161094e565b9450506020610a36878288016109ac565b9350506040610a47878288016109ac565b9250506060610a58878288016109e8565b91505092959194509250565b60008060408385031215610a7b57610a7a610932565b5b6000610a89858286016109ac565b9250506020610a9a8582860161094e565b9150509250929050565b600060208284031215610aba57610ab9610932565b5b6000610ac88482850161094e565b91505092915050565b600060208284031215610ae757610ae6610932565b5b6000610af5848285016109ac565b91505092915050565b600081519050919050565b600082825260208201905092915050565b6000819050602082019050919050565b610b33816108fe565b82525050565b610b4281610983565b82525050565b610b51816109c1565b82525050565b60a082016000820151610b6d6000850182610b2a565b506020820151610b806020850182610b39565b506040820151610b936040850182610b39565b506060820151610ba66060850182610b48565b506080820151610bb96080850182610b48565b50505050565b6000610bcb8383610b57565b60a08301905092915050565b6000602082019050919050565b6000610bef82610afe565b610bf98185610b09565b9350610c0483610b1a565b8060005b83811015610c35578151610c1c8882610bbf565b9750610c2783610bd7565b925050600181019050610c08565b5085935050505092915050565b60006020820190508181036000830152610c5c8184610be4565b905092915050565b60a082016000820151610c7a6000850182610b2a565b506020820151610c8d6020850182610b39565b506040820151610ca06040850182610b39565b506060820151610cb36060850182610b48565b506080820151610cc66080850182610b48565b50505050565b600060a082019050610ce16000830184610c64565b92915050565b610cf081610983565b82525050565b610cff816109c1565b82525050565b600060a082019050610d1a6000830188610908565b610d276020830187610ce7565b610d346040830186610ce7565b610d416060830185610cf6565b610d4e6080830184610cf6565b9695505050505050565b6000606082019050610d6d6000830186610ce7565b610d7a6020830185610ce7565b610d876040830184610cf6565b949350505050565b7f4e487b7100000000000000000000000000000000000000000000000000000000600052601160045260246000fd5b6000610dc9826108fe565b91507fffffffffffffffffffffffffffffffffffffffffffffffffffffffffffffffff8203610dfb57610dfa610d8f565b5b600182019050919050565b6000602082019050610e1b6000830184610cf6565b92915050565b7f4e487b7100000000000000000000000000000000000000000000000000000000600052604160045260246000fd5b7f4e487b7100000000000000000000000000000000000000000000000000000000600052603260045260246000fdfea2646970667358221220e86ec58bc2d20293404d571a853b7533402a6060b2d0d37bece55f0631ed7f2264736f6c63430008120033","opcodes":"PUSH1 0x80 PUSH1 0x40 MSTORE PUSH1 0x1 PUSH1 0x0 SSTORE CALLVALUE DUP1 ISZERO PUSH2 0x15 JUMPI PUSH1 0x0 DUP1 REVERT JUMPDEST POP PUSH2 0xEB5 DUP1 PUSH2 0x25 PUSH1 0x0 CODECOPY PUSH1 0x0 RETURN INVALID PUSH1 0x80 PUSH1 0x40 MSTORE CALLVALUE DUP1 ISZERO PUSH2 0x10 JUMPI PUSH1 0x0 DUP1 REVERT JUMPDEST POP PUSH1 0x4 CALLDATASIZE LT PUSH2 0x7D JUMPI PUSH1 0x0 CALLDATALOAD PUSH1 0xE0 SHR DUP1 PUSH4 0x29D78328 GT PUSH2 0x5B JUMPI DUP1 PUSH4 0x29D78328 EQ PUSH2 0xEC JUMPI DUP1 PUSH4 0x70B775A0 EQ PUSH2 0x108 JUMPI DUP1 PUSH4 0xB9DB15B4 EQ PUSH2 0x138 JUMPI DUP1 PUSH4 0xEC02181A EQ PUSH2 0x168 JUMPI PUSH2 0x7D JUMP JUMPDEST DUP1 PUSH4 0x29E2FE4 EQ PUSH2 0x82 JUMPI DUP1 PUSH4 0x55498BD EQ PUSH2 0xA0 JUMPI DUP1 PUSH4 0x1001F30F EQ PUSH2 0xBC JUMPI JUMPDEST PUSH1 0x0 DUP1 REVERT JUMPDEST PUSH2 0x8A PUSH2 0x19C JUMP JUMPDEST PUSH1 0x40 MLOAD PUSH2 0x97 SWAP2 SWAP1 PUSH2 0x917 JUMP JUMPDEST PUSH1 0x40 MLOAD DUP1 SWAP2 SUB SWAP1 RETURN JUMPDEST PUSH2 0xBA PUSH1 0x4 DUP1 CALLDATASIZE SUB DUP2 ADD SWAP1 PUSH2 0xB5 SWAP2 SWAP1 PUSH2 0x9FD JUMP JUMPDEST PUSH2 0x1A2 JUMP JUMPDEST STOP JUMPDEST PUSH2 0xD6 PUSH1 0x4 DUP1 CALLDATASIZE SUB DUP2 ADD SWAP1 PUSH2 0xD1 SWAP2 SWAP1 PUSH2 0xA64 JUMP JUMPDEST PUSH2 0x3C3 JUMP JUMPDEST PUSH1 0x40 MLOAD PUSH2 0xE3 SWAP2 SWAP1 PUSH2 0x917 JUMP JUMPDEST PUSH1 0x40 MLOAD DUP1 SWAP2 SUB SWAP1 RETURN JUMPDEST PUSH2 0x106 PUSH1 0x4 DUP1 CALLDATASIZE SUB DUP2 ADD SWAP1 PUSH2 0x101 SWAP2 SWAP1 PUSH2 0xAA4 JUMP JUMPDEST PUSH2 0x3F4 JUMP JUMPDEST STOP JUMPDEST PUSH2 0x122 PUSH1 0x4 DUP1 CALLDATASIZE SUB DUP2 ADD SWAP1 PUSH2 0x11D SWAP2 SWAP1 PUSH2 0xAD1 JUMP JUMPDEST PUSH2 0x463 JUMP JUMPDEST PUSH1 0x40 MLOAD PUSH2 0x12F SWAP2 SWAP1 PUSH2 0xC42 JUMP JUMPDEST PUSH1 0x40 MLOAD DUP1 SWAP2 SUB SWAP1 RETURN JUMPDEST PUSH2 0x152 PUSH1 0x4 DUP1 CALLDATASIZE SUB DUP2 ADD SWAP1 PUSH2 0x14D SWAP2 SWAP1 PUSH2 0xAA4 JUMP JUMPDEST PUSH2 0x6D2 JUMP JUMPDEST PUSH1 0x40 MLOAD PUSH2 0x15F SWAP2 SWAP1 PUSH2 0xCCC JUMP JUMPDEST PUSH1 0x40 MLOAD DUP1 SWAP2 SUB SWAP1 RETURN JUMPDEST PUSH2 0x182 PUSH1 0x4 DUP1 CALLDATASIZE SUB DUP2 ADD SWAP1 PUSH2 0x17D SWAP2 SWAP1 PUSH2 0xAA4 JUMP JUMPDEST PUSH2 0x801 JUMP JUMPDEST PUSH1 0x40 MLOAD PUSH2 0x193 SWAP6 SWAP5 SWAP4 SWAP3 SWAP2 SWAP1 PUSH2 0xD05 JUMP JUMPDEST PUSH1 0x40 MLOAD DUP1 SWAP2 SUB SWAP1 RETURN JUMPDEST PUSH1 0x0 SLOAD DUP2 JUMP JUMPDEST PUSH1 0x40 MLOAD DUP1 PUSH1 0xA0 ADD PUSH1 0x40 MSTORE DUP1 DUP6 DUP2 MSTORE PUSH1 0x20 ADD DUP5 PUSH20 0xFFFFFFFFFFFFFFFFFFFFFFFFFFFFFFFFFFFFFFFF AND DUP2 MSTORE PUSH1 0x20 ADD DUP4 PUSH20 0xFFFFFFFFFFFFFFFFFFFFFFFFFFFFFFFFFFFFFFFF AND DUP2 MSTORE PUSH1 0x20 ADD DUP3 PUSH4 0xFFFFFFFF AND DUP2 MSTORE PUSH1 0x20 ADD PUSH1 0x0 PUSH4 0xFFFFFFFF AND DUP2 MSTORE POP PUSH1 0x1 PUSH1 0x0 DUP1 SLOAD DUP2 MSTORE PUSH1 0x20 ADD SWAP1 DUP2 MSTORE PUSH1 0x20 ADD PUSH1 0x0 KECCAK256 PUSH1 0x0 DUP3 ADD MLOAD DUP2 PUSH1 0x0 ADD SSTORE PUSH1 0x20 DUP3 ADD MLOAD DUP2 PUSH1 0x1 ADD PUSH1 0x0 PUSH2 0x100 EXP DUP2 SLOAD DUP2 PUSH20 0xFFFFFFFFFFFFFFFFFFFFFFFFFFFFFFFFFFFFFFFF MUL NOT AND SWAP1 DUP4 PUSH20 0xFFFFFFFFFFFFFFFFFFFFFFFFFFFFFFFFFFFFFFFF AND MUL OR SWAP1 SSTORE POP PUSH1 0x40 DUP3 ADD MLOAD DUP2 PUSH1 0x2 ADD PUSH1 0x0 PUSH2 0x100 EXP DUP2 SLOAD DUP2 PUSH20 0xFFFFFFFFFFFFFFFFFFFFFFFFFFFFFFFFFFFFFFFF MUL NOT AND SWAP1 DUP4 PUSH20 0xFFFFFFFFFFFFFFFFFFFFFFFFFFFFFFFFFFFFFFFF AND MUL OR SWAP1 SSTORE POP PUSH1 0x60 DUP3 ADD MLOAD DUP2 PUSH1 0x2 ADD PUSH1 0x14 PUSH2 0x100 EXP DUP2 SLOAD DUP2 PUSH4 0xFFFFFFFF MUL NOT AND SWAP1 DUP4 PUSH4 0xFFFFFFFF AND MUL OR SWAP1 SSTORE POP PUSH1 0x80 DUP3 ADD MLOAD DUP2 PUSH1 0x2 ADD PUSH1 0x18 PUSH2 0x100 EXP DUP2 SLOAD DUP2 PUSH4 0xFFFFFFFF MUL NOT AND SWAP1 DUP4 PUSH4 0xFFFFFFFF AND MUL OR SWAP1 SSTORE POP SWAP1 POP POP PUSH1 0x2 PUSH1 0x0 DUP4 PUSH20 0xFFFFFFFFFFFFFFFFFFFFFFFFFFFFFFFFFFFFFFFF AND PUSH20 0xFFFFFFFFFFFFFFFFFFFFFFFFFFFFFFFFFFFFFFFF AND DUP2 MSTORE PUSH1 0x20 ADD SWAP1 DUP2 MSTORE PUSH1 0x20 ADD PUSH1 0x0 KECCAK256 PUSH1 0x0 SLOAD SWAP1 DUP1 PUSH1 0x1 DUP2 SLOAD ADD DUP1 DUP3 SSTORE DUP1 SWAP2 POP POP PUSH1 0x1 SWAP1 SUB SWAP1 PUSH1 0x0 MSTORE PUSH1 0x20 PUSH1 0x0 KECCAK256 ADD PUSH1 0x0 SWAP1 SWAP2 SWAP1 SWAP2 SWAP1 SWAP2 POP SSTORE DUP4 PUSH1 0x0 SLOAD PUSH32 0x6ABC5964A9F8C02BEE56A206F75C7526EA67F5ABD5CBBE939C60D4A489607E49 DUP6 DUP6 DUP6 PUSH1 0x40 MLOAD PUSH2 0x39E SWAP4 SWAP3 SWAP2 SWAP1 PUSH2 0xD58 JUMP JUMPDEST PUSH1 0x40 MLOAD DUP1 SWAP2 SUB SWAP1 LOG3 PUSH1 0x0 DUP1 DUP2 SLOAD DUP1 SWAP3 SWAP2 SWAP1 PUSH2 0x3B8 SWAP1 PUSH2 0xDBE JUMP JUMPDEST SWAP2 SWAP1 POP SSTORE POP POP POP POP POP JUMP JUMPDEST PUSH1 0x2 PUSH1 0x20 MSTORE DUP2 PUSH1 0x0 MSTORE PUSH1 0x40 PUSH1 0x0 KECCAK256 DUP2 DUP2 SLOAD DUP2 LT PUSH2 0x3DF JUMPI PUSH1 0x0 DUP1 REVERT JUMPDEST SWAP1 PUSH1 0x0 MSTORE PUSH1 0x20 PUSH1 0x0 KECCAK256 ADD PUSH1 0x0 SWAP2 POP SWAP2 POP POP SLOAD DUP2 JUMP JUMPDEST TIMESTAMP PUSH1 0x1 PUSH1 0x0 DUP4 DUP2 MSTORE PUSH1 0x20 ADD SWAP1 DUP2 MSTORE PUSH1 0x20 ADD PUSH1 0x0 KECCAK256 PUSH1 0x2 ADD PUSH1 0x18 PUSH2 0x100 EXP DUP2 SLOAD DUP2 PUSH4 0xFFFFFFFF MUL NOT AND SWAP1 DUP4 PUSH4 0xFFFFFFFF AND MUL OR SWAP1 SSTORE POP PUSH32 0x64E64E323422DCFED18A892F84596CCF7CC94B1952625F3CC82E6461B529FFF1 TIMESTAMP PUSH1 0x40 MLOAD PUSH2 0x458 SWAP2 SWAP1 PUSH2 0xE06 JUMP JUMPDEST PUSH1 0x40 MLOAD DUP1 SWAP2 SUB SWAP1 LOG1 POP JUMP JUMPDEST PUSH1 0x60 PUSH1 0x0 PUSH1 0x2 PUSH1 0x0 DUP5 PUSH20 0xFFFFFFFFFFFFFFFFFFFFFFFFFFFFFFFFFFFFFFFF AND PUSH20 0xFFFFFFFFFFFFFFFFFFFFFFFFFFFFFFFFFFFFFFFF AND DUP2 MSTORE PUSH1 0x20 ADD SWAP1 DUP2 MSTORE PUSH1 0x20 ADD PUSH1 0x0 KECCAK256 DUP1 SLOAD DUP1 PUSH1 0x20 MUL PUSH1 0x20 ADD PUSH1 0x40 MLOAD SWAP1 DUP2 ADD PUSH1 0x40 MSTORE DUP1 SWAP3 SWAP2 SWAP1 DUP2 DUP2 MSTORE PUSH1 0x20 ADD DUP3 DUP1 SLOAD DUP1 ISZERO PUSH2 0x4F0 JUMPI PUSH1 0x20 MUL DUP3 ADD SWAP2 SWAP1 PUSH1 0x0 MSTORE PUSH1 0x20 PUSH1 0x0 KECCAK256 SWAP1 JUMPDEST DUP2 SLOAD DUP2 MSTORE PUSH1 0x20 ADD SWAP1 PUSH1 0x1 ADD SWAP1 DUP1 DUP4 GT PUSH2 0x4DC JUMPI JUMPDEST POP POP POP POP POP SWAP1 POP PUSH1 0x0 DUP2 MLOAD PUSH8 0xFFFFFFFFFFFFFFFF DUP2 GT ISZERO PUSH2 0x514 JUMPI PUSH2 0x513 PUSH2 0xE21 JUMP JUMPDEST JUMPDEST PUSH1 0x40 MLOAD SWAP1 DUP1 DUP3 MSTORE DUP1 PUSH1 0x20 MUL PUSH1 0x20 ADD DUP3 ADD PUSH1 0x40 MSTORE DUP1 ISZERO PUSH2 0x54D JUMPI DUP2 PUSH1 0x20 ADD JUMPDEST PUSH2 0x53A PUSH2 0x897 JUMP JUMPDEST DUP2 MSTORE PUSH1 0x20 ADD SWAP1 PUSH1 0x1 SWAP1 SUB SWAP1 DUP2 PUSH2 0x532 JUMPI SWAP1 POP JUMPDEST POP SWAP1 POP PUSH1 0x0 JUMPDEST DUP3 MLOAD DUP2 LT ISZERO PUSH2 0x6C7 JUMPI PUSH1 0x1 PUSH1 0x0 DUP5 DUP4 DUP2 MLOAD DUP2 LT PUSH2 0x573 JUMPI PUSH2 0x572 PUSH2 0xE50 JUMP JUMPDEST JUMPDEST PUSH1 0x20 MUL PUSH1 0x20 ADD ADD MLOAD DUP2 MSTORE PUSH1 0x20 ADD SWAP1 DUP2 MSTORE PUSH1 0x20 ADD PUSH1 0x0 KECCAK256 PUSH1 0x40 MLOAD DUP1 PUSH1 0xA0 ADD PUSH1 0x40 MSTORE SWAP1 DUP2 PUSH1 0x0 DUP3 ADD SLOAD DUP2 MSTORE PUSH1 0x20 ADD PUSH1 0x1 DUP3 ADD PUSH1 0x0 SWAP1 SLOAD SWAP1 PUSH2 0x100 EXP SWAP1 DIV PUSH20 0xFFFFFFFFFFFFFFFFFFFFFFFFFFFFFFFFFFFFFFFF AND PUSH20 0xFFFFFFFFFFFFFFFFFFFFFFFFFFFFFFFFFFFFFFFF AND PUSH20 0xFFFFFFFFFFFFFFFFFFFFFFFFFFFFFFFFFFFFFFFF AND DUP2 MSTORE PUSH1 0x20 ADD PUSH1 0x2 DUP3 ADD PUSH1 0x0 SWAP1 SLOAD SWAP1 PUSH2 0x100 EXP SWAP1 DIV PUSH20 0xFFFFFFFFFFFFFFFFFFFFFFFFFFFFFFFFFFFFFFFF AND PUSH20 0xFFFFFFFFFFFFFFFFFFFFFFFFFFFFFFFFFFFFFFFF AND PUSH20 0xFFFFFFFFFFFFFFFFFFFFFFFFFFFFFFFFFFFFFFFF AND DUP2 MSTORE PUSH1 0x20 ADD PUSH1 0x2 DUP3 ADD PUSH1 0x14 SWAP1 SLOAD SWAP1 PUSH2 0x100 EXP SWAP1 DIV PUSH4 0xFFFFFFFF AND PUSH4 0xFFFFFFFF AND PUSH4 0xFFFFFFFF AND DUP2 MSTORE PUSH1 0x20 ADD PUSH1 0x2 DUP3 ADD PUSH1 0x18 SWAP1 SLOAD SWAP1 PUSH2 0x100 EXP SWAP1 DIV PUSH4 0xFFFFFFFF AND PUSH4 0xFFFFFFFF AND PUSH4 0xFFFFFFFF AND DUP2 MSTORE POP POP DUP3 DUP3 DUP2 MLOAD DUP2 LT PUSH2 0x6A9 JUMPI PUSH2 0x6A8 PUSH2 0xE50 JUMP JUMPDEST JUMPDEST PUSH1 0x20 MUL PUSH1 0x20 ADD ADD DUP2 SWAP1 MSTORE POP DUP1 DUP1 PUSH2 0x6BF SWAP1 PUSH2 0xDBE JUMP JUMPDEST SWAP2 POP POP PUSH2 0x553 JUMP JUMPDEST POP DUP1 SWAP3 POP POP POP SWAP2 SWAP1 POP JUMP JUMPDEST PUSH2 0x6DA PUSH2 0x897 JUMP JUMPDEST PUSH1 0x1 PUSH1 0x0 DUP4 DUP2 MSTORE PUSH1 0x20 ADD SWAP1 DUP2 MSTORE PUSH1 0x20 ADD PUSH1 0x0 KECCAK256 PUSH1 0x40 MLOAD DUP1 PUSH1 0xA0 ADD PUSH1 0x40 MSTORE SWAP1 DUP2 PUSH1 0x0 DUP3 ADD SLOAD DUP2 MSTORE PUSH1 0x20 ADD PUSH1 0x1 DUP3 ADD PUSH1 0x0 SWAP1 SLOAD SWAP1 PUSH2 0x100 EXP SWAP1 DIV PUSH20 0xFFFFFFFFFFFFFFFFFFFFFFFFFFFFFFFFFFFFFFFF AND PUSH20 0xFFFFFFFFFFFFFFFFFFFFFFFFFFFFFFFFFFFFFFFF AND PUSH20 0xFFFFFFFFFFFFFFFFFFFFFFFFFFFFFFFFFFFFFFFF AND DUP2 MSTORE PUSH1 0x20 ADD PUSH1 0x2 DUP3 ADD PUSH1 0x0 SWAP1 SLOAD SWAP1 PUSH2 0x100 EXP SWAP1 DIV PUSH20 0xFFFFFFFFFFFFFFFFFFFFFFFFFFFFFFFFFFFFFFFF AND PUSH20 0xFFFFFFFFFFFFFFFFFFFFFFFFFFFFFFFFFFFFFFFF AND PUSH20 0xFFFFFFFFFFFFFFFFFFFFFFFFFFFFFFFFFFFFFFFF AND DUP2 MSTORE PUSH1 0x20 ADD PUSH1 0x2 DUP3 ADD PUSH1 0x14 SWAP1 SLOAD SWAP1 PUSH2 0x100 EXP SWAP1 DIV PUSH4 0xFFFFFFFF AND PUSH4 0xFFFFFFFF AND PUSH4 0xFFFFFFFF AND DUP2 MSTORE PUSH1 0x20 ADD PUSH1 0x2 DUP3 ADD PUSH1 0x18 SWAP1 SLOAD SWAP1 PUSH2 0x100 EXP SWAP1 DIV PUSH4 0xFFFFFFFF AND PUSH4 0xFFFFFFFF AND PUSH4 0xFFFFFFFF AND DUP2 MSTORE POP POP SWAP1 POP SWAP2 SWAP1 POP JUMP JUMPDEST PUSH1 0x1 PUSH1 0x20 MSTORE DUP1 PUSH1 0x0 MSTORE PUSH1 0x40 PUSH1 0x0 KECCAK256 PUSH1 0x0 SWAP2 POP SWAP1 POP DUP1 PUSH1 0x0 ADD SLOAD SWAP1 DUP1 PUSH1 0x1 ADD PUSH1 0x0 SWAP1 SLOAD SWAP1 PUSH2 0x100 EXP SWAP1 DIV PUSH20 0xFFFFFFFFFFFFFFFFFFFFFFFFFFFFFFFFFFFFFFFF AND SWAP1 DUP1 PUSH1 0x2 ADD PUSH1 0x0 SWAP1 SLOAD SWAP1 PUSH2 0x100 EXP SWAP1 DIV PUSH20 0xFFFFFFFFFFFFFFFFFFFFFFFFFFFFFFFFFFFFFFFF AND SWAP1 DUP1 PUSH1 0x2 ADD PUSH1 0x14 SWAP1 SLOAD SWAP1 PUSH2 0x100 EXP SWAP1 DIV PUSH4 0xFFFFFFFF AND SWAP1 DUP1 PUSH1 0x2 ADD PUSH1 0x18 SWAP1 SLOAD SWAP1 PUSH2 0x100 EXP SWAP1 DIV PUSH4 0xFFFFFFFF AND SWAP1 POP DUP6 JUMP JUMPDEST PUSH1 0x40 MLOAD DUP1 PUSH1 0xA0 ADD PUSH1 0x40 MSTORE DUP1 PUSH1 0x0 DUP2 MSTORE PUSH1 0x20 ADD PUSH1 0x0 PUSH20 0xFFFFFFFFFFFFFFFFFFFFFFFFFFFFFFFFFFFFFFFF AND DUP2 MSTORE PUSH1 0x20 ADD PUSH1 0x0 PUSH20 0xFFFFFFFFFFFFFFFFFFFFFFFFFFFFFFFFFFFFFFFF AND DUP2 MSTORE PUSH1 0x20 ADD PUSH1 0x0 PUSH4 0xFFFFFFFF AND DUP2 MSTORE PUSH1 0x20 ADD PUSH1 0x0 PUSH4 0xFFFFFFFF AND DUP2 MSTORE POP SWAP1 JUMP JUMPDEST PUSH1 0x0 DUP2 SWAP1 POP SWAP2 SWAP1 POP JUMP JUMPDEST PUSH2 0x911 DUP2 PUSH2 0x8FE JUMP JUMPDEST DUP3 MSTORE POP POP JUMP JUMPDEST PUSH1 0x0 PUSH1 0x20 DUP3 ADD SWAP1 POP PUSH2 0x92C PUSH1 0x0 DUP4 ADD DUP5 PUSH2 0x908 JUMP JUMPDEST SWAP3 SWAP2 POP POP JUMP JUMPDEST PUSH1 0x0 DUP1 REVERT JUMPDEST PUSH2 0x940 DUP2 PUSH2 0x8FE JUMP JUMPDEST DUP2 EQ PUSH2 0x94B JUMPI PUSH1 0x0 DUP1 REVERT JUMPDEST POP JUMP JUMPDEST PUSH1 0x0 DUP2 CALLDATALOAD SWAP1 POP PUSH2 0x95D DUP2 PUSH2 0x937 JUMP JUMPDEST SWAP3 SWAP2 POP POP JUMP JUMPDEST PUSH1 0x0 PUSH20 0xFFFFFFFFFFFFFFFFFFFFFFFFFFFFFFFFFFFFFFFF DUP3 AND SWAP1 POP SWAP2 SWAP1 POP JUMP JUMPDEST PUSH1 0x0 PUSH2 0x98E DUP3 PUSH2 0x963 JUMP JUMPDEST SWAP1 POP SWAP2 SWAP1 POP JUMP JUMPDEST PUSH2 0x99E DUP2 PUSH2 0x983 JUMP JUMPDEST DUP2 EQ PUSH2 0x9A9 JUMPI PUSH1 0x0 DUP1 REVERT JUMPDEST POP JUMP JUMPDEST PUSH1 0x0 DUP2 CALLDATALOAD SWAP1 POP PUSH2 0x9BB DUP2 PUSH2 0x995 JUMP JUMPDEST SWAP3 SWAP2 POP POP JUMP JUMPDEST PUSH1 0x0 PUSH4 0xFFFFFFFF DUP3 AND SWAP1 POP SWAP2 SWAP1 POP JUMP JUMPDEST PUSH2 0x9DA DUP2 PUSH2 0x9C1 JUMP JUMPDEST DUP2 EQ PUSH2 0x9E5 JUMPI PUSH1 0x0 DUP1 REVERT JUMPDEST POP JUMP JUMPDEST PUSH1 0x0 DUP2 CALLDATALOAD SWAP1 POP PUSH2 0x9F7 DUP2 PUSH2 0x9D1 JUMP JUMPDEST SWAP3 SWAP2 POP POP JUMP JUMPDEST PUSH1 0x0 DUP1 PUSH1 0x0 DUP1 PUSH1 0x80 DUP6 DUP8 SUB SLT ISZERO PUSH2 0xA17 JUMPI PUSH2 0xA16 PUSH2 0x932 JUMP JUMPDEST JUMPDEST PUSH1 0x0 PUSH2 0xA25 DUP8 DUP3 DUP9 ADD PUSH2 0x94E JUMP JUMPDEST SWAP5 POP POP PUSH1 0x20 PUSH2 0xA36 DUP8 DUP3 DUP9 ADD PUSH2 0x9AC JUMP JUMPDEST SWAP4 POP POP PUSH1 0x40 PUSH2 0xA47 DUP8 DUP3 DUP9 ADD PUSH2 0x9AC JUMP JUMPDEST SWAP3 POP POP PUSH1 0x60 PUSH2 0xA58 DUP8 DUP3 DUP9 ADD PUSH2 0x9E8 JUMP JUMPDEST SWAP2 POP POP SWAP3 SWAP6 SWAP2 SWAP5 POP SWAP3 POP JUMP JUMPDEST PUSH1 0x0 DUP1 PUSH1 0x40 DUP4 DUP6 SUB SLT ISZERO PUSH2 0xA7B JUMPI PUSH2 0xA7A PUSH2 0x932 JUMP JUMPDEST JUMPDEST PUSH1 0x0 PUSH2 0xA89 DUP6 DUP3 DUP7 ADD PUSH2 0x9AC JUMP JUMPDEST SWAP3 POP POP PUSH1 0x20 PUSH2 0xA9A DUP6 DUP3 DUP7 ADD PUSH2 0x94E JUMP JUMPDEST SWAP2 POP POP SWAP3 POP SWAP3 SWAP1 POP JUMP JUMPDEST PUSH1 0x0 PUSH1 0x20 DUP3 DUP5 SUB SLT ISZERO PUSH2 0xABA JUMPI PUSH2 0xAB9 PUSH2 0x932 JUMP JUMPDEST JUMPDEST PUSH1 0x0 PUSH2 0xAC8 DUP5 DUP3 DUP6 ADD PUSH2 0x94E JUMP JUMPDEST SWAP2 POP POP SWAP3 SWAP2 POP POP JUMP JUMPDEST PUSH1 0x0 PUSH1 0x20 DUP3 DUP5 SUB SLT ISZERO PUSH2 0xAE7 JUMPI PUSH2 0xAE6 PUSH2 0x932 JUMP JUMPDEST JUMPDEST PUSH1 0x0 PUSH2 0xAF5 DUP5 DUP3 DUP6 ADD PUSH2 0x9AC JUMP JUMPDEST SWAP2 POP POP SWAP3 SWAP2 POP POP JUMP JUMPDEST PUSH1 0x0 DUP2 MLOAD SWAP1 POP SWAP2 SWAP1 POP JUMP JUMPDEST PUSH1 0x0 DUP3 DUP3 MSTORE PUSH1 0x20 DUP3 ADD SWAP1 POP SWAP3 SWAP2 POP POP JUMP JUMPDEST PUSH1 0x0 DUP2 SWAP1 POP PUSH1 0x20 DUP3 ADD SWAP1 POP SWAP2 SWAP1 POP JUMP JUMPDEST PUSH2 0xB33 DUP2 PUSH2 0x8FE JUMP JUMPDEST DUP3 MSTORE POP POP JUMP JUMPDEST PUSH2 0xB42 DUP2 PUSH2 0x983 JUMP JUMPDEST DUP3 MSTORE POP POP JUMP JUMPDEST PUSH2 0xB51 DUP2 PUSH2 0x9C1 JUMP JUMPDEST DUP3 MSTORE POP POP JUMP JUMPDEST PUSH1 0xA0 DUP3 ADD PUSH1 0x0 DUP3 ADD MLOAD PUSH2 0xB6D PUSH1 0x0 DUP6 ADD DUP3 PUSH2 0xB2A JUMP JUMPDEST POP PUSH1 0x20 DUP3 ADD MLOAD PUSH2 0xB80 PUSH1 0x20 DUP6 ADD DUP3 PUSH2 0xB39 JUMP JUMPDEST POP PUSH1 0x40 DUP3 ADD MLOAD PUSH2 0xB93 PUSH1 0x40 DUP6 ADD DUP3 PUSH2 0xB39 JUMP JUMPDEST POP PUSH1 0x60 DUP3 ADD MLOAD PUSH2 0xBA6 PUSH1 0x60 DUP6 ADD DUP3 PUSH2 0xB48 JUMP JUMPDEST POP PUSH1 0x80 DUP3 ADD MLOAD PUSH2 0xBB9 PUSH1 0x80 DUP6 ADD DUP3 PUSH2 0xB48 JUMP JUMPDEST POP POP POP POP JUMP JUMPDEST PUSH1 0x0 PUSH2 0xBCB DUP4 DUP4 PUSH2 0xB57 JUMP JUMPDEST PUSH1 0xA0 DUP4 ADD SWAP1 POP SWAP3 SWAP2 POP POP JUMP JUMPDEST PUSH1 0x0 PUSH1 0x20 DUP3 ADD SWAP1 POP SWAP2 SWAP1 POP JUMP JUMPDEST PUSH1 0x0 PUSH2 0xBEF DUP3 PUSH2 0xAFE JUMP JUMPDEST PUSH2 0xBF9 DUP2 DUP6 PUSH2 0xB09 JUMP JUMPDEST SWAP4 POP PUSH2 0xC04 DUP4 PUSH2 0xB1A JUMP JUMPDEST DUP1 PUSH1 0x0 JUMPDEST DUP4 DUP2 LT ISZERO PUSH2 0xC35 JUMPI DUP2 MLOAD PUSH2 0xC1C DUP9 DUP3 PUSH2 0xBBF JUMP JUMPDEST SWAP8 POP PUSH2 0xC27 DUP4 PUSH2 0xBD7 JUMP JUMPDEST SWAP3 POP POP PUSH1 0x1 DUP2 ADD SWAP1 POP PUSH2 0xC08 JUMP JUMPDEST POP DUP6 SWAP4 POP POP POP POP SWAP3 SWAP2 POP POP JUMP JUMPDEST PUSH1 0x0 PUSH1 0x20 DUP3 ADD SWAP1 POP DUP2 DUP2 SUB PUSH1 0x0 DUP4 ADD MSTORE PUSH2 0xC5C DUP2 DUP5 PUSH2 0xBE4 JUMP JUMPDEST SWAP1 POP SWAP3 SWAP2 POP POP JUMP JUMPDEST PUSH1 0xA0 DUP3 ADD PUSH1 0x0 DUP3 ADD MLOAD PUSH2 0xC7A PUSH1 0x0 DUP6 ADD DUP3 PUSH2 0xB2A JUMP JUMPDEST POP PUSH1 0x20 DUP3 ADD MLOAD PUSH2 0xC8D PUSH1 0x20 DUP6 ADD DUP3 PUSH2 0xB39 JUMP JUMPDEST POP PUSH1 0x40 DUP3 ADD MLOAD PUSH2 0xCA0 PUSH1 0x40 DUP6 ADD DUP3 PUSH2 0xB39 JUMP JUMPDEST POP PUSH1 0x60 DUP3 ADD MLOAD PUSH2 0xCB3 PUSH1 0x60 DUP6 ADD DUP3 PUSH2 0xB48 JUMP JUMPDEST POP PUSH1 0x80 DUP3 ADD MLOAD PUSH2 0xCC6 PUSH1 0x80 DUP6 ADD DUP3 PUSH2 0xB48 JUMP JUMPDEST POP POP POP POP JUMP JUMPDEST PUSH1 0x0 PUSH1 0xA0 DUP3 ADD SWAP1 POP PUSH2 0xCE1 PUSH1 0x0 DUP4 ADD DUP5 PUSH2 0xC64 JUMP JUMPDEST SWAP3 SWAP2 POP POP JUMP JUMPDEST PUSH2 0xCF0 DUP2 PUSH2 0x983 JUMP JUMPDEST DUP3 MSTORE POP POP JUMP JUMPDEST PUSH2 0xCFF DUP2 PUSH2 0x9C1 JUMP JUMPDEST DUP3 MSTORE POP POP JUMP JUMPDEST PUSH1 0x0 PUSH1 0xA0 DUP3 ADD SWAP1 POP PUSH2 0xD1A PUSH1 0x0 DUP4 ADD DUP9 PUSH2 0x908 JUMP JUMPDEST PUSH2 0xD27 PUSH1 0x20 DUP4 ADD DUP8 PUSH2 0xCE7 JUMP JUMPDEST PUSH2 0xD34 PUSH1 0x40 DUP4 ADD DUP7 PUSH2 0xCE7 JUMP JUMPDEST PUSH2 0xD41 PUSH1 0x60 DUP4 ADD DUP6 PUSH2 0xCF6 JUMP JUMPDEST PUSH2 0xD4E PUSH1 0x80 DUP4 ADD DUP5 PUSH2 0xCF6 JUMP JUMPDEST SWAP7 SWAP6 POP POP POP POP POP POP JUMP JUMPDEST PUSH1 0x0 PUSH1 0x60 DUP3 ADD SWAP1 POP PUSH2 0xD6D PUSH1 0x0 DUP4 ADD DUP7 PUSH2 0xCE7 JUMP JUMPDEST PUSH2 0xD7A PUSH1 0x20 DUP4 ADD DUP6 PUSH2 0xCE7 JUMP JUMPDEST PUSH2 0xD87 PUSH1 0x40 DUP4 ADD DUP5 PUSH2 0xCF6 JUMP JUMPDEST SWAP5 SWAP4 POP POP POP POP JUMP JUMPDEST PUSH32 0x4E487B7100000000000000000000000000000000000000000000000000000000 PUSH1 0x0 MSTORE PUSH1 0x11 PUSH1 0x4 MSTORE PUSH1 0x24 PUSH1 0x0 REVERT JUMPDEST PUSH1 0x0 PUSH2 0xDC9 DUP3 PUSH2 0x8FE JUMP JUMPDEST SWAP2 POP PUSH32 0xFFFFFFFFFFFFFFFFFFFFFFFFFFFFFFFFFFFFFFFFFFFFFFFFFFFFFFFFFFFFFFFF DUP3 SUB PUSH2 0xDFB JUMPI PUSH2 0xDFA PUSH2 0xD8F JUMP JUMPDEST JUMPDEST PUSH1 0x1 DUP3 ADD SWAP1 POP SWAP2 SWAP1 POP JUMP JUMPDEST PUSH1 0x0 PUSH1 0x20 DUP3 ADD SWAP1 POP PUSH2 0xE1B PUSH1 0x0 DUP4 ADD DUP5 PUSH2 0xCF6 JUMP JUMPDEST SWAP3 SWAP2 POP POP JUMP JUMPDEST PUSH32 0x4E487B7100000000000000000000000000000000000000000000000000000000 PUSH1 0x0 MSTORE PUSH1 0x41 PUSH1 0x4 MSTORE PUSH1 0x24 PUSH1 0x0 REVERT JUMPDEST PUSH32 0x4E487B7100000000000000000000000000000000000000000000000000000000 PUSH1 0x0 MSTORE PUSH1 0x32 PUSH1 0x4 MSTORE PUSH1 0x24 PUSH1 0x0 REVERT INVALID LOG2 PUSH5 0x6970667358 0x22 SLT KECCAK256 0xE8 PUSH15 0xC58BC2D20293404D571A853B753340 0x2A PUSH1 0x60 0xB2 0xD0 0xD3 PUSH28 0xECE55F0631ED7F2264736F6C63430008120033000000000000000000 "},"methodIdentifiers":{"getAllSmIdForManufacturer(address)":"70b775a0","getProduct(uint256)":"b9db15b4","manufacturerTosmIdMapping(address,uint256)":"1001f30f","receiveProduct(uint256)":"29d78328","smId()":"029e2fe4","smIdToStructMapping(uint256)":"ec02181a","transferProduct(uint256,address,address,uint32)":"055498bd"}}}}}