{
  "_format": "hh-sol-artifact-1",
  "contractName": "supplierProduct",
  "sourceName": "contracts/supplierProduct.sol",
  "abi": [
    {
      "anonymous": false,
      "inputs": [
        {
          "indexed": true,
          "internalType": "uint256",
          "name": "_spid",
          "type": "uint256"
        },
        {
          "indexed": true,
          "internalType": "address",
          "name": "_address",
          "type": "address"
        },
        {
          "indexed": false,
          "internalType": "bytes",
          "name": "_name",
          "type": "bytes"
        },
        {
          "indexed": false,
          "internalType": "bytes",
          "name": "_description",
          "type": "bytes"
        },
        {
          "indexed": false,
          "internalType": "uint128",
          "name": "_unit",
          "type": "uint128"
        },
        {
          "indexed": false,
          "internalType": "uint128",
          "name": "_price",
          "type": "uint128"
        },
        {
          "indexed": false,
          "internalType": "uint32",
          "name": "_date",
          "type": "uint32"
        },
        {
          "indexed": false,
          "internalType": "uint32",
          "name": "_expiryDate",
          "type": "uint32"
        },
        {
          "indexed": false,
          "internalType": "uint256",
          "name": "_timeAdded",
          "type": "uint256"
        },
        {
          "indexed": false,
          "internalType": "bool",
          "name": "_status",
          "type": "bool"
        }
      ],
      "name": "eventAddSupplierProduct",
      "type": "event"
    },
    {
      "anonymous": false,
      "inputs": [
        {
          "indexed": true,
          "internalType": "uint256",
          "name": "_id",
          "type": "uint256"
        }
      ],
      "name": "eventDeleteSupplierProduct",
      "type": "event"
    },
    {
      "anonymous": false,
      "inputs": [
        {
          "indexed": true,
          "internalType": "uint256",
          "name": "_spId",
          "type": "uint256"
        },
        {
          "indexed": false,
          "internalType": "uint128",
          "name": "_quantity",
          "type": "uint128"
        }
      ],
      "name": "eventUpdateSupplierProductUints",
      "type": "event"
    },
    {
      "inputs": [
        {
          "internalType": "bytes",
          "name": "_name",
          "type": "bytes"
        },
        {
          "internalType": "bytes",
          "name": "_description",
          "type": "bytes"
        },
        {
          "internalType": "uint128",
          "name": "_unit",
          "type": "uint128"
        },
        {
          "internalType": "uint128",
          "name": "_price",
          "type": "uint128"
        },
        {
          "internalType": "uint32",
          "name": "_date",
          "type": "uint32"
        },
        {
          "internalType": "uint32",
          "name": "_expiryDate",
          "type": "uint32"
        }
      ],
      "name": "addSupplierProduct",
      "outputs": [],
      "stateMutability": "nonpayable",
      "type": "function"
    },
    {
      "inputs": [
        {
          "internalType": "uint256",
          "name": "_id",
          "type": "uint256"
        }
      ],
      "name": "deleteSupplierProduct",
      "outputs": [],
      "stateMutability": "nonpayable",
      "type": "function"
    },
    {
      "inputs": [
        {
          "internalType": "address",
          "name": "_supplierAddress",
          "type": "address"
        }
      ],
      "name": "getAllProductsOfSupplier",
      "outputs": [
        {
          "components": [
            {
              "internalType": "address",
              "name": "supplierAddress",
              "type": "address"
            },
            {
              "internalType": "bytes",
              "name": "sp_name",
              "type": "bytes"
            },
            {
              "internalType": "bytes",
              "name": "sp_description",
              "type": "bytes"
            },
            {
              "internalType": "uint128",
              "name": "sp_unit",
              "type": "uint128"
            },
            {
              "internalType": "uint128",
              "name": "sp_price",
              "type": "uint128"
            },
            {
              "internalType": "uint32",
              "name": "sp_date",
              "type": "uint32"
            },
            {
              "internalType": "uint32",
              "name": "sp_expiryDate",
              "type": "uint32"
            },
            {
              "internalType": "bool",
              "name": "status",
              "type": "bool"
            }
          ],
          "internalType": "struct ISupplierProduct.supplierProduct[]",
          "name": "",
          "type": "tuple[]"
        }
      ],
      "stateMutability": "view",
      "type": "function"
    },
    {
      "inputs": [
        {
          "internalType": "uint256",
          "name": "_id",
          "type": "uint256"
        }
      ],
      "name": "getSingleProduct",
      "outputs": [
        {
          "components": [
            {
              "internalType": "address",
              "name": "supplierAddress",
              "type": "address"
            },
            {
              "internalType": "bytes",
              "name": "sp_name",
              "type": "bytes"
            },
            {
              "internalType": "bytes",
              "name": "sp_description",
              "type": "bytes"
            },
            {
              "internalType": "uint128",
              "name": "sp_unit",
              "type": "uint128"
            },
            {
              "internalType": "uint128",
              "name": "sp_price",
              "type": "uint128"
            },
            {
              "internalType": "uint32",
              "name": "sp_date",
              "type": "uint32"
            },
            {
              "internalType": "uint32",
              "name": "sp_expiryDate",
              "type": "uint32"
            },
            {
              "internalType": "bool",
              "name": "status",
              "type": "bool"
            }
          ],
          "internalType": "struct ISupplierProduct.supplierProduct",
          "name": "",
          "type": "tuple"
        }
      ],
      "stateMutability": "view",
      "type": "function"
    },
    {
      "inputs": [],
      "name": "getSupplierProductIds",
      "outputs": [
        {
          "internalType": "uint256[]",
          "name": "",
          "type": "uint256[]"
        }
      ],
      "stateMutability": "view",
      "type": "function"
    },
    {
      "inputs": [
        {
          "internalType": "address",
          "name": "",
          "type": "address"
        },
        {
          "internalType": "uint256",
          "name": "",
          "type": "uint256"
        }
      ],
      "name": "supplierAddressToproductsIdMapping",
      "outputs": [
        {
          "internalType": "uint256",
          "name": "",
          "type": "uint256"
        }
      ],
      "stateMutability": "view",
      "type": "function"
    },
    {
      "inputs": [
        {
          "internalType": "uint256",
          "name": "",
          "type": "uint256"
        }
      ],
      "name": "supplierProductsIdToStructMapping",
      "outputs": [
        {
          "internalType": "address",
          "name": "supplierAddress",
          "type": "address"
        },
        {
          "internalType": "bytes",
          "name": "sp_name",
          "type": "bytes"
        },
        {
          "internalType": "bytes",
          "name": "sp_description",
          "type": "bytes"
        },
        {
          "internalType": "uint128",
          "name": "sp_unit",
          "type": "uint128"
        },
        {
          "internalType": "uint128",
          "name": "sp_price",
          "type": "uint128"
        },
        {
          "internalType": "uint32",
          "name": "sp_date",
          "type": "uint32"
        },
        {
          "internalType": "uint32",
          "name": "sp_expiryDate",
          "type": "uint32"
        },
        {
          "internalType": "bool",
          "name": "status",
          "type": "bool"
        }
      ],
      "stateMutability": "view",
      "type": "function"
    },
    {
      "inputs": [
        {
          "internalType": "uint256",
          "name": "_spId",
          "type": "uint256"
        },
        {
          "internalType": "uint128",
          "name": "_quantity",
          "type": "uint128"
        }
      ],
      "name": "updateSupplierProductUints",
      "outputs": [],
      "stateMutability": "nonpayable",
      "type": "function"
    }
  ],
  "bytecode": "0x6080604052600160005534801561001557600080fd5b50611dda806100256000396000f3fe608060405234801561001057600080fd5b50600436106100885760003560e01c806383f958531161005b57806383f9585314610140578063e10f28c714610170578063ee7e7c991461018e578063f8bafa70146101aa57610088565b80632e1f97631461008d57806342af31d7146100bd5780636c87b826146100ed57806379ae025714610124575b600080fd5b6100a760048036038101906100a2919061106e565b6101c6565b6040516100b49190611288565b60405180910390f35b6100d760048036038101906100d291906112d6565b610469565b6040516100e49190611325565b60405180910390f35b6101076004803603810190610102919061106e565b61049a565b60405161011b9897969594939291906113c6565b60405180910390f35b61013e6004803603810190610139919061106e565b610677565b005b61015a60048036038101906101559190611452565b6106d6565b60405161016791906115f8565b60405180910390f35b610178610ab9565b60405161018591906116d8565b60405180910390f35b6101a860048036038101906101a391906117b7565b610b4e565b005b6101c460048036038101906101bf9190611886565b610ebc565b005b6101ce610fa1565b60016000838152602001908152602001600020604051806101000160405290816000820160009054906101000a900473ffffffffffffffffffffffffffffffffffffffff1673ffffffffffffffffffffffffffffffffffffffff1673ffffffffffffffffffffffffffffffffffffffff168152602001600182018054610253906118f5565b80601f016020809104026020016040519081016040528092919081815260200182805461027f906118f5565b80156102cc5780601f106102a1576101008083540402835291602001916102cc565b820191906000526020600020905b8154815290600101906020018083116102af57829003601f168201915b505050505081526020016002820180546102e5906118f5565b80601f0160208091040260200160405190810160405280929190818152602001828054610311906118f5565b801561035e5780601f106103335761010080835404028352916020019161035e565b820191906000526020600020905b81548152906001019060200180831161034157829003601f168201915b505050505081526020016003820160009054906101000a90046fffffffffffffffffffffffffffffffff166fffffffffffffffffffffffffffffffff166fffffffffffffffffffffffffffffffff1681526020016003820160109054906101000a90046fffffffffffffffffffffffffffffffff166fffffffffffffffffffffffffffffffff166fffffffffffffffffffffffffffffffff1681526020016004820160009054906101000a900463ffffffff1663ffffffff1663ffffffff1681526020016004820160049054906101000a900463ffffffff1663ffffffff1663ffffffff1681526020016004820160089054906101000a900460ff1615151515815250509050919050565b6002602052816000526040600020818154811061048557600080fd5b90600052602060002001600091509150505481565b60016020528060005260406000206000915090508060000160009054906101000a900473ffffffffffffffffffffffffffffffffffffffff16908060010180546104e3906118f5565b80601f016020809104026020016040519081016040528092919081815260200182805461050f906118f5565b801561055c5780601f106105315761010080835404028352916020019161055c565b820191906000526020600020905b81548152906001019060200180831161053f57829003601f168201915b505050505090806002018054610571906118f5565b80601f016020809104026020016040519081016040528092919081815260200182805461059d906118f5565b80156105ea5780601f106105bf576101008083540402835291602001916105ea565b820191906000526020600020905b8154815290600101906020018083116105cd57829003601f168201915b5050505050908060030160009054906101000a90046fffffffffffffffffffffffffffffffff16908060030160109054906101000a90046fffffffffffffffffffffffffffffffff16908060040160009054906101000a900463ffffffff16908060040160049054906101000a900463ffffffff16908060040160089054906101000a900460ff16905088565b60006001600083815260200190815260200160002060040160086101000a81548160ff021916908315150217905550807f6c1a4e746947a5049a6693a4875a10617826c8361c631cac61717e141185fdd260405160405180910390a250565b60606000600260008473ffffffffffffffffffffffffffffffffffffffff1673ffffffffffffffffffffffffffffffffffffffff16815260200190815260200160002080548060200260200160405190810160405280929190818152602001828054801561076357602002820191906000526020600020905b81548152602001906001019080831161074f575b505050505090506000815167ffffffffffffffff81111561078757610786611926565b5b6040519080825280602002602001820160405280156107c057816020015b6107ad610fa1565b8152602001906001900390816107a55790505b50905060005b8251811015610aae57600160008483815181106107e6576107e5611955565b5b60200260200101518152602001908152602001600020604051806101000160405290816000820160009054906101000a900473ffffffffffffffffffffffffffffffffffffffff1673ffffffffffffffffffffffffffffffffffffffff1673ffffffffffffffffffffffffffffffffffffffff16815260200160018201805461086e906118f5565b80601f016020809104026020016040519081016040528092919081815260200182805461089a906118f5565b80156108e75780601f106108bc576101008083540402835291602001916108e7565b820191906000526020600020905b8154815290600101906020018083116108ca57829003601f168201915b50505050508152602001600282018054610900906118f5565b80601f016020809104026020016040519081016040528092919081815260200182805461092c906118f5565b80156109795780601f1061094e57610100808354040283529160200191610979565b820191906000526020600020905b81548152906001019060200180831161095c57829003601f168201915b505050505081526020016003820160009054906101000a90046fffffffffffffffffffffffffffffffff166fffffffffffffffffffffffffffffffff166fffffffffffffffffffffffffffffffff1681526020016003820160109054906101000a90046fffffffffffffffffffffffffffffffff166fffffffffffffffffffffffffffffffff166fffffffffffffffffffffffffffffffff1681526020016004820160009054906101000a900463ffffffff1663ffffffff1663ffffffff1681526020016004820160049054906101000a900463ffffffff1663ffffffff1663ffffffff1681526020016004820160089054906101000a900460ff161515151581525050828281518110610a9057610a8f611955565b5b60200260200101819052508080610aa6906119b3565b9150506107c6565b508092505050919050565b6060600260003373ffffffffffffffffffffffffffffffffffffffff1673ffffffffffffffffffffffffffffffffffffffff168152602001908152602001600020805480602002602001604051908101604052809291908181526020018280548015610b4457602002820191906000526020600020905b815481526020019060010190808311610b30575b5050505050905090565b6040518061010001604052803373ffffffffffffffffffffffffffffffffffffffff16815260200189898080601f016020809104026020016040519081016040528093929190818152602001838380828437600081840152601f19601f82011690508083019250505050505050815260200187878080601f016020809104026020016040519081016040528093929190818152602001838380828437600081840152601f19601f820116905080830192505050505050508152602001856fffffffffffffffffffffffffffffffff168152602001846fffffffffffffffffffffffffffffffff1681526020018363ffffffff1681526020018263ffffffff16815260200160011515815250600160008054815260200190815260200160002060008201518160000160006101000a81548173ffffffffffffffffffffffffffffffffffffffff021916908373ffffffffffffffffffffffffffffffffffffffff1602179055506020820151816001019081610cc99190611ba7565b506040820151816002019081610cdf9190611ba7565b5060608201518160030160006101000a8154816fffffffffffffffffffffffffffffffff02191690836fffffffffffffffffffffffffffffffff16021790555060808201518160030160106101000a8154816fffffffffffffffffffffffffffffffff02191690836fffffffffffffffffffffffffffffffff16021790555060a08201518160040160006101000a81548163ffffffff021916908363ffffffff16021790555060c08201518160040160046101000a81548163ffffffff021916908363ffffffff16021790555060e08201518160040160086101000a81548160ff021916908315150217905550905050600260003373ffffffffffffffffffffffffffffffffffffffff1673ffffffffffffffffffffffffffffffffffffffff16815260200190815260200160002060005490806001815401808255809150506001900390600052602060002001600090919091909150553373ffffffffffffffffffffffffffffffffffffffff166000547f197c17d657459b394d14b1d0c93209d507b39969474ee7d6bab3b83b622bd2688a8a8a8a8a8a8a8a426001604051610e939a99989796959493929190611cb5565b60405180910390a3600080815480929190610ead906119b3565b91905055505050505050505050565b806001600084815260200190815260200160002060030160008282829054906101000a90046fffffffffffffffffffffffffffffffff16610efd9190611d45565b92506101000a8154816fffffffffffffffffffffffffffffffff02191690836fffffffffffffffffffffffffffffffff160217905550817f1f3d301eca9b893fb3ae34f526f7b346cfe3086be67884ce1e652593c91668d66001600085815260200190815260200160002060030160009054906101000a90046fffffffffffffffffffffffffffffffff16604051610f959190611d89565b60405180910390a25050565b604051806101000160405280600073ffffffffffffffffffffffffffffffffffffffff168152602001606081526020016060815260200160006fffffffffffffffffffffffffffffffff16815260200160006fffffffffffffffffffffffffffffffff168152602001600063ffffffff168152602001600063ffffffff1681526020016000151581525090565b600080fd5b600080fd5b6000819050919050565b61104b81611038565b811461105657600080fd5b50565b60008135905061106881611042565b92915050565b6000602082840312156110845761108361102e565b5b600061109284828501611059565b91505092915050565b600073ffffffffffffffffffffffffffffffffffffffff82169050919050565b60006110c68261109b565b9050919050565b6110d6816110bb565b82525050565b600081519050919050565b600082825260208201905092915050565b60005b838110156111165780820151818401526020810190506110fb565b60008484015250505050565b6000601f19601f8301169050919050565b600061113e826110dc565b61114881856110e7565b93506111588185602086016110f8565b61116181611122565b840191505092915050565b60006fffffffffffffffffffffffffffffffff82169050919050565b6111918161116c565b82525050565b600063ffffffff82169050919050565b6111b081611197565b82525050565b60008115159050919050565b6111cb816111b6565b82525050565b6000610100830160008301516111ea60008601826110cd565b50602083015184820360208601526112028282611133565b9150506040830151848203604086015261121c8282611133565b91505060608301516112316060860182611188565b5060808301516112446080860182611188565b5060a083015161125760a08601826111a7565b5060c083015161126a60c08601826111a7565b5060e083015161127d60e08601826111c2565b508091505092915050565b600060208201905081810360008301526112a281846111d1565b905092915050565b6112b3816110bb565b81146112be57600080fd5b50565b6000813590506112d0816112aa565b92915050565b600080604083850312156112ed576112ec61102e565b5b60006112fb858286016112c1565b925050602061130c85828601611059565b9150509250929050565b61131f81611038565b82525050565b600060208201905061133a6000830184611316565b92915050565b611349816110bb565b82525050565b600082825260208201905092915050565b600061136b826110dc565b611375818561134f565b93506113858185602086016110f8565b61138e81611122565b840191505092915050565b6113a28161116c565b82525050565b6113b181611197565b82525050565b6113c0816111b6565b82525050565b6000610100820190506113dc600083018b611340565b81810360208301526113ee818a611360565b905081810360408301526114028189611360565b90506114116060830188611399565b61141e6080830187611399565b61142b60a08301866113a8565b61143860c08301856113a8565b61144560e08301846113b7565b9998505050505050505050565b6000602082840312156114685761146761102e565b5b6000611476848285016112c1565b91505092915050565b600081519050919050565b600082825260208201905092915050565b6000819050602082019050919050565b6000610100830160008301516114c460008601826110cd565b50602083015184820360208601526114dc8282611133565b915050604083015184820360408601526114f68282611133565b915050606083015161150b6060860182611188565b50608083015161151e6080860182611188565b5060a083015161153160a08601826111a7565b5060c083015161154460c08601826111a7565b5060e083015161155760e08601826111c2565b508091505092915050565b600061156e83836114ab565b905092915050565b6000602082019050919050565b600061158e8261147f565b611598818561148a565b9350836020820285016115aa8561149b565b8060005b858110156115e657848403895281516115c78582611562565b94506115d283611576565b925060208a019950506001810190506115ae565b50829750879550505050505092915050565b600060208201905081810360008301526116128184611583565b905092915050565b600081519050919050565b600082825260208201905092915050565b6000819050602082019050919050565b61164f81611038565b82525050565b60006116618383611646565b60208301905092915050565b6000602082019050919050565b60006116858261161a565b61168f8185611625565b935061169a83611636565b8060005b838110156116cb5781516116b28882611655565b97506116bd8361166d565b92505060018101905061169e565b5085935050505092915050565b600060208201905081810360008301526116f2818461167a565b905092915050565b600080fd5b600080fd5b600080fd5b60008083601f84011261171f5761171e6116fa565b5b8235905067ffffffffffffffff81111561173c5761173b6116ff565b5b60208301915083600182028301111561175857611757611704565b5b9250929050565b6117688161116c565b811461177357600080fd5b50565b6000813590506117858161175f565b92915050565b61179481611197565b811461179f57600080fd5b50565b6000813590506117b18161178b565b92915050565b60008060008060008060008060c0898b0312156117d7576117d661102e565b5b600089013567ffffffffffffffff8111156117f5576117f4611033565b5b6118018b828c01611709565b9850985050602089013567ffffffffffffffff81111561182457611823611033565b5b6118308b828c01611709565b965096505060406118438b828c01611776565b94505060606118548b828c01611776565b93505060806118658b828c016117a2565b92505060a06118768b828c016117a2565b9150509295985092959890939650565b6000806040838503121561189d5761189c61102e565b5b60006118ab85828601611059565b92505060206118bc85828601611776565b9150509250929050565b7f4e487b7100000000000000000000000000000000000000000000000000000000600052602260045260246000fd5b6000600282049050600182168061190d57607f821691505b6020821081036119205761191f6118c6565b5b50919050565b7f4e487b7100000000000000000000000000000000000000000000000000000000600052604160045260246000fd5b7f4e487b7100000000000000000000000000000000000000000000000000000000600052603260045260246000fd5b7f4e487b7100000000000000000000000000000000000000000000000000000000600052601160045260246000fd5b60006119be82611038565b91507fffffffffffffffffffffffffffffffffffffffffffffffffffffffffffffffff82036119f0576119ef611984565b5b600182019050919050565b60008190508160005260206000209050919050565b60006020601f8301049050919050565b600082821b905092915050565b600060088302611a5d7fffffffffffffffffffffffffffffffffffffffffffffffffffffffffffffffff82611a20565b611a678683611a20565b95508019841693508086168417925050509392505050565b6000819050919050565b6000611aa4611a9f611a9a84611038565b611a7f565b611038565b9050919050565b6000819050919050565b611abe83611a89565b611ad2611aca82611aab565b848454611a2d565b825550505050565b600090565b611ae7611ada565b611af2818484611ab5565b505050565b5b81811015611b1657611b0b600082611adf565b600181019050611af8565b5050565b601f821115611b5b57611b2c816119fb565b611b3584611a10565b81016020851015611b44578190505b611b58611b5085611a10565b830182611af7565b50505b505050565b600082821c905092915050565b6000611b7e60001984600802611b60565b1980831691505092915050565b6000611b978383611b6d565b9150826002028217905092915050565b611bb0826110dc565b67ffffffffffffffff811115611bc957611bc8611926565b5b611bd382546118f5565b611bde828285611b1a565b600060209050601f831160018114611c115760008415611bff578287015190505b611c098582611b8b565b865550611c71565b601f198416611c1f866119fb565b60005b82811015611c4757848901518255600182019150602085019450602081019050611c22565b86831015611c645784890151611c60601f891682611b6d565b8355505b6001600288020188555050505b505050505050565b82818337600083830152505050565b6000611c94838561134f565b9350611ca1838584611c79565b611caa83611122565b840190509392505050565b6000610100820190508181036000830152611cd1818c8e611c88565b90508181036020830152611ce6818a8c611c88565b9050611cf56040830189611399565b611d026060830188611399565b611d0f60808301876113a8565b611d1c60a08301866113a8565b611d2960c0830185611316565b611d3660e08301846113b7565b9b9a5050505050505050505050565b6000611d508261116c565b9150611d5b8361116c565b925082820390506fffffffffffffffffffffffffffffffff811115611d8357611d82611984565b5b92915050565b6000602082019050611d9e6000830184611399565b9291505056fea264697066735822122019c7f97930a31c11bfe9a0d2e83f206b05811590c019cdd16b69d8a81ebf0d7e64736f6c63430008120033",
  "linkReferences": {},
  "deployedLinkReferences": {}
}