{
  "_format": "hh-sol-artifact-1",
  "contractName": "supplierProduct",
  "sourceName": "contracts/supplierProduct.sol",
  "abi": [
    {
      "anonymous": false,
      "inputs": [
        {
          "indexed": true,
          "internalType": "uint256",
          "name": "_spid",
          "type": "uint256"
        },
        {
          "indexed": true,
          "internalType": "address",
          "name": "_address",
          "type": "address"
        },
        {
          "indexed": false,
          "internalType": "bytes",
          "name": "_name",
          "type": "bytes"
        },
        {
          "indexed": false,
          "internalType": "bytes",
          "name": "_description",
          "type": "bytes"
        },
        {
          "indexed": false,
          "internalType": "uint128",
          "name": "_unit",
          "type": "uint128"
        },
        {
          "indexed": false,
          "internalType": "uint128",
          "name": "_price",
          "type": "uint128"
        },
        {
          "indexed": false,
          "internalType": "uint32",
          "name": "_date",
          "type": "uint32"
        },
        {
          "indexed": false,
          "internalType": "uint32",
          "name": "_expiryDate",
          "type": "uint32"
        },
        {
          "indexed": false,
          "internalType": "uint256",
          "name": "_timeAdded",
          "type": "uint256"
        }
      ],
      "name": "eventAddSupplierProduct",
      "type": "event"
    },
    {
      "anonymous": false,
      "inputs": [
        {
          "indexed": true,
          "internalType": "uint256",
          "name": "_id",
          "type": "uint256"
        }
      ],
      "name": "eventDeleteSupplierProduct",
      "type": "event"
    },
    {
      "anonymous": false,
      "inputs": [
        {
          "indexed": true,
          "internalType": "uint256",
          "name": "_spId",
          "type": "uint256"
        },
        {
          "indexed": false,
          "internalType": "uint128",
          "name": "_quantity",
          "type": "uint128"
        }
      ],
      "name": "eventUpdateSupplierProductUints",
      "type": "event"
    },
    {
      "inputs": [
        {
          "internalType": "bytes",
          "name": "_name",
          "type": "bytes"
        },
        {
          "internalType": "bytes",
          "name": "_description",
          "type": "bytes"
        },
        {
          "internalType": "uint128",
          "name": "_unit",
          "type": "uint128"
        },
        {
          "internalType": "uint128",
          "name": "_price",
          "type": "uint128"
        },
        {
          "internalType": "uint32",
          "name": "_date",
          "type": "uint32"
        },
        {
          "internalType": "uint32",
          "name": "_expiryDate",
          "type": "uint32"
        }
      ],
      "name": "addSupplierProduct",
      "outputs": [],
      "stateMutability": "nonpayable",
      "type": "function"
    },
    {
      "inputs": [
        {
          "internalType": "uint256",
          "name": "_id",
          "type": "uint256"
        }
      ],
      "name": "deleteSupplierProduct",
      "outputs": [],
      "stateMutability": "nonpayable",
      "type": "function"
    },
    {
      "inputs": [
        {
          "internalType": "address",
          "name": "_supplierAddress",
          "type": "address"
        }
      ],
      "name": "getAllProductsOfSupplier",
      "outputs": [
        {
          "components": [
            {
              "internalType": "address",
              "name": "supplierAddress",
              "type": "address"
            },
            {
              "internalType": "bytes",
              "name": "sp_name",
              "type": "bytes"
            },
            {
              "internalType": "bytes",
              "name": "sp_description",
              "type": "bytes"
            },
            {
              "internalType": "uint128",
              "name": "sp_unit",
              "type": "uint128"
            },
            {
              "internalType": "uint128",
              "name": "sp_price",
              "type": "uint128"
            },
            {
              "internalType": "uint32",
              "name": "sp_date",
              "type": "uint32"
            },
            {
              "internalType": "uint32",
              "name": "sp_expiryDate",
              "type": "uint32"
            }
          ],
          "internalType": "struct ISupplierProduct.supplierProduct[]",
          "name": "",
          "type": "tuple[]"
        }
      ],
      "stateMutability": "view",
      "type": "function"
    },
    {
      "inputs": [
        {
          "internalType": "uint256",
          "name": "_id",
          "type": "uint256"
        }
      ],
      "name": "getSingleProduct",
      "outputs": [
        {
          "components": [
            {
              "internalType": "address",
              "name": "supplierAddress",
              "type": "address"
            },
            {
              "internalType": "bytes",
              "name": "sp_name",
              "type": "bytes"
            },
            {
              "internalType": "bytes",
              "name": "sp_description",
              "type": "bytes"
            },
            {
              "internalType": "uint128",
              "name": "sp_unit",
              "type": "uint128"
            },
            {
              "internalType": "uint128",
              "name": "sp_price",
              "type": "uint128"
            },
            {
              "internalType": "uint32",
              "name": "sp_date",
              "type": "uint32"
            },
            {
              "internalType": "uint32",
              "name": "sp_expiryDate",
              "type": "uint32"
            }
          ],
          "internalType": "struct ISupplierProduct.supplierProduct",
          "name": "",
          "type": "tuple"
        }
      ],
      "stateMutability": "view",
      "type": "function"
    },
    {
      "inputs": [],
      "name": "getSupplierProductIds",
      "outputs": [
        {
          "internalType": "uint256[]",
          "name": "",
          "type": "uint256[]"
        }
      ],
      "stateMutability": "view",
      "type": "function"
    },
    {
      "inputs": [
        {
          "internalType": "address",
          "name": "",
          "type": "address"
        },
        {
          "internalType": "uint256",
          "name": "",
          "type": "uint256"
        }
      ],
      "name": "supplierAddressToproductsIdMapping",
      "outputs": [
        {
          "internalType": "uint256",
          "name": "",
          "type": "uint256"
        }
      ],
      "stateMutability": "view",
      "type": "function"
    },
    {
      "inputs": [
        {
          "internalType": "uint256",
          "name": "",
          "type": "uint256"
        }
      ],
      "name": "supplierProductsIdToStructMapping",
      "outputs": [
        {
          "internalType": "address",
          "name": "supplierAddress",
          "type": "address"
        },
        {
          "internalType": "bytes",
          "name": "sp_name",
          "type": "bytes"
        },
        {
          "internalType": "bytes",
          "name": "sp_description",
          "type": "bytes"
        },
        {
          "internalType": "uint128",
          "name": "sp_unit",
          "type": "uint128"
        },
        {
          "internalType": "uint128",
          "name": "sp_price",
          "type": "uint128"
        },
        {
          "internalType": "uint32",
          "name": "sp_date",
          "type": "uint32"
        },
        {
          "internalType": "uint32",
          "name": "sp_expiryDate",
          "type": "uint32"
        }
      ],
      "stateMutability": "view",
      "type": "function"
    },
    {
      "inputs": [
        {
          "internalType": "uint256",
          "name": "_spId",
          "type": "uint256"
        },
        {
          "internalType": "uint128",
          "name": "_quantity",
          "type": "uint128"
        }
      ],
      "name": "updateSupplierProductUints",
      "outputs": [],
      "stateMutability": "nonpayable",
      "type": "function"
    }
  ],
  "bytecode": "0x6080604052600160005534801561001557600080fd5b50611de6806100256000396000f3fe608060405234801561001057600080fd5b50600436106100885760003560e01c806383f958531161005b57806383f958531461013f578063e10f28c71461016f578063ee7e7c991461018d578063f8bafa70146101a957610088565b80632e1f97631461008d57806342af31d7146100bd5780636c87b826146100ed57806379ae025714610123575b600080fd5b6100a760048036038101906100a291906110ea565b6101c5565b6040516100b491906112d5565b60405180910390f35b6100d760048036038101906100d29190611323565b61044c565b6040516100e49190611372565b60405180910390f35b610107600480360381019061010291906110ea565b61047d565b60405161011a9796959493929190611404565b60405180910390f35b61013d600480360381019061013891906110ea565b610647565b005b61015960048036038101906101549190611481565b610748565b6040516101669190611613565b60405180910390f35b610177610b0f565b60405161018491906116f3565b60405180910390f35b6101a760048036038101906101a291906117d2565b610ba4565b005b6101c360048036038101906101be91906118a1565b610ee5565b005b6101cd610fca565b600160008381526020019081526020016000206040518060e00160405290816000820160009054906101000a900473ffffffffffffffffffffffffffffffffffffffff1673ffffffffffffffffffffffffffffffffffffffff1673ffffffffffffffffffffffffffffffffffffffff16815260200160018201805461025190611910565b80601f016020809104026020016040519081016040528092919081815260200182805461027d90611910565b80156102ca5780601f1061029f576101008083540402835291602001916102ca565b820191906000526020600020905b8154815290600101906020018083116102ad57829003601f168201915b505050505081526020016002820180546102e390611910565b80601f016020809104026020016040519081016040528092919081815260200182805461030f90611910565b801561035c5780601f106103315761010080835404028352916020019161035c565b820191906000526020600020905b81548152906001019060200180831161033f57829003601f168201915b505050505081526020016003820160009054906101000a90046fffffffffffffffffffffffffffffffff166fffffffffffffffffffffffffffffffff166fffffffffffffffffffffffffffffffff1681526020016003820160109054906101000a90046fffffffffffffffffffffffffffffffff166fffffffffffffffffffffffffffffffff166fffffffffffffffffffffffffffffffff1681526020016004820160009054906101000a900463ffffffff1663ffffffff1663ffffffff1681526020016004820160049054906101000a900463ffffffff1663ffffffff1663ffffffff16815250509050919050565b6002602052816000526040600020818154811061046857600080fd5b90600052602060002001600091509150505481565b60016020528060005260406000206000915090508060000160009054906101000a900473ffffffffffffffffffffffffffffffffffffffff16908060010180546104c690611910565b80601f01602080910402602001604051908101604052809291908181526020018280546104f290611910565b801561053f5780601f106105145761010080835404028352916020019161053f565b820191906000526020600020905b81548152906001019060200180831161052257829003601f168201915b50505050509080600201805461055490611910565b80601f016020809104026020016040519081016040528092919081815260200182805461058090611910565b80156105cd5780601f106105a2576101008083540402835291602001916105cd565b820191906000526020600020905b8154815290600101906020018083116105b057829003601f168201915b5050505050908060030160009054906101000a90046fffffffffffffffffffffffffffffffff16908060030160109054906101000a90046fffffffffffffffffffffffffffffffff16908060040160009054906101000a900463ffffffff16908060040160049054906101000a900463ffffffff16905087565b60016000828152602001908152602001600020600080820160006101000a81549073ffffffffffffffffffffffffffffffffffffffff0219169055600182016000610692919061104d565b6002820160006106a2919061104d565b6003820160006101000a8154906fffffffffffffffffffffffffffffffff02191690556003820160106101000a8154906fffffffffffffffffffffffffffffffff02191690556004820160006101000a81549063ffffffff02191690556004820160046101000a81549063ffffffff02191690555050807f6c1a4e746947a5049a6693a4875a10617826c8361c631cac61717e141185fdd260405160405180910390a250565b60606000600260008473ffffffffffffffffffffffffffffffffffffffff1673ffffffffffffffffffffffffffffffffffffffff1681526020019081526020016000208054806020026020016040519081016040528092919081815260200182805480156107d557602002820191906000526020600020905b8154815260200190600101908083116107c1575b505050505090506000815167ffffffffffffffff8111156107f9576107f8611941565b5b60405190808252806020026020018201604052801561083257816020015b61081f610fca565b8152602001906001900390816108175790505b50905060005b8251811015610b04576001600084838151811061085857610857611970565b5b602002602001015181526020019081526020016000206040518060e00160405290816000820160009054906101000a900473ffffffffffffffffffffffffffffffffffffffff1673ffffffffffffffffffffffffffffffffffffffff1673ffffffffffffffffffffffffffffffffffffffff1681526020016001820180546108df90611910565b80601f016020809104026020016040519081016040528092919081815260200182805461090b90611910565b80156109585780601f1061092d57610100808354040283529160200191610958565b820191906000526020600020905b81548152906001019060200180831161093b57829003601f168201915b5050505050815260200160028201805461097190611910565b80601f016020809104026020016040519081016040528092919081815260200182805461099d90611910565b80156109ea5780601f106109bf576101008083540402835291602001916109ea565b820191906000526020600020905b8154815290600101906020018083116109cd57829003601f168201915b505050505081526020016003820160009054906101000a90046fffffffffffffffffffffffffffffffff166fffffffffffffffffffffffffffffffff166fffffffffffffffffffffffffffffffff1681526020016003820160109054906101000a90046fffffffffffffffffffffffffffffffff166fffffffffffffffffffffffffffffffff166fffffffffffffffffffffffffffffffff1681526020016004820160009054906101000a900463ffffffff1663ffffffff1663ffffffff1681526020016004820160049054906101000a900463ffffffff1663ffffffff1663ffffffff1681525050828281518110610ae657610ae5611970565b5b60200260200101819052508080610afc906119ce565b915050610838565b508092505050919050565b6060600260003373ffffffffffffffffffffffffffffffffffffffff1673ffffffffffffffffffffffffffffffffffffffff168152602001908152602001600020805480602002602001604051908101604052809291908181526020018280548015610b9a57602002820191906000526020600020905b815481526020019060010190808311610b86575b5050505050905090565b6040518060e001604052803373ffffffffffffffffffffffffffffffffffffffff16815260200189898080601f016020809104026020016040519081016040528093929190818152602001838380828437600081840152601f19601f82011690508083019250505050505050815260200187878080601f016020809104026020016040519081016040528093929190818152602001838380828437600081840152601f19601f820116905080830192505050505050508152602001856fffffffffffffffffffffffffffffffff168152602001846fffffffffffffffffffffffffffffffff1681526020018363ffffffff1681526020018263ffffffff16815250600160008054815260200190815260200160002060008201518160000160006101000a81548173ffffffffffffffffffffffffffffffffffffffff021916908373ffffffffffffffffffffffffffffffffffffffff1602179055506020820151816001019081610d159190611bc2565b506040820151816002019081610d2b9190611bc2565b5060608201518160030160006101000a8154816fffffffffffffffffffffffffffffffff02191690836fffffffffffffffffffffffffffffffff16021790555060808201518160030160106101000a8154816fffffffffffffffffffffffffffffffff02191690836fffffffffffffffffffffffffffffffff16021790555060a08201518160040160006101000a81548163ffffffff021916908363ffffffff16021790555060c08201518160040160046101000a81548163ffffffff021916908363ffffffff160217905550905050600260003373ffffffffffffffffffffffffffffffffffffffff1673ffffffffffffffffffffffffffffffffffffffff16815260200190815260200160002060005490806001815401808255809150506001900390600052602060002001600090919091909150553373ffffffffffffffffffffffffffffffffffffffff166000547fb544b666bf20d30fc9acbc75aee55e5847e8f95a49aa5d36b6dab734f0cbb3038a8a8a8a8a8a8a8a42604051610ebc99989796959493929190611cd0565b60405180910390a3600080815480929190610ed6906119ce565b91905055505050505050505050565b806001600084815260200190815260200160002060030160008282829054906101000a90046fffffffffffffffffffffffffffffffff16610f269190611d51565b92506101000a8154816fffffffffffffffffffffffffffffffff02191690836fffffffffffffffffffffffffffffffff160217905550817f1f3d301eca9b893fb3ae34f526f7b346cfe3086be67884ce1e652593c91668d66001600085815260200190815260200160002060030160009054906101000a90046fffffffffffffffffffffffffffffffff16604051610fbe9190611d95565b60405180910390a25050565b6040518060e00160405280600073ffffffffffffffffffffffffffffffffffffffff168152602001606081526020016060815260200160006fffffffffffffffffffffffffffffffff16815260200160006fffffffffffffffffffffffffffffffff168152602001600063ffffffff168152602001600063ffffffff1681525090565b50805461105990611910565b6000825580601f1061106b575061108a565b601f016020900490600052602060002090810190611089919061108d565b5b50565b5b808211156110a657600081600090555060010161108e565b5090565b600080fd5b600080fd5b6000819050919050565b6110c7816110b4565b81146110d257600080fd5b50565b6000813590506110e4816110be565b92915050565b600060208284031215611100576110ff6110aa565b5b600061110e848285016110d5565b91505092915050565b600073ffffffffffffffffffffffffffffffffffffffff82169050919050565b600061114282611117565b9050919050565b61115281611137565b82525050565b600081519050919050565b600082825260208201905092915050565b60005b83811015611192578082015181840152602081019050611177565b60008484015250505050565b6000601f19601f8301169050919050565b60006111ba82611158565b6111c48185611163565b93506111d4818560208601611174565b6111dd8161119e565b840191505092915050565b60006fffffffffffffffffffffffffffffffff82169050919050565b61120d816111e8565b82525050565b600063ffffffff82169050919050565b61122c81611213565b82525050565b600060e08301600083015161124a6000860182611149565b506020830151848203602086015261126282826111af565b9150506040830151848203604086015261127c82826111af565b91505060608301516112916060860182611204565b5060808301516112a46080860182611204565b5060a08301516112b760a0860182611223565b5060c08301516112ca60c0860182611223565b508091505092915050565b600060208201905081810360008301526112ef8184611232565b905092915050565b61130081611137565b811461130b57600080fd5b50565b60008135905061131d816112f7565b92915050565b6000806040838503121561133a576113396110aa565b5b60006113488582860161130e565b9250506020611359858286016110d5565b9150509250929050565b61136c816110b4565b82525050565b60006020820190506113876000830184611363565b92915050565b61139681611137565b82525050565b600082825260208201905092915050565b60006113b882611158565b6113c2818561139c565b93506113d2818560208601611174565b6113db8161119e565b840191505092915050565b6113ef816111e8565b82525050565b6113fe81611213565b82525050565b600060e082019050611419600083018a61138d565b818103602083015261142b81896113ad565b9050818103604083015261143f81886113ad565b905061144e60608301876113e6565b61145b60808301866113e6565b61146860a08301856113f5565b61147560c08301846113f5565b98975050505050505050565b600060208284031215611497576114966110aa565b5b60006114a58482850161130e565b91505092915050565b600081519050919050565b600082825260208201905092915050565b6000819050602082019050919050565b600060e0830160008301516114f26000860182611149565b506020830151848203602086015261150a82826111af565b9150506040830151848203604086015261152482826111af565b91505060608301516115396060860182611204565b50608083015161154c6080860182611204565b5060a083015161155f60a0860182611223565b5060c083015161157260c0860182611223565b508091505092915050565b600061158983836114da565b905092915050565b6000602082019050919050565b60006115a9826114ae565b6115b381856114b9565b9350836020820285016115c5856114ca565b8060005b8581101561160157848403895281516115e2858261157d565b94506115ed83611591565b925060208a019950506001810190506115c9565b50829750879550505050505092915050565b6000602082019050818103600083015261162d818461159e565b905092915050565b600081519050919050565b600082825260208201905092915050565b6000819050602082019050919050565b61166a816110b4565b82525050565b600061167c8383611661565b60208301905092915050565b6000602082019050919050565b60006116a082611635565b6116aa8185611640565b93506116b583611651565b8060005b838110156116e65781516116cd8882611670565b97506116d883611688565b9250506001810190506116b9565b5085935050505092915050565b6000602082019050818103600083015261170d8184611695565b905092915050565b600080fd5b600080fd5b600080fd5b60008083601f84011261173a57611739611715565b5b8235905067ffffffffffffffff8111156117575761175661171a565b5b6020830191508360018202830111156117735761177261171f565b5b9250929050565b611783816111e8565b811461178e57600080fd5b50565b6000813590506117a08161177a565b92915050565b6117af81611213565b81146117ba57600080fd5b50565b6000813590506117cc816117a6565b92915050565b60008060008060008060008060c0898b0312156117f2576117f16110aa565b5b600089013567ffffffffffffffff8111156118105761180f6110af565b5b61181c8b828c01611724565b9850985050602089013567ffffffffffffffff81111561183f5761183e6110af565b5b61184b8b828c01611724565b9650965050604061185e8b828c01611791565b945050606061186f8b828c01611791565b93505060806118808b828c016117bd565b92505060a06118918b828c016117bd565b9150509295985092959890939650565b600080604083850312156118b8576118b76110aa565b5b60006118c6858286016110d5565b92505060206118d785828601611791565b9150509250929050565b7f4e487b7100000000000000000000000000000000000000000000000000000000600052602260045260246000fd5b6000600282049050600182168061192857607f821691505b60208210810361193b5761193a6118e1565b5b50919050565b7f4e487b7100000000000000000000000000000000000000000000000000000000600052604160045260246000fd5b7f4e487b7100000000000000000000000000000000000000000000000000000000600052603260045260246000fd5b7f4e487b7100000000000000000000000000000000000000000000000000000000600052601160045260246000fd5b60006119d9826110b4565b91507fffffffffffffffffffffffffffffffffffffffffffffffffffffffffffffffff8203611a0b57611a0a61199f565b5b600182019050919050565b60008190508160005260206000209050919050565b60006020601f8301049050919050565b600082821b905092915050565b600060088302611a787fffffffffffffffffffffffffffffffffffffffffffffffffffffffffffffffff82611a3b565b611a828683611a3b565b95508019841693508086168417925050509392505050565b6000819050919050565b6000611abf611aba611ab5846110b4565b611a9a565b6110b4565b9050919050565b6000819050919050565b611ad983611aa4565b611aed611ae582611ac6565b848454611a48565b825550505050565b600090565b611b02611af5565b611b0d818484611ad0565b505050565b5b81811015611b3157611b26600082611afa565b600181019050611b13565b5050565b601f821115611b7657611b4781611a16565b611b5084611a2b565b81016020851015611b5f578190505b611b73611b6b85611a2b565b830182611b12565b50505b505050565b600082821c905092915050565b6000611b9960001984600802611b7b565b1980831691505092915050565b6000611bb28383611b88565b9150826002028217905092915050565b611bcb82611158565b67ffffffffffffffff811115611be457611be3611941565b5b611bee8254611910565b611bf9828285611b35565b600060209050601f831160018114611c2c5760008415611c1a578287015190505b611c248582611ba6565b865550611c8c565b601f198416611c3a86611a16565b60005b82811015611c6257848901518255600182019150602085019450602081019050611c3d565b86831015611c7f5784890151611c7b601f891682611b88565b8355505b6001600288020188555050505b505050505050565b82818337600083830152505050565b6000611caf838561139c565b9350611cbc838584611c94565b611cc58361119e565b840190509392505050565b600060e0820190508181036000830152611ceb818b8d611ca3565b90508181036020830152611d0081898b611ca3565b9050611d0f60408301886113e6565b611d1c60608301876113e6565b611d2960808301866113f5565b611d3660a08301856113f5565b611d4360c0830184611363565b9a9950505050505050505050565b6000611d5c826111e8565b9150611d67836111e8565b925082820390506fffffffffffffffffffffffffffffffff811115611d8f57611d8e61199f565b5b92915050565b6000602082019050611daa60008301846113e6565b9291505056fea26469706673582212209f07a8e90d26624704156412dc293f22935ca98effad7639b6eefc5acf45a21564736f6c63430008120033",
  "linkReferences": {},
  "deployedLinkReferences": {}
}