{
  "_format": "hh-sol-artifact-1",
  "contractName": "supplierProduct",
  "sourceName": "contracts/supplierProduct.sol",
  "abi": [
    {
      "anonymous": false,
      "inputs": [
        {
          "indexed": true,
          "internalType": "uint256",
          "name": "_spid",
          "type": "uint256"
        },
        {
          "indexed": true,
          "internalType": "address",
          "name": "_address",
          "type": "address"
        },
        {
          "indexed": false,
          "internalType": "bytes",
          "name": "_name",
          "type": "bytes"
        },
        {
          "indexed": false,
          "internalType": "bytes",
          "name": "_description",
          "type": "bytes"
        },
        {
          "indexed": false,
          "internalType": "uint128",
          "name": "_unit",
          "type": "uint128"
        },
        {
          "indexed": false,
          "internalType": "uint128",
          "name": "_price",
          "type": "uint128"
        },
        {
          "indexed": false,
          "internalType": "uint32",
          "name": "_date",
          "type": "uint32"
        },
        {
          "indexed": false,
          "internalType": "uint32",
          "name": "_expiryDate",
          "type": "uint32"
        },
        {
          "indexed": false,
          "internalType": "uint256",
          "name": "_timeAdded",
          "type": "uint256"
        }
      ],
      "name": "eventAddSupplierProduct",
      "type": "event"
    },
    {
      "anonymous": false,
      "inputs": [
        {
          "indexed": true,
          "internalType": "uint256",
          "name": "_spId",
          "type": "uint256"
        }
      ],
      "name": "eventDeleteSupplierProduct",
      "type": "event"
    },
    {
      "anonymous": false,
      "inputs": [
        {
          "indexed": true,
          "internalType": "uint256",
          "name": "_spId",
          "type": "uint256"
        },
        {
          "indexed": false,
          "internalType": "uint128",
          "name": "_quantity",
          "type": "uint128"
        }
      ],
      "name": "eventUpdateSupplierProductUints",
      "type": "event"
    },
    {
      "inputs": [
        {
          "internalType": "bytes",
          "name": "_name",
          "type": "bytes"
        },
        {
          "internalType": "bytes",
          "name": "_description",
          "type": "bytes"
        },
        {
          "internalType": "uint128",
          "name": "_unit",
          "type": "uint128"
        },
        {
          "internalType": "uint128",
          "name": "_price",
          "type": "uint128"
        },
        {
          "internalType": "uint32",
          "name": "_date",
          "type": "uint32"
        },
        {
          "internalType": "uint32",
          "name": "_expiryDate",
          "type": "uint32"
        }
      ],
      "name": "addSupplierProduct",
      "outputs": [],
      "stateMutability": "nonpayable",
      "type": "function"
    },
    {
      "inputs": [
        {
          "internalType": "uint256",
          "name": "_spId",
          "type": "uint256"
        }
      ],
      "name": "deleteSupplierProduct",
      "outputs": [],
      "stateMutability": "nonpayable",
      "type": "function"
    },
    {
      "inputs": [
        {
          "internalType": "address",
          "name": "_supplierAddress",
          "type": "address"
        }
      ],
      "name": "getAllProductsOfSupplier",
      "outputs": [
        {
          "components": [
            {
              "internalType": "address",
              "name": "supplierAddress",
              "type": "address"
            },
            {
              "internalType": "bytes",
              "name": "sp_name",
              "type": "bytes"
            },
            {
              "internalType": "bytes",
              "name": "sp_description",
              "type": "bytes"
            },
            {
              "internalType": "uint128",
              "name": "sp_unit",
              "type": "uint128"
            },
            {
              "internalType": "uint128",
              "name": "sp_price",
              "type": "uint128"
            },
            {
              "internalType": "uint32",
              "name": "sp_date",
              "type": "uint32"
            },
            {
              "internalType": "uint32",
              "name": "sp_expiryDate",
              "type": "uint32"
            },
            {
              "internalType": "bool",
              "name": "sp_status",
              "type": "bool"
            }
          ],
          "internalType": "struct ISupplierProduct.supplierProduct[]",
          "name": "",
          "type": "tuple[]"
        }
      ],
      "stateMutability": "view",
      "type": "function"
    },
    {
      "inputs": [
        {
          "internalType": "uint256",
          "name": "_spId",
          "type": "uint256"
        }
      ],
      "name": "getSingleSupplierProduct",
      "outputs": [
        {
          "components": [
            {
              "internalType": "address",
              "name": "supplierAddress",
              "type": "address"
            },
            {
              "internalType": "bytes",
              "name": "sp_name",
              "type": "bytes"
            },
            {
              "internalType": "bytes",
              "name": "sp_description",
              "type": "bytes"
            },
            {
              "internalType": "uint128",
              "name": "sp_unit",
              "type": "uint128"
            },
            {
              "internalType": "uint128",
              "name": "sp_price",
              "type": "uint128"
            },
            {
              "internalType": "uint32",
              "name": "sp_date",
              "type": "uint32"
            },
            {
              "internalType": "uint32",
              "name": "sp_expiryDate",
              "type": "uint32"
            },
            {
              "internalType": "bool",
              "name": "sp_status",
              "type": "bool"
            }
          ],
          "internalType": "struct ISupplierProduct.supplierProduct",
          "name": "",
          "type": "tuple"
        }
      ],
      "stateMutability": "view",
      "type": "function"
    },
    {
      "inputs": [],
      "name": "getSupplierProductIds",
      "outputs": [
        {
          "internalType": "uint256[]",
          "name": "",
          "type": "uint256[]"
        }
      ],
      "stateMutability": "view",
      "type": "function"
    },
    {
      "inputs": [
        {
          "internalType": "address",
          "name": "",
          "type": "address"
        },
        {
          "internalType": "uint256",
          "name": "",
          "type": "uint256"
        }
      ],
      "name": "supplierAddressToproductsIdMapping",
      "outputs": [
        {
          "internalType": "uint256",
          "name": "",
          "type": "uint256"
        }
      ],
      "stateMutability": "view",
      "type": "function"
    },
    {
      "inputs": [
        {
          "internalType": "uint256",
          "name": "",
          "type": "uint256"
        }
      ],
      "name": "supplierProductsIdToStructMapping",
      "outputs": [
        {
          "internalType": "address",
          "name": "supplierAddress",
          "type": "address"
        },
        {
          "internalType": "bytes",
          "name": "sp_name",
          "type": "bytes"
        },
        {
          "internalType": "bytes",
          "name": "sp_description",
          "type": "bytes"
        },
        {
          "internalType": "uint128",
          "name": "sp_unit",
          "type": "uint128"
        },
        {
          "internalType": "uint128",
          "name": "sp_price",
          "type": "uint128"
        },
        {
          "internalType": "uint32",
          "name": "sp_date",
          "type": "uint32"
        },
        {
          "internalType": "uint32",
          "name": "sp_expiryDate",
          "type": "uint32"
        },
        {
          "internalType": "bool",
          "name": "sp_status",
          "type": "bool"
        }
      ],
      "stateMutability": "view",
      "type": "function"
    },
    {
      "inputs": [
        {
          "internalType": "uint256",
          "name": "_spId",
          "type": "uint256"
        },
        {
          "internalType": "uint128",
          "name": "_quantity",
          "type": "uint128"
        }
      ],
      "name": "updateSupplierProductUints",
      "outputs": [],
      "stateMutability": "nonpayable",
      "type": "function"
    }
  ],
  "bytecode": "0x6080604052600160005534801561001557600080fd5b50611dc8806100256000396000f3fe608060405234801561001057600080fd5b50600436106100885760003560e01c8063c22ef68e1161005b578063c22ef68e14610140578063e10f28c714610170578063ee7e7c991461018e578063f8bafa70146101aa57610088565b806342af31d71461008d5780636c87b826146100bd57806379ae0257146100f457806383f9585314610110575b600080fd5b6100a760048036038101906100a291906110c9565b6101c6565b6040516100b49190611118565b60405180910390f35b6100d760048036038101906100d29190611133565b6101f7565b6040516100eb989796959493929190611264565b60405180910390f35b61010e60048036038101906101099190611133565b6103d4565b005b61012a600480360381019061012591906112f0565b610433565b604051610137919061151c565b60405180910390f35b61015a60048036038101906101559190611133565b610816565b60405161016791906115f5565b60405180910390f35b610178610ab9565b60405161018591906116d5565b60405180910390f35b6101a860048036038101906101a391906117b4565b610b4e565b005b6101c460048036038101906101bf9190611883565b610eb9565b005b600260205281600052604060002081815481106101e257600080fd5b90600052602060002001600091509150505481565b60016020528060005260406000206000915090508060000160009054906101000a900473ffffffffffffffffffffffffffffffffffffffff1690806001018054610240906118f2565b80601f016020809104026020016040519081016040528092919081815260200182805461026c906118f2565b80156102b95780601f1061028e576101008083540402835291602001916102b9565b820191906000526020600020905b81548152906001019060200180831161029c57829003601f168201915b5050505050908060020180546102ce906118f2565b80601f01602080910402602001604051908101604052809291908181526020018280546102fa906118f2565b80156103475780601f1061031c57610100808354040283529160200191610347565b820191906000526020600020905b81548152906001019060200180831161032a57829003601f168201915b5050505050908060030160009054906101000a90046fffffffffffffffffffffffffffffffff16908060030160109054906101000a90046fffffffffffffffffffffffffffffffff16908060040160009054906101000a900463ffffffff16908060040160049054906101000a900463ffffffff16908060040160089054906101000a900460ff16905088565b60006001600083815260200190815260200160002060040160086101000a81548160ff021916908315150217905550807f6c1a4e746947a5049a6693a4875a10617826c8361c631cac61717e141185fdd260405160405180910390a250565b60606000600260008473ffffffffffffffffffffffffffffffffffffffff1673ffffffffffffffffffffffffffffffffffffffff1681526020019081526020016000208054806020026020016040519081016040528092919081815260200182805480156104c057602002820191906000526020600020905b8154815260200190600101908083116104ac575b505050505090506000815167ffffffffffffffff8111156104e4576104e3611923565b5b60405190808252806020026020018201604052801561051d57816020015b61050a610f9e565b8152602001906001900390816105025790505b50905060005b825181101561080b576001600084838151811061054357610542611952565b5b60200260200101518152602001908152602001600020604051806101000160405290816000820160009054906101000a900473ffffffffffffffffffffffffffffffffffffffff1673ffffffffffffffffffffffffffffffffffffffff1673ffffffffffffffffffffffffffffffffffffffff1681526020016001820180546105cb906118f2565b80601f01602080910402602001604051908101604052809291908181526020018280546105f7906118f2565b80156106445780601f1061061957610100808354040283529160200191610644565b820191906000526020600020905b81548152906001019060200180831161062757829003601f168201915b5050505050815260200160028201805461065d906118f2565b80601f0160208091040260200160405190810160405280929190818152602001828054610689906118f2565b80156106d65780601f106106ab576101008083540402835291602001916106d6565b820191906000526020600020905b8154815290600101906020018083116106b957829003601f168201915b505050505081526020016003820160009054906101000a90046fffffffffffffffffffffffffffffffff166fffffffffffffffffffffffffffffffff166fffffffffffffffffffffffffffffffff1681526020016003820160109054906101000a90046fffffffffffffffffffffffffffffffff166fffffffffffffffffffffffffffffffff166fffffffffffffffffffffffffffffffff1681526020016004820160009054906101000a900463ffffffff1663ffffffff1663ffffffff1681526020016004820160049054906101000a900463ffffffff1663ffffffff1663ffffffff1681526020016004820160089054906101000a900460ff1615151515815250508282815181106107ed576107ec611952565b5b60200260200101819052508080610803906119b0565b915050610523565b508092505050919050565b61081e610f9e565b60016000838152602001908152602001600020604051806101000160405290816000820160009054906101000a900473ffffffffffffffffffffffffffffffffffffffff1673ffffffffffffffffffffffffffffffffffffffff1673ffffffffffffffffffffffffffffffffffffffff1681526020016001820180546108a3906118f2565b80601f01602080910402602001604051908101604052809291908181526020018280546108cf906118f2565b801561091c5780601f106108f15761010080835404028352916020019161091c565b820191906000526020600020905b8154815290600101906020018083116108ff57829003601f168201915b50505050508152602001600282018054610935906118f2565b80601f0160208091040260200160405190810160405280929190818152602001828054610961906118f2565b80156109ae5780601f10610983576101008083540402835291602001916109ae565b820191906000526020600020905b81548152906001019060200180831161099157829003601f168201915b505050505081526020016003820160009054906101000a90046fffffffffffffffffffffffffffffffff166fffffffffffffffffffffffffffffffff166fffffffffffffffffffffffffffffffff1681526020016003820160109054906101000a90046fffffffffffffffffffffffffffffffff166fffffffffffffffffffffffffffffffff166fffffffffffffffffffffffffffffffff1681526020016004820160009054906101000a900463ffffffff1663ffffffff1663ffffffff1681526020016004820160049054906101000a900463ffffffff1663ffffffff1663ffffffff1681526020016004820160089054906101000a900460ff1615151515815250509050919050565b6060600260003373ffffffffffffffffffffffffffffffffffffffff1673ffffffffffffffffffffffffffffffffffffffff168152602001908152602001600020805480602002602001604051908101604052809291908181526020018280548015610b4457602002820191906000526020600020905b815481526020019060010190808311610b30575b5050505050905090565b6040518061010001604052803373ffffffffffffffffffffffffffffffffffffffff16815260200189898080601f016020809104026020016040519081016040528093929190818152602001838380828437600081840152601f19601f82011690508083019250505050505050815260200187878080601f016020809104026020016040519081016040528093929190818152602001838380828437600081840152601f19601f820116905080830192505050505050508152602001856fffffffffffffffffffffffffffffffff168152602001846fffffffffffffffffffffffffffffffff1681526020018363ffffffff1681526020018263ffffffff16815260200160011515815250600160008054815260200190815260200160002060008201518160000160006101000a81548173ffffffffffffffffffffffffffffffffffffffff021916908373ffffffffffffffffffffffffffffffffffffffff1602179055506020820151816001019081610cc99190611ba4565b506040820151816002019081610cdf9190611ba4565b5060608201518160030160006101000a8154816fffffffffffffffffffffffffffffffff02191690836fffffffffffffffffffffffffffffffff16021790555060808201518160030160106101000a8154816fffffffffffffffffffffffffffffffff02191690836fffffffffffffffffffffffffffffffff16021790555060a08201518160040160006101000a81548163ffffffff021916908363ffffffff16021790555060c08201518160040160046101000a81548163ffffffff021916908363ffffffff16021790555060e08201518160040160086101000a81548160ff021916908315150217905550905050600260003373ffffffffffffffffffffffffffffffffffffffff1673ffffffffffffffffffffffffffffffffffffffff16815260200190815260200160002060005490806001815401808255809150506001900390600052602060002001600090919091909150553373ffffffffffffffffffffffffffffffffffffffff166000547fb544b666bf20d30fc9acbc75aee55e5847e8f95a49aa5d36b6dab734f0cbb3038a8a8a8a8a8a8a8a42604051610e9099989796959493929190611cb2565b60405180910390a3600080815480929190610eaa906119b0565b91905055505050505050505050565b806001600084815260200190815260200160002060030160008282829054906101000a90046fffffffffffffffffffffffffffffffff16610efa9190611d33565b92506101000a8154816fffffffffffffffffffffffffffffffff02191690836fffffffffffffffffffffffffffffffff160217905550817f1f3d301eca9b893fb3ae34f526f7b346cfe3086be67884ce1e652593c91668d66001600085815260200190815260200160002060030160009054906101000a90046fffffffffffffffffffffffffffffffff16604051610f929190611d77565b60405180910390a25050565b604051806101000160405280600073ffffffffffffffffffffffffffffffffffffffff168152602001606081526020016060815260200160006fffffffffffffffffffffffffffffffff16815260200160006fffffffffffffffffffffffffffffffff168152602001600063ffffffff168152602001600063ffffffff1681526020016000151581525090565b600080fd5b600080fd5b600073ffffffffffffffffffffffffffffffffffffffff82169050919050565b600061106082611035565b9050919050565b61107081611055565b811461107b57600080fd5b50565b60008135905061108d81611067565b92915050565b6000819050919050565b6110a681611093565b81146110b157600080fd5b50565b6000813590506110c38161109d565b92915050565b600080604083850312156110e0576110df61102b565b5b60006110ee8582860161107e565b92505060206110ff858286016110b4565b9150509250929050565b61111281611093565b82525050565b600060208201905061112d6000830184611109565b92915050565b6000602082840312156111495761114861102b565b5b6000611157848285016110b4565b91505092915050565b61116981611055565b82525050565b600081519050919050565b600082825260208201905092915050565b60005b838110156111a957808201518184015260208101905061118e565b60008484015250505050565b6000601f19601f8301169050919050565b60006111d18261116f565b6111db818561117a565b93506111eb81856020860161118b565b6111f4816111b5565b840191505092915050565b60006fffffffffffffffffffffffffffffffff82169050919050565b611224816111ff565b82525050565b600063ffffffff82169050919050565b6112438161122a565b82525050565b60008115159050919050565b61125e81611249565b82525050565b60006101008201905061127a600083018b611160565b818103602083015261128c818a6111c6565b905081810360408301526112a081896111c6565b90506112af606083018861121b565b6112bc608083018761121b565b6112c960a083018661123a565b6112d660c083018561123a565b6112e360e0830184611255565b9998505050505050505050565b6000602082840312156113065761130561102b565b5b60006113148482850161107e565b91505092915050565b600081519050919050565b600082825260208201905092915050565b6000819050602082019050919050565b61135281611055565b82525050565b600082825260208201905092915050565b60006113748261116f565b61137e8185611358565b935061138e81856020860161118b565b611397816111b5565b840191505092915050565b6113ab816111ff565b82525050565b6113ba8161122a565b82525050565b6113c981611249565b82525050565b6000610100830160008301516113e86000860182611349565b50602083015184820360208601526114008282611369565b9150506040830151848203604086015261141a8282611369565b915050606083015161142f60608601826113a2565b50608083015161144260808601826113a2565b5060a083015161145560a08601826113b1565b5060c083015161146860c08601826113b1565b5060e083015161147b60e08601826113c0565b508091505092915050565b600061149283836113cf565b905092915050565b6000602082019050919050565b60006114b28261131d565b6114bc8185611328565b9350836020820285016114ce85611339565b8060005b8581101561150a57848403895281516114eb8582611486565b94506114f68361149a565b925060208a019950506001810190506114d2565b50829750879550505050505092915050565b6000602082019050818103600083015261153681846114a7565b905092915050565b6000610100830160008301516115576000860182611349565b506020830151848203602086015261156f8282611369565b915050604083015184820360408601526115898282611369565b915050606083015161159e60608601826113a2565b5060808301516115b160808601826113a2565b5060a08301516115c460a08601826113b1565b5060c08301516115d760c08601826113b1565b5060e08301516115ea60e08601826113c0565b508091505092915050565b6000602082019050818103600083015261160f818461153e565b905092915050565b600081519050919050565b600082825260208201905092915050565b6000819050602082019050919050565b61164c81611093565b82525050565b600061165e8383611643565b60208301905092915050565b6000602082019050919050565b600061168282611617565b61168c8185611622565b935061169783611633565b8060005b838110156116c85781516116af8882611652565b97506116ba8361166a565b92505060018101905061169b565b5085935050505092915050565b600060208201905081810360008301526116ef8184611677565b905092915050565b600080fd5b600080fd5b600080fd5b60008083601f84011261171c5761171b6116f7565b5b8235905067ffffffffffffffff811115611739576117386116fc565b5b60208301915083600182028301111561175557611754611701565b5b9250929050565b611765816111ff565b811461177057600080fd5b50565b6000813590506117828161175c565b92915050565b6117918161122a565b811461179c57600080fd5b50565b6000813590506117ae81611788565b92915050565b60008060008060008060008060c0898b0312156117d4576117d361102b565b5b600089013567ffffffffffffffff8111156117f2576117f1611030565b5b6117fe8b828c01611706565b9850985050602089013567ffffffffffffffff81111561182157611820611030565b5b61182d8b828c01611706565b965096505060406118408b828c01611773565b94505060606118518b828c01611773565b93505060806118628b828c0161179f565b92505060a06118738b828c0161179f565b9150509295985092959890939650565b6000806040838503121561189a5761189961102b565b5b60006118a8858286016110b4565b92505060206118b985828601611773565b9150509250929050565b7f4e487b7100000000000000000000000000000000000000000000000000000000600052602260045260246000fd5b6000600282049050600182168061190a57607f821691505b60208210810361191d5761191c6118c3565b5b50919050565b7f4e487b7100000000000000000000000000000000000000000000000000000000600052604160045260246000fd5b7f4e487b7100000000000000000000000000000000000000000000000000000000600052603260045260246000fd5b7f4e487b7100000000000000000000000000000000000000000000000000000000600052601160045260246000fd5b60006119bb82611093565b91507fffffffffffffffffffffffffffffffffffffffffffffffffffffffffffffffff82036119ed576119ec611981565b5b600182019050919050565b60008190508160005260206000209050919050565b60006020601f8301049050919050565b600082821b905092915050565b600060088302611a5a7fffffffffffffffffffffffffffffffffffffffffffffffffffffffffffffffff82611a1d565b611a648683611a1d565b95508019841693508086168417925050509392505050565b6000819050919050565b6000611aa1611a9c611a9784611093565b611a7c565b611093565b9050919050565b6000819050919050565b611abb83611a86565b611acf611ac782611aa8565b848454611a2a565b825550505050565b600090565b611ae4611ad7565b611aef818484611ab2565b505050565b5b81811015611b1357611b08600082611adc565b600181019050611af5565b5050565b601f821115611b5857611b29816119f8565b611b3284611a0d565b81016020851015611b41578190505b611b55611b4d85611a0d565b830182611af4565b50505b505050565b600082821c905092915050565b6000611b7b60001984600802611b5d565b1980831691505092915050565b6000611b948383611b6a565b9150826002028217905092915050565b611bad8261116f565b67ffffffffffffffff811115611bc657611bc5611923565b5b611bd082546118f2565b611bdb828285611b17565b600060209050601f831160018114611c0e5760008415611bfc578287015190505b611c068582611b88565b865550611c6e565b601f198416611c1c866119f8565b60005b82811015611c4457848901518255600182019150602085019450602081019050611c1f565b86831015611c615784890151611c5d601f891682611b6a565b8355505b6001600288020188555050505b505050505050565b82818337600083830152505050565b6000611c91838561117a565b9350611c9e838584611c76565b611ca7836111b5565b840190509392505050565b600060e0820190508181036000830152611ccd818b8d611c85565b90508181036020830152611ce281898b611c85565b9050611cf1604083018861121b565b611cfe606083018761121b565b611d0b608083018661123a565b611d1860a083018561123a565b611d2560c0830184611109565b9a9950505050505050505050565b6000611d3e826111ff565b9150611d49836111ff565b925082820390506fffffffffffffffffffffffffffffffff811115611d7157611d70611981565b5b92915050565b6000602082019050611d8c600083018461121b565b9291505056fea26469706673582212201c1de5eab8f1535d4c14d8932de6756300f6b98b4b21ea27f8829fe6c1e85c8664736f6c63430008120033",
  "linkReferences": {},
  "deployedLinkReferences": {}
}