{
  "_format": "hh-sol-artifact-1",
  "contractName": "supplierManufacturer",
  "sourceName": "contracts/supplierManufacturer.sol",
  "abi": [
    {
      "anonymous": false,
      "inputs": [
        {
          "indexed": false,
          "internalType": "uint32",
          "name": "_arrivalTime",
          "type": "uint32"
        }
      ],
      "name": "eventArrivalTime",
      "type": "event"
    },
    {
      "anonymous": false,
      "inputs": [
        {
          "indexed": true,
          "internalType": "uint256",
          "name": "_smId",
          "type": "uint256"
        },
        {
          "indexed": true,
          "internalType": "uint256",
          "name": "_spId",
          "type": "uint256"
        },
        {
          "indexed": false,
          "internalType": "address",
          "name": "_supplierAddress",
          "type": "address"
        },
        {
          "indexed": false,
          "internalType": "address",
          "name": "_manufacturerAddress",
          "type": "address"
        },
        {
          "indexed": false,
          "internalType": "uint32",
          "name": "_dispatchTime",
          "type": "uint32"
        }
      ],
      "name": "eventSupplierManufacturerTransfer",
      "type": "event"
    },
    {
      "inputs": [
        {
          "internalType": "address",
          "name": "_manufacturerAddress",
          "type": "address"
        }
      ],
      "name": "getAllSmIdForManufacturer",
      "outputs": [
        {
          "components": [
            {
              "internalType": "uint256",
              "name": "spId",
              "type": "uint256"
            },
            {
              "internalType": "address",
              "name": "supplierAddress",
              "type": "address"
            },
            {
              "internalType": "address",
              "name": "manufacturerAddress",
              "type": "address"
            },
            {
              "internalType": "uint32",
              "name": "dispatchTime",
              "type": "uint32"
            },
            {
              "internalType": "uint32",
              "name": "arrivalTime",
              "type": "uint32"
            }
          ],
          "internalType": "struct ISupplierManufacturer.supplierManufacturer[]",
          "name": "",
          "type": "tuple[]"
        }
      ],
      "stateMutability": "view",
      "type": "function"
    },
    {
      "inputs": [
        {
          "internalType": "uint256",
          "name": "_smId",
          "type": "uint256"
        }
      ],
      "name": "getProduct",
      "outputs": [
        {
          "components": [
            {
              "internalType": "uint256",
              "name": "spId",
              "type": "uint256"
            },
            {
              "internalType": "address",
              "name": "supplierAddress",
              "type": "address"
            },
            {
              "internalType": "address",
              "name": "manufacturerAddress",
              "type": "address"
            },
            {
              "internalType": "uint32",
              "name": "dispatchTime",
              "type": "uint32"
            },
            {
              "internalType": "uint32",
              "name": "arrivalTime",
              "type": "uint32"
            }
          ],
          "internalType": "struct ISupplierManufacturer.supplierManufacturer",
          "name": "",
          "type": "tuple"
        }
      ],
      "stateMutability": "view",
      "type": "function"
    },
    {
      "inputs": [
        {
          "internalType": "address",
          "name": "",
          "type": "address"
        },
        {
          "internalType": "uint256",
          "name": "",
          "type": "uint256"
        }
      ],
      "name": "manufacturerTosmIDMapping",
      "outputs": [
        {
          "internalType": "uint256",
          "name": "",
          "type": "uint256"
        }
      ],
      "stateMutability": "view",
      "type": "function"
    },
    {
      "inputs": [
        {
          "internalType": "uint256",
          "name": "_smId",
          "type": "uint256"
        }
      ],
      "name": "receiveProduct",
      "outputs": [],
      "stateMutability": "nonpayable",
      "type": "function"
    },
    {
      "inputs": [],
      "name": "smId",
      "outputs": [
        {
          "internalType": "uint256",
          "name": "",
          "type": "uint256"
        }
      ],
      "stateMutability": "view",
      "type": "function"
    },
    {
      "inputs": [
        {
          "internalType": "uint256",
          "name": "",
          "type": "uint256"
        }
      ],
      "name": "smidToStructMapping",
      "outputs": [
        {
          "internalType": "uint256",
          "name": "spId",
          "type": "uint256"
        },
        {
          "internalType": "address",
          "name": "supplierAddress",
          "type": "address"
        },
        {
          "internalType": "address",
          "name": "manufacturerAddress",
          "type": "address"
        },
        {
          "internalType": "uint32",
          "name": "dispatchTime",
          "type": "uint32"
        },
        {
          "internalType": "uint32",
          "name": "arrivalTime",
          "type": "uint32"
        }
      ],
      "stateMutability": "view",
      "type": "function"
    },
    {
      "inputs": [
        {
          "internalType": "uint256",
          "name": "_spId",
          "type": "uint256"
        },
        {
          "internalType": "address",
          "name": "_supplierAddress",
          "type": "address"
        },
        {
          "internalType": "address",
          "name": "_manufacturerAddress",
          "type": "address"
        },
        {
          "internalType": "uint32",
          "name": "_dispatchTime",
          "type": "uint32"
        },
        {
          "internalType": "uint32",
          "name": "_arrivalTime",
          "type": "uint32"
        }
      ],
      "name": "transferProduct",
      "outputs": [],
      "stateMutability": "nonpayable",
      "type": "function"
    }
  ],
  "bytecode": "0x6080604052600160005534801561001557600080fd5b50610ef4806100256000396000f3fe608060405234801561001057600080fd5b506004361061007d5760003560e01c806370b775a01161005b57806370b775a0146100d8578063a440361514610108578063b9db15b414610138578063d2bf193d146101685761007d565b8063029e2fe41461008257806329d78328146100a05780633f5d2e2e146100bc575b600080fd5b61008a61019c565b6040516100979190610942565b60405180910390f35b6100ba60048036038101906100b5919061098e565b6101a2565b005b6100d660048036038101906100d19190610a55565b610211565b005b6100f260048036038101906100ed9190610ad0565b61045d565b6040516100ff9190610c41565b60405180910390f35b610122600480360381019061011d9190610c63565b6106cc565b60405161012f9190610942565b60405180910390f35b610152600480360381019061014d919061098e565b6106fd565b60405161015f9190610d0b565b60405180910390f35b610182600480360381019061017d919061098e565b61082c565b604051610193959493929190610d44565b60405180910390f35b60005481565b426002600083815260200190815260200160002060020160186101000a81548163ffffffff021916908363ffffffff1602179055507f64e64e323422dcfed18a892f84596ccf7cc94b1952625f3cc82e6461b529fff1426040516102069190610d97565b60405180910390a150565b6040518060a001604052808681526020018573ffffffffffffffffffffffffffffffffffffffff1681526020018473ffffffffffffffffffffffffffffffffffffffff1681526020018363ffffffff1681526020018263ffffffff1681525060026000805481526020019081526020016000206000820151816000015560208201518160010160006101000a81548173ffffffffffffffffffffffffffffffffffffffff021916908373ffffffffffffffffffffffffffffffffffffffff16021790555060408201518160020160006101000a81548173ffffffffffffffffffffffffffffffffffffffff021916908373ffffffffffffffffffffffffffffffffffffffff16021790555060608201518160020160146101000a81548163ffffffff021916908363ffffffff16021790555060808201518160020160186101000a81548163ffffffff021916908363ffffffff16021790555090505060016000549080600181540180825580915050600190039060005260206000200160009091909190915055600360008473ffffffffffffffffffffffffffffffffffffffff1673ffffffffffffffffffffffffffffffffffffffff1681526020019081526020016000206000549080600181540180825580915050600190039060005260206000200160009091909190915055846000547f6abc5964a9f8c02bee56a206f75c7526ea67f5abd5cbbe939c60d4a489607e4986868660405161043793929190610db2565b60405180910390a360008081548092919061045190610e18565b91905055505050505050565b60606000600360008473ffffffffffffffffffffffffffffffffffffffff1673ffffffffffffffffffffffffffffffffffffffff1681526020019081526020016000208054806020026020016040519081016040528092919081815260200182805480156104ea57602002820191906000526020600020905b8154815260200190600101908083116104d6575b505050505090506000815167ffffffffffffffff81111561050e5761050d610e60565b5b60405190808252806020026020018201604052801561054757816020015b6105346108c2565b81526020019060019003908161052c5790505b50905060005b82518110156106c1576002600084838151811061056d5761056c610e8f565b5b602002602001015181526020019081526020016000206040518060a0016040529081600082015481526020016001820160009054906101000a900473ffffffffffffffffffffffffffffffffffffffff1673ffffffffffffffffffffffffffffffffffffffff1673ffffffffffffffffffffffffffffffffffffffff1681526020016002820160009054906101000a900473ffffffffffffffffffffffffffffffffffffffff1673ffffffffffffffffffffffffffffffffffffffff1673ffffffffffffffffffffffffffffffffffffffff1681526020016002820160149054906101000a900463ffffffff1663ffffffff1663ffffffff1681526020016002820160189054906101000a900463ffffffff1663ffffffff1663ffffffff16815250508282815181106106a3576106a2610e8f565b5b602002602001018190525080806106b990610e18565b91505061054d565b508092505050919050565b600360205281600052604060002081815481106106e857600080fd5b90600052602060002001600091509150505481565b6107056108c2565b600260008381526020019081526020016000206040518060a0016040529081600082015481526020016001820160009054906101000a900473ffffffffffffffffffffffffffffffffffffffff1673ffffffffffffffffffffffffffffffffffffffff1673ffffffffffffffffffffffffffffffffffffffff1681526020016002820160009054906101000a900473ffffffffffffffffffffffffffffffffffffffff1673ffffffffffffffffffffffffffffffffffffffff1673ffffffffffffffffffffffffffffffffffffffff1681526020016002820160149054906101000a900463ffffffff1663ffffffff1663ffffffff1681526020016002820160189054906101000a900463ffffffff1663ffffffff1663ffffffff16815250509050919050565b60026020528060005260406000206000915090508060000154908060010160009054906101000a900473ffffffffffffffffffffffffffffffffffffffff16908060020160009054906101000a900473ffffffffffffffffffffffffffffffffffffffff16908060020160149054906101000a900463ffffffff16908060020160189054906101000a900463ffffffff16905085565b6040518060a0016040528060008152602001600073ffffffffffffffffffffffffffffffffffffffff168152602001600073ffffffffffffffffffffffffffffffffffffffff168152602001600063ffffffff168152602001600063ffffffff1681525090565b6000819050919050565b61093c81610929565b82525050565b60006020820190506109576000830184610933565b92915050565b600080fd5b61096b81610929565b811461097657600080fd5b50565b60008135905061098881610962565b92915050565b6000602082840312156109a4576109a361095d565b5b60006109b284828501610979565b91505092915050565b600073ffffffffffffffffffffffffffffffffffffffff82169050919050565b60006109e6826109bb565b9050919050565b6109f6816109db565b8114610a0157600080fd5b50565b600081359050610a13816109ed565b92915050565b600063ffffffff82169050919050565b610a3281610a19565b8114610a3d57600080fd5b50565b600081359050610a4f81610a29565b92915050565b600080600080600060a08688031215610a7157610a7061095d565b5b6000610a7f88828901610979565b9550506020610a9088828901610a04565b9450506040610aa188828901610a04565b9350506060610ab288828901610a40565b9250506080610ac388828901610a40565b9150509295509295909350565b600060208284031215610ae657610ae561095d565b5b6000610af484828501610a04565b91505092915050565b600081519050919050565b600082825260208201905092915050565b6000819050602082019050919050565b610b3281610929565b82525050565b610b41816109db565b82525050565b610b5081610a19565b82525050565b60a082016000820151610b6c6000850182610b29565b506020820151610b7f6020850182610b38565b506040820151610b926040850182610b38565b506060820151610ba56060850182610b47565b506080820151610bb86080850182610b47565b50505050565b6000610bca8383610b56565b60a08301905092915050565b6000602082019050919050565b6000610bee82610afd565b610bf88185610b08565b9350610c0383610b19565b8060005b83811015610c34578151610c1b8882610bbe565b9750610c2683610bd6565b925050600181019050610c07565b5085935050505092915050565b60006020820190508181036000830152610c5b8184610be3565b905092915050565b60008060408385031215610c7a57610c7961095d565b5b6000610c8885828601610a04565b9250506020610c9985828601610979565b9150509250929050565b60a082016000820151610cb96000850182610b29565b506020820151610ccc6020850182610b38565b506040820151610cdf6040850182610b38565b506060820151610cf26060850182610b47565b506080820151610d056080850182610b47565b50505050565b600060a082019050610d206000830184610ca3565b92915050565b610d2f816109db565b82525050565b610d3e81610a19565b82525050565b600060a082019050610d596000830188610933565b610d666020830187610d26565b610d736040830186610d26565b610d806060830185610d35565b610d8d6080830184610d35565b9695505050505050565b6000602082019050610dac6000830184610d35565b92915050565b6000606082019050610dc76000830186610d26565b610dd46020830185610d26565b610de16040830184610d35565b949350505050565b7f4e487b7100000000000000000000000000000000000000000000000000000000600052601160045260246000fd5b6000610e2382610929565b91507fffffffffffffffffffffffffffffffffffffffffffffffffffffffffffffffff8203610e5557610e54610de9565b5b600182019050919050565b7f4e487b7100000000000000000000000000000000000000000000000000000000600052604160045260246000fd5b7f4e487b7100000000000000000000000000000000000000000000000000000000600052603260045260246000fdfea26469706673582212203814fd43959b0cdf52a58de200c4c0f50146219e37e95fe49be1e6e42689302b64736f6c63430008120033",
  "linkReferences": {},
  "deployedLinkReferences": {}
}