{
  "_format": "hh-sol-artifact-1",
  "contractName": "distributorProduct",
  "sourceName": "contracts/distributorProduct.sol",
  "abi": [
    {
      "anonymous": false,
      "inputs": [
        {
          "indexed": true,
          "internalType": "uint256",
          "name": "_dpId",
          "type": "uint256"
        },
        {
          "indexed": true,
          "internalType": "address[]",
          "name": "_manufacturerAddress",
          "type": "address[]"
        },
        {
          "indexed": true,
          "internalType": "uint256[]",
          "name": "_mdId",
          "type": "uint256[]"
        },
        {
          "indexed": false,
          "internalType": "bytes",
          "name": "_name",
          "type": "bytes"
        },
        {
          "indexed": false,
          "internalType": "bytes",
          "name": "_description",
          "type": "bytes"
        },
        {
          "indexed": false,
          "internalType": "uint128",
          "name": "_unit",
          "type": "uint128"
        },
        {
          "indexed": false,
          "internalType": "uint128",
          "name": "_price",
          "type": "uint128"
        },
        {
          "indexed": false,
          "internalType": "uint32",
          "name": "_date",
          "type": "uint32"
        },
        {
          "indexed": false,
          "internalType": "uint32",
          "name": "_expiryDate",
          "type": "uint32"
        },
        {
          "indexed": false,
          "internalType": "bool",
          "name": "status",
          "type": "bool"
        }
      ],
      "name": "eventAddDistributorProduct",
      "type": "event"
    },
    {
      "anonymous": false,
      "inputs": [
        {
          "indexed": true,
          "internalType": "uint256",
          "name": "_id",
          "type": "uint256"
        }
      ],
      "name": "eventDeleteDistributorProduct",
      "type": "event"
    },
    {
      "anonymous": false,
      "inputs": [
        {
          "indexed": true,
          "internalType": "uint256",
          "name": "_dpId",
          "type": "uint256"
        },
        {
          "indexed": false,
          "internalType": "uint128",
          "name": "_quantity",
          "type": "uint128"
        }
      ],
      "name": "eventUpdateDistributorProductUints",
      "type": "event"
    },
    {
      "inputs": [
        {
          "internalType": "address[]",
          "name": "_manufacturerAddress",
          "type": "address[]"
        },
        {
          "internalType": "uint256[]",
          "name": "_mdId",
          "type": "uint256[]"
        },
        {
          "internalType": "bytes",
          "name": "_name",
          "type": "bytes"
        },
        {
          "internalType": "bytes",
          "name": "_description",
          "type": "bytes"
        },
        {
          "internalType": "uint128",
          "name": "_unit",
          "type": "uint128"
        },
        {
          "internalType": "uint128",
          "name": "_price",
          "type": "uint128"
        },
        {
          "internalType": "uint32",
          "name": "_date",
          "type": "uint32"
        },
        {
          "internalType": "uint32",
          "name": "_expiryDate",
          "type": "uint32"
        }
      ],
      "name": "addDistributorProduct",
      "outputs": [],
      "stateMutability": "nonpayable",
      "type": "function"
    },
    {
      "inputs": [
        {
          "internalType": "uint256",
          "name": "_id",
          "type": "uint256"
        }
      ],
      "name": "deleteDistributorProduct",
      "outputs": [],
      "stateMutability": "nonpayable",
      "type": "function"
    },
    {
      "inputs": [
        {
          "internalType": "address",
          "name": "",
          "type": "address"
        },
        {
          "internalType": "uint256",
          "name": "",
          "type": "uint256"
        }
      ],
      "name": "distributorAddressToproductsIdMapping",
      "outputs": [
        {
          "internalType": "uint256",
          "name": "",
          "type": "uint256"
        }
      ],
      "stateMutability": "view",
      "type": "function"
    },
    {
      "inputs": [
        {
          "internalType": "uint256",
          "name": "",
          "type": "uint256"
        }
      ],
      "name": "distributorProductsIdToStructMapping",
      "outputs": [
        {
          "internalType": "bytes",
          "name": "dp_name",
          "type": "bytes"
        },
        {
          "internalType": "bytes",
          "name": "dp_description",
          "type": "bytes"
        },
        {
          "internalType": "uint128",
          "name": "dp_unit",
          "type": "uint128"
        },
        {
          "internalType": "uint128",
          "name": "dp_price",
          "type": "uint128"
        },
        {
          "internalType": "uint32",
          "name": "dp_date",
          "type": "uint32"
        },
        {
          "internalType": "uint32",
          "name": "dp_expiryDate",
          "type": "uint32"
        },
        {
          "internalType": "bool",
          "name": "status",
          "type": "bool"
        }
      ],
      "stateMutability": "view",
      "type": "function"
    },
    {
      "inputs": [
        {
          "internalType": "address",
          "name": "_distributorAddress",
          "type": "address"
        }
      ],
      "name": "getAllProductsOfDistributor",
      "outputs": [
        {
          "components": [
            {
              "internalType": "address[]",
              "name": "manufacturerAddress",
              "type": "address[]"
            },
            {
              "internalType": "uint256[]",
              "name": "md_id",
              "type": "uint256[]"
            },
            {
              "internalType": "bytes",
              "name": "dp_name",
              "type": "bytes"
            },
            {
              "internalType": "bytes",
              "name": "dp_description",
              "type": "bytes"
            },
            {
              "internalType": "uint128",
              "name": "dp_unit",
              "type": "uint128"
            },
            {
              "internalType": "uint128",
              "name": "dp_price",
              "type": "uint128"
            },
            {
              "internalType": "uint32",
              "name": "dp_date",
              "type": "uint32"
            },
            {
              "internalType": "uint32",
              "name": "dp_expiryDate",
              "type": "uint32"
            },
            {
              "internalType": "bool",
              "name": "status",
              "type": "bool"
            }
          ],
          "internalType": "struct IDistributorProduct.distributorProduct[]",
          "name": "",
          "type": "tuple[]"
        }
      ],
      "stateMutability": "view",
      "type": "function"
    },
    {
      "inputs": [],
      "name": "getDistributorProductIds",
      "outputs": [
        {
          "internalType": "uint256[]",
          "name": "",
          "type": "uint256[]"
        }
      ],
      "stateMutability": "view",
      "type": "function"
    },
    {
      "inputs": [
        {
          "internalType": "uint256",
          "name": "_id",
          "type": "uint256"
        }
      ],
      "name": "getSingleDistributorProduct",
      "outputs": [
        {
          "components": [
            {
              "internalType": "address[]",
              "name": "manufacturerAddress",
              "type": "address[]"
            },
            {
              "internalType": "uint256[]",
              "name": "md_id",
              "type": "uint256[]"
            },
            {
              "internalType": "bytes",
              "name": "dp_name",
              "type": "bytes"
            },
            {
              "internalType": "bytes",
              "name": "dp_description",
              "type": "bytes"
            },
            {
              "internalType": "uint128",
              "name": "dp_unit",
              "type": "uint128"
            },
            {
              "internalType": "uint128",
              "name": "dp_price",
              "type": "uint128"
            },
            {
              "internalType": "uint32",
              "name": "dp_date",
              "type": "uint32"
            },
            {
              "internalType": "uint32",
              "name": "dp_expiryDate",
              "type": "uint32"
            },
            {
              "internalType": "bool",
              "name": "status",
              "type": "bool"
            }
          ],
          "internalType": "struct IDistributorProduct.distributorProduct",
          "name": "",
          "type": "tuple"
        }
      ],
      "stateMutability": "view",
      "type": "function"
    },
    {
      "inputs": [
        {
          "internalType": "uint256",
          "name": "_dpId",
          "type": "uint256"
        },
        {
          "internalType": "uint128",
          "name": "_quantity",
          "type": "uint128"
        }
      ],
      "name": "updateDistributorProductUints",
      "outputs": [],
      "stateMutability": "nonpayable",
      "type": "function"
    }
  ],
  "bytecode": "0x6080604052600160005534801561001557600080fd5b50612472806100256000396000f3fe608060405234801561001057600080fd5b50600436106100885760003560e01c80639c9ed59f1161005b5780639c9ed59f14610125578063c4bc397714610143578063f1afff5614610179578063f602b55c146101a957610088565b8063365c66a01461008d5780637d28c7de146100a9578063906374a8146100c5578063961e69ea146100f5575b600080fd5b6100a760048036038101906100a29190611297565b6101c5565b005b6100c360048036038101906100be91906115e8565b6102aa565b005b6100df60048036038101906100da9190611717565b610611565b6040516100ec9190611766565b60405180910390f35b61010f600480360381019061010a9190611781565b610642565b60405161011c9190611abc565b60405180910390f35b61012d610975565b60405161013a9190611b4d565b60405180910390f35b61015d60048036038101906101589190611781565b610a0a565b6040516101709796959493929190611be6565b60405180910390f35b610193600480360381019061018e9190611c63565b610bc1565b6040516101a09190611e2c565b60405180910390f35b6101c360048036038101906101be9190611781565b611034565b005b806002600084815260200190815260200160002060040160008282829054906101000a90046fffffffffffffffffffffffffffffffff166102069190611e7d565b92506101000a8154816fffffffffffffffffffffffffffffffff02191690836fffffffffffffffffffffffffffffffff160217905550817f68bde38859e54f5324143149657742ab33dc1d248bbd68795382aa56cc1b99426002600085815260200190815260200160002060040160009054906101000a90046fffffffffffffffffffffffffffffffff1660405161029e9190611ec1565b60405180910390a25050565b6040518061012001604052808b81526020018a815260200189898080601f016020809104026020016040519081016040528093929190818152602001838380828437600081840152601f19601f82011690508083019250505050505050815260200187878080601f016020809104026020016040519081016040528093929190818152602001838380828437600081840152601f19601f820116905080830192505050505050508152602001856fffffffffffffffffffffffffffffffff168152602001846fffffffffffffffffffffffffffffffff1681526020018363ffffffff1681526020018263ffffffff16815260200160011515815250600260008054815260200190815260200160002060008201518160000190805190602001906103d5929190611093565b5060208201518160010190805190602001906103f292919061111d565b50604082015181600201908161040891906120e8565b50606082015181600301908161041e91906120e8565b5060808201518160040160006101000a8154816fffffffffffffffffffffffffffffffff02191690836fffffffffffffffffffffffffffffffff16021790555060a08201518160040160106101000a8154816fffffffffffffffffffffffffffffffff02191690836fffffffffffffffffffffffffffffffff16021790555060c08201518160050160006101000a81548163ffffffff021916908363ffffffff16021790555060e08201518160050160046101000a81548163ffffffff021916908363ffffffff1602179055506101008201518160050160086101000a81548160ff021916908315150217905550905050600360003373ffffffffffffffffffffffffffffffffffffffff1673ffffffffffffffffffffffffffffffffffffffff168152602001908152602001600020600054908060018154018082558091505060019003906000526020600020016000909190919091505588604051610585919061224a565b60405180910390208a60405161059b91906122f1565b60405180910390206000547f71640371218fc8e85bd1492c05594fc477c44c756704ed359ca11ce43271bedf8b8b8b8b8b8b8b8b60016040516105e699989796959493929190612344565b60405180910390a4600080815480929190610600906123c5565b919050555050505050505050505050565b6003602052816000526040600020818154811061062d57600080fd5b90600052602060002001600091509150505481565b61064a61116a565b6002600083815260200190815260200160002060405180610120016040529081600082018054806020026020016040519081016040528092919081815260200182805480156106ee57602002820191906000526020600020905b8160009054906101000a900473ffffffffffffffffffffffffffffffffffffffff1673ffffffffffffffffffffffffffffffffffffffff16815260200190600101908083116106a4575b505050505081526020016001820180548060200260200160405190810160405280929190818152602001828054801561074657602002820191906000526020600020905b815481526020019060010190808311610732575b5050505050815260200160028201805461075f90611f0b565b80601f016020809104026020016040519081016040528092919081815260200182805461078b90611f0b565b80156107d85780601f106107ad576101008083540402835291602001916107d8565b820191906000526020600020905b8154815290600101906020018083116107bb57829003601f168201915b505050505081526020016003820180546107f190611f0b565b80601f016020809104026020016040519081016040528092919081815260200182805461081d90611f0b565b801561086a5780601f1061083f5761010080835404028352916020019161086a565b820191906000526020600020905b81548152906001019060200180831161084d57829003601f168201915b505050505081526020016004820160009054906101000a90046fffffffffffffffffffffffffffffffff166fffffffffffffffffffffffffffffffff166fffffffffffffffffffffffffffffffff1681526020016004820160109054906101000a90046fffffffffffffffffffffffffffffffff166fffffffffffffffffffffffffffffffff166fffffffffffffffffffffffffffffffff1681526020016005820160009054906101000a900463ffffffff1663ffffffff1663ffffffff1681526020016005820160049054906101000a900463ffffffff1663ffffffff1663ffffffff1681526020016005820160089054906101000a900460ff1615151515815250509050919050565b6060600360003373ffffffffffffffffffffffffffffffffffffffff1673ffffffffffffffffffffffffffffffffffffffff168152602001908152602001600020805480602002602001604051908101604052809291908181526020018280548015610a0057602002820191906000526020600020905b8154815260200190600101908083116109ec575b5050505050905090565b6002602052806000526040600020600091509050806002018054610a2d90611f0b565b80601f0160208091040260200160405190810160405280929190818152602001828054610a5990611f0b565b8015610aa65780601f10610a7b57610100808354040283529160200191610aa6565b820191906000526020600020905b815481529060010190602001808311610a8957829003601f168201915b505050505090806003018054610abb90611f0b565b80601f0160208091040260200160405190810160405280929190818152602001828054610ae790611f0b565b8015610b345780601f10610b0957610100808354040283529160200191610b34565b820191906000526020600020905b815481529060010190602001808311610b1757829003601f168201915b5050505050908060040160009054906101000a90046fffffffffffffffffffffffffffffffff16908060040160109054906101000a90046fffffffffffffffffffffffffffffffff16908060050160009054906101000a900463ffffffff16908060050160049054906101000a900463ffffffff16908060050160089054906101000a900460ff16905087565b60606000600360008473ffffffffffffffffffffffffffffffffffffffff1673ffffffffffffffffffffffffffffffffffffffff168152602001908152602001600020805480602002602001604051908101604052809291908181526020018280548015610c4e57602002820191906000526020600020905b815481526020019060010190808311610c3a575b505050505090506000815167ffffffffffffffff811115610c7257610c716112ed565b5b604051908082528060200260200182016040528015610cab57816020015b610c9861116a565b815260200190600190039081610c905790505b50905060005b82518110156110295760026000848381518110610cd157610cd061240d565b5b602002602001015181526020019081526020016000206040518061012001604052908160008201805480602002602001604051908101604052809291908181526020018280548015610d7857602002820191906000526020600020905b8160009054906101000a900473ffffffffffffffffffffffffffffffffffffffff1673ffffffffffffffffffffffffffffffffffffffff1681526020019060010190808311610d2e575b5050505050815260200160018201805480602002602001604051908101604052809291908181526020018280548015610dd057602002820191906000526020600020905b815481526020019060010190808311610dbc575b50505050508152602001600282018054610de990611f0b565b80601f0160208091040260200160405190810160405280929190818152602001828054610e1590611f0b565b8015610e625780601f10610e3757610100808354040283529160200191610e62565b820191906000526020600020905b815481529060010190602001808311610e4557829003601f168201915b50505050508152602001600382018054610e7b90611f0b565b80601f0160208091040260200160405190810160405280929190818152602001828054610ea790611f0b565b8015610ef45780601f10610ec957610100808354040283529160200191610ef4565b820191906000526020600020905b815481529060010190602001808311610ed757829003601f168201915b505050505081526020016004820160009054906101000a90046fffffffffffffffffffffffffffffffff166fffffffffffffffffffffffffffffffff166fffffffffffffffffffffffffffffffff1681526020016004820160109054906101000a90046fffffffffffffffffffffffffffffffff166fffffffffffffffffffffffffffffffff166fffffffffffffffffffffffffffffffff1681526020016005820160009054906101000a900463ffffffff1663ffffffff1663ffffffff1681526020016005820160049054906101000a900463ffffffff1663ffffffff1663ffffffff1681526020016005820160089054906101000a900460ff16151515158152505082828151811061100b5761100a61240d565b5b60200260200101819052508080611021906123c5565b915050610cb1565b508092505050919050565b60006002600083815260200190815260200160002060050160086101000a81548160ff021916908315150217905550807f0e998fc65a4459eb15332384e57a24f5672951bfdd9b2804cc635dd4ad0a10cd60405160405180910390a250565b82805482825590600052602060002090810192821561110c579160200282015b8281111561110b5782518260006101000a81548173ffffffffffffffffffffffffffffffffffffffff021916908373ffffffffffffffffffffffffffffffffffffffff160217905550916020019190600101906110b3565b5b50905061111991906111e8565b5090565b828054828255906000526020600020908101928215611159579160200282015b8281111561115857825182559160200191906001019061113d565b5b50905061116691906111e8565b5090565b6040518061012001604052806060815260200160608152602001606081526020016060815260200160006fffffffffffffffffffffffffffffffff16815260200160006fffffffffffffffffffffffffffffffff168152602001600063ffffffff168152602001600063ffffffff1681526020016000151581525090565b5b808211156112015760008160009055506001016111e9565b5090565b6000604051905090565b600080fd5b600080fd5b6000819050919050565b61122c81611219565b811461123757600080fd5b50565b60008135905061124981611223565b92915050565b60006fffffffffffffffffffffffffffffffff82169050919050565b6112748161124f565b811461127f57600080fd5b50565b6000813590506112918161126b565b92915050565b600080604083850312156112ae576112ad61120f565b5b60006112bc8582860161123a565b92505060206112cd85828601611282565b9150509250929050565b600080fd5b6000601f19601f8301169050919050565b7f4e487b7100000000000000000000000000000000000000000000000000000000600052604160045260246000fd5b611325826112dc565b810181811067ffffffffffffffff82111715611344576113436112ed565b5b80604052505050565b6000611357611205565b9050611363828261131c565b919050565b600067ffffffffffffffff821115611383576113826112ed565b5b602082029050602081019050919050565b600080fd5b600073ffffffffffffffffffffffffffffffffffffffff82169050919050565b60006113c482611399565b9050919050565b6113d4816113b9565b81146113df57600080fd5b50565b6000813590506113f1816113cb565b92915050565b600061140a61140584611368565b61134d565b9050808382526020820190506020840283018581111561142d5761142c611394565b5b835b81811015611456578061144288826113e2565b84526020840193505060208101905061142f565b5050509392505050565b600082601f830112611475576114746112d7565b5b81356114858482602086016113f7565b91505092915050565b600067ffffffffffffffff8211156114a9576114a86112ed565b5b602082029050602081019050919050565b60006114cd6114c88461148e565b61134d565b905080838252602082019050602084028301858111156114f0576114ef611394565b5b835b818110156115195780611505888261123a565b8452602084019350506020810190506114f2565b5050509392505050565b600082601f830112611538576115376112d7565b5b81356115488482602086016114ba565b91505092915050565b600080fd5b60008083601f84011261156c5761156b6112d7565b5b8235905067ffffffffffffffff81111561158957611588611551565b5b6020830191508360018202830111156115a5576115a4611394565b5b9250929050565b600063ffffffff82169050919050565b6115c5816115ac565b81146115d057600080fd5b50565b6000813590506115e2816115bc565b92915050565b6000806000806000806000806000806101008b8d03121561160c5761160b61120f565b5b60008b013567ffffffffffffffff81111561162a57611629611214565b5b6116368d828e01611460565b9a505060208b013567ffffffffffffffff81111561165757611656611214565b5b6116638d828e01611523565b99505060408b013567ffffffffffffffff81111561168457611683611214565b5b6116908d828e01611556565b985098505060608b013567ffffffffffffffff8111156116b3576116b2611214565b5b6116bf8d828e01611556565b965096505060806116d28d828e01611282565b94505060a06116e38d828e01611282565b93505060c06116f48d828e016115d3565b92505060e06117058d828e016115d3565b9150509295989b9194979a5092959850565b6000806040838503121561172e5761172d61120f565b5b600061173c858286016113e2565b925050602061174d8582860161123a565b9150509250929050565b61176081611219565b82525050565b600060208201905061177b6000830184611757565b92915050565b6000602082840312156117975761179661120f565b5b60006117a58482850161123a565b91505092915050565b600081519050919050565b600082825260208201905092915050565b6000819050602082019050919050565b6117e3816113b9565b82525050565b60006117f583836117da565b60208301905092915050565b6000602082019050919050565b6000611819826117ae565b61182381856117b9565b935061182e836117ca565b8060005b8381101561185f57815161184688826117e9565b975061185183611801565b925050600181019050611832565b5085935050505092915050565b600081519050919050565b600082825260208201905092915050565b6000819050602082019050919050565b6118a181611219565b82525050565b60006118b38383611898565b60208301905092915050565b6000602082019050919050565b60006118d78261186c565b6118e18185611877565b93506118ec83611888565b8060005b8381101561191d57815161190488826118a7565b975061190f836118bf565b9250506001810190506118f0565b5085935050505092915050565b600081519050919050565b600082825260208201905092915050565b60005b83811015611964578082015181840152602081019050611949565b60008484015250505050565b600061197b8261192a565b6119858185611935565b9350611995818560208601611946565b61199e816112dc565b840191505092915050565b6119b28161124f565b82525050565b6119c1816115ac565b82525050565b60008115159050919050565b6119dc816119c7565b82525050565b6000610120830160008301518482036000860152611a00828261180e565b91505060208301518482036020860152611a1a82826118cc565b91505060408301518482036040860152611a348282611970565b91505060608301518482036060860152611a4e8282611970565b9150506080830151611a6360808601826119a9565b5060a0830151611a7660a08601826119a9565b5060c0830151611a8960c08601826119b8565b5060e0830151611a9c60e08601826119b8565b50610100830151611ab16101008601826119d3565b508091505092915050565b60006020820190508181036000830152611ad681846119e2565b905092915050565b600082825260208201905092915050565b6000611afa8261186c565b611b048185611ade565b9350611b0f83611888565b8060005b83811015611b40578151611b2788826118a7565b9750611b32836118bf565b925050600181019050611b13565b5085935050505092915050565b60006020820190508181036000830152611b678184611aef565b905092915050565b600082825260208201905092915050565b6000611b8b8261192a565b611b958185611b6f565b9350611ba5818560208601611946565b611bae816112dc565b840191505092915050565b611bc28161124f565b82525050565b611bd1816115ac565b82525050565b611be0816119c7565b82525050565b600060e0820190508181036000830152611c00818a611b80565b90508181036020830152611c148189611b80565b9050611c236040830188611bb9565b611c306060830187611bb9565b611c3d6080830186611bc8565b611c4a60a0830185611bc8565b611c5760c0830184611bd7565b98975050505050505050565b600060208284031215611c7957611c7861120f565b5b6000611c87848285016113e2565b91505092915050565b600081519050919050565b600082825260208201905092915050565b6000819050602082019050919050565b6000610120830160008301518482036000860152611cda828261180e565b91505060208301518482036020860152611cf482826118cc565b91505060408301518482036040860152611d0e8282611970565b91505060608301518482036060860152611d288282611970565b9150506080830151611d3d60808601826119a9565b5060a0830151611d5060a08601826119a9565b5060c0830151611d6360c08601826119b8565b5060e0830151611d7660e08601826119b8565b50610100830151611d8b6101008601826119d3565b508091505092915050565b6000611da28383611cbc565b905092915050565b6000602082019050919050565b6000611dc282611c90565b611dcc8185611c9b565b935083602082028501611dde85611cac565b8060005b85811015611e1a5784840389528151611dfb8582611d96565b9450611e0683611daa565b925060208a01995050600181019050611de2565b50829750879550505050505092915050565b60006020820190508181036000830152611e468184611db7565b905092915050565b7f4e487b7100000000000000000000000000000000000000000000000000000000600052601160045260246000fd5b6000611e888261124f565b9150611e938361124f565b925082820390506fffffffffffffffffffffffffffffffff811115611ebb57611eba611e4e565b5b92915050565b6000602082019050611ed66000830184611bb9565b92915050565b7f4e487b7100000000000000000000000000000000000000000000000000000000600052602260045260246000fd5b60006002820490506001821680611f2357607f821691505b602082108103611f3657611f35611edc565b5b50919050565b60008190508160005260206000209050919050565b60006020601f8301049050919050565b600082821b905092915050565b600060088302611f9e7fffffffffffffffffffffffffffffffffffffffffffffffffffffffffffffffff82611f61565b611fa88683611f61565b95508019841693508086168417925050509392505050565b6000819050919050565b6000611fe5611fe0611fdb84611219565b611fc0565b611219565b9050919050565b6000819050919050565b611fff83611fca565b61201361200b82611fec565b848454611f6e565b825550505050565b600090565b61202861201b565b612033818484611ff6565b505050565b5b818110156120575761204c600082612020565b600181019050612039565b5050565b601f82111561209c5761206d81611f3c565b61207684611f51565b81016020851015612085578190505b61209961209185611f51565b830182612038565b50505b505050565b600082821c905092915050565b60006120bf600019846008026120a1565b1980831691505092915050565b60006120d883836120ae565b9150826002028217905092915050565b6120f18261192a565b67ffffffffffffffff81111561210a576121096112ed565b5b6121148254611f0b565b61211f82828561205b565b600060209050601f8311600181146121525760008415612140578287015190505b61214a85826120cc565b8655506121b2565b601f19841661216086611f3c565b60005b8281101561218857848901518255600182019150602085019450602081019050612163565b868310156121a557848901516121a1601f8916826120ae565b8355505b6001600288020188555050505b505050505050565b600081905092915050565b6121ce81611219565b82525050565b60006121e083836121c5565b60208301905092915050565b60006121f78261186c565b61220181856121ba565b935061220c83611888565b8060005b8381101561223d57815161222488826121d4565b975061222f836118bf565b925050600181019050612210565b5085935050505092915050565b600061225682846121ec565b915081905092915050565b600081905092915050565b612275816113b9565b82525050565b6000612287838361226c565b60208301905092915050565b600061229e826117ae565b6122a88185612261565b93506122b3836117ca565b8060005b838110156122e45781516122cb888261227b565b97506122d683611801565b9250506001810190506122b7565b5085935050505092915050565b60006122fd8284612293565b915081905092915050565b82818337600083830152505050565b60006123238385611b6f565b9350612330838584612308565b612339836112dc565b840190509392505050565b600060e082019050818103600083015261235f818b8d612317565b9050818103602083015261237481898b612317565b90506123836040830188611bb9565b6123906060830187611bb9565b61239d6080830186611bc8565b6123aa60a0830185611bc8565b6123b760c0830184611bd7565b9a9950505050505050505050565b60006123d082611219565b91507fffffffffffffffffffffffffffffffffffffffffffffffffffffffffffffffff820361240257612401611e4e565b5b600182019050919050565b7f4e487b7100000000000000000000000000000000000000000000000000000000600052603260045260246000fdfea26469706673582212203c9c0abe7c8a962d7044c82e5a83d856e5d216bc3718acb5564585dc467f331d64736f6c63430008120033",
  "linkReferences": {},
  "deployedLinkReferences": {}
}