{
  "_format": "hh-sol-artifact-1",
  "contractName": "manufacturerDistributor",
  "sourceName": "contracts/manufacturerDistributor.sol",
  "abi": [
    {
      "anonymous": false,
      "inputs": [
        {
          "indexed": false,
          "internalType": "uint32",
          "name": "_arrivalTime",
          "type": "uint32"
        }
      ],
      "name": "eventArrivalTime",
      "type": "event"
    },
    {
      "anonymous": false,
      "inputs": [
        {
          "indexed": true,
          "internalType": "uint256",
          "name": "_mdId",
          "type": "uint256"
        },
        {
          "indexed": true,
          "internalType": "uint256",
          "name": "_mpId",
          "type": "uint256"
        },
        {
          "indexed": false,
          "internalType": "address",
          "name": "_manufacturerAddress",
          "type": "address"
        },
        {
          "indexed": false,
          "internalType": "address",
          "name": "_distributorAddress",
          "type": "address"
        },
        {
          "indexed": false,
          "internalType": "uint32",
          "name": "_dispatchTime",
          "type": "uint32"
        }
      ],
      "name": "eventManufacturerDistributorTransfer",
      "type": "event"
    },
    {
      "inputs": [
        {
          "internalType": "address",
          "name": "",
          "type": "address"
        },
        {
          "internalType": "uint256",
          "name": "",
          "type": "uint256"
        }
      ],
      "name": "distributorTosmIDMapping",
      "outputs": [
        {
          "internalType": "uint256",
          "name": "",
          "type": "uint256"
        }
      ],
      "stateMutability": "view",
      "type": "function"
    },
    {
      "inputs": [
        {
          "internalType": "address",
          "name": "_distributorAddress",
          "type": "address"
        }
      ],
      "name": "getAllmdIdForManufacturer",
      "outputs": [
        {
          "components": [
            {
              "internalType": "uint256",
              "name": "mpId",
              "type": "uint256"
            },
            {
              "internalType": "address",
              "name": "m_address",
              "type": "address"
            },
            {
              "internalType": "address",
              "name": "d_address",
              "type": "address"
            },
            {
              "internalType": "uint32",
              "name": "dispatchTime",
              "type": "uint32"
            },
            {
              "internalType": "uint32",
              "name": "arrivalTime",
              "type": "uint32"
            }
          ],
          "internalType": "struct IManufacturerDistributor.manufacturerDistributor[]",
          "name": "",
          "type": "tuple[]"
        }
      ],
      "stateMutability": "view",
      "type": "function"
    },
    {
      "inputs": [
        {
          "internalType": "uint256",
          "name": "_mdid",
          "type": "uint256"
        }
      ],
      "name": "getProduct",
      "outputs": [
        {
          "components": [
            {
              "internalType": "uint256",
              "name": "mpId",
              "type": "uint256"
            },
            {
              "internalType": "address",
              "name": "m_address",
              "type": "address"
            },
            {
              "internalType": "address",
              "name": "d_address",
              "type": "address"
            },
            {
              "internalType": "uint32",
              "name": "dispatchTime",
              "type": "uint32"
            },
            {
              "internalType": "uint32",
              "name": "arrivalTime",
              "type": "uint32"
            }
          ],
          "internalType": "struct IManufacturerDistributor.manufacturerDistributor",
          "name": "",
          "type": "tuple"
        }
      ],
      "stateMutability": "view",
      "type": "function"
    },
    {
      "inputs": [],
      "name": "mdId",
      "outputs": [
        {
          "internalType": "uint256",
          "name": "",
          "type": "uint256"
        }
      ],
      "stateMutability": "view",
      "type": "function"
    },
    {
      "inputs": [
        {
          "internalType": "uint256",
          "name": "",
          "type": "uint256"
        }
      ],
      "name": "mdidToStructMapping",
      "outputs": [
        {
          "internalType": "uint256",
          "name": "mpId",
          "type": "uint256"
        },
        {
          "internalType": "address",
          "name": "m_address",
          "type": "address"
        },
        {
          "internalType": "address",
          "name": "d_address",
          "type": "address"
        },
        {
          "internalType": "uint32",
          "name": "dispatchTime",
          "type": "uint32"
        },
        {
          "internalType": "uint32",
          "name": "arrivalTime",
          "type": "uint32"
        }
      ],
      "stateMutability": "view",
      "type": "function"
    },
    {
      "inputs": [
        {
          "internalType": "uint256",
          "name": "_mdId",
          "type": "uint256"
        }
      ],
      "name": "receiveProduct",
      "outputs": [],
      "stateMutability": "nonpayable",
      "type": "function"
    },
    {
      "inputs": [
        {
          "internalType": "uint256",
          "name": "_mpId",
          "type": "uint256"
        },
        {
          "internalType": "address",
          "name": "_manufacturerAddress",
          "type": "address"
        },
        {
          "internalType": "address",
          "name": "_distributorAddress",
          "type": "address"
        },
        {
          "internalType": "uint32",
          "name": "_dispatchTime",
          "type": "uint32"
        },
        {
          "internalType": "uint32",
          "name": "_arrivalTime",
          "type": "uint32"
        }
      ],
      "name": "transferproduct",
      "outputs": [],
      "stateMutability": "nonpayable",
      "type": "function"
    }
  ],
  "bytecode": "0x6080604052600160005534801561001557600080fd5b50610ec9806100256000396000f3fe608060405234801561001057600080fd5b506004361061007d5760003560e01c8063b9db15b41161005b578063b9db15b4146100fe578063c7414bee1461012e578063cb59d4301461014a578063e3eba9041461017e5761007d565b806329d783281461008257806383f48c961461009e57806396fccba4146100ce575b600080fd5b61009c60048036038101906100979190610939565b61019c565b005b6100b860048036038101906100b391906109c4565b61020b565b6040516100c59190610a13565b60405180910390f35b6100e860048036038101906100e39190610a2e565b61023c565b6040516100f59190610baf565b60405180910390f35b61011860048036038101906101139190610939565b6104ab565b6040516101259190610c39565b60405180910390f35b61014860048036038101906101439190610c80565b6105da565b005b610164600480360381019061015f9190610939565b6107fb565b604051610175959493929190610d19565b60405180910390f35b610186610891565b6040516101939190610a13565b60405180910390f35b426002600083815260200190815260200160002060020160186101000a81548163ffffffff021916908363ffffffff1602179055507f64e64e323422dcfed18a892f84596ccf7cc94b1952625f3cc82e6461b529fff1426040516102009190610d6c565b60405180910390a150565b6003602052816000526040600020818154811061022757600080fd5b90600052602060002001600091509150505481565b60606000600360008473ffffffffffffffffffffffffffffffffffffffff1673ffffffffffffffffffffffffffffffffffffffff1681526020019081526020016000208054806020026020016040519081016040528092919081815260200182805480156102c957602002820191906000526020600020905b8154815260200190600101908083116102b5575b505050505090506000815167ffffffffffffffff8111156102ed576102ec610d87565b5b60405190808252806020026020018201604052801561032657816020015b610313610897565b81526020019060019003908161030b5790505b50905060005b82518110156104a0576002600084838151811061034c5761034b610db6565b5b602002602001015181526020019081526020016000206040518060a0016040529081600082015481526020016001820160009054906101000a900473ffffffffffffffffffffffffffffffffffffffff1673ffffffffffffffffffffffffffffffffffffffff1673ffffffffffffffffffffffffffffffffffffffff1681526020016002820160009054906101000a900473ffffffffffffffffffffffffffffffffffffffff1673ffffffffffffffffffffffffffffffffffffffff1673ffffffffffffffffffffffffffffffffffffffff1681526020016002820160149054906101000a900463ffffffff1663ffffffff1663ffffffff1681526020016002820160189054906101000a900463ffffffff1663ffffffff1663ffffffff168152505082828151811061048257610481610db6565b5b6020026020010181905250808061049890610e14565b91505061032c565b508092505050919050565b6104b3610897565b600260008381526020019081526020016000206040518060a0016040529081600082015481526020016001820160009054906101000a900473ffffffffffffffffffffffffffffffffffffffff1673ffffffffffffffffffffffffffffffffffffffff1673ffffffffffffffffffffffffffffffffffffffff1681526020016002820160009054906101000a900473ffffffffffffffffffffffffffffffffffffffff1673ffffffffffffffffffffffffffffffffffffffff1673ffffffffffffffffffffffffffffffffffffffff1681526020016002820160149054906101000a900463ffffffff1663ffffffff1663ffffffff1681526020016002820160189054906101000a900463ffffffff1663ffffffff1663ffffffff16815250509050919050565b6040518060a001604052808681526020018573ffffffffffffffffffffffffffffffffffffffff1681526020018473ffffffffffffffffffffffffffffffffffffffff1681526020018363ffffffff1681526020018263ffffffff1681525060026000805481526020019081526020016000206000820151816000015560208201518160010160006101000a81548173ffffffffffffffffffffffffffffffffffffffff021916908373ffffffffffffffffffffffffffffffffffffffff16021790555060408201518160020160006101000a81548173ffffffffffffffffffffffffffffffffffffffff021916908373ffffffffffffffffffffffffffffffffffffffff16021790555060608201518160020160146101000a81548163ffffffff021916908363ffffffff16021790555060808201518160020160186101000a81548163ffffffff021916908363ffffffff160217905550905050600360008473ffffffffffffffffffffffffffffffffffffffff1673ffffffffffffffffffffffffffffffffffffffff1681526020019081526020016000206000549080600181540180825580915050600190039060005260206000200160009091909190915055846000547f3d9c6d7fedf256315259fe8cb6863117af8f4a56f16c0767d72c06359e16e5338686866040516107d593929190610e5c565b60405180910390a36000808154809291906107ef90610e14565b91905055505050505050565b60026020528060005260406000206000915090508060000154908060010160009054906101000a900473ffffffffffffffffffffffffffffffffffffffff16908060020160009054906101000a900473ffffffffffffffffffffffffffffffffffffffff16908060020160149054906101000a900463ffffffff16908060020160189054906101000a900463ffffffff16905085565b60005481565b6040518060a0016040528060008152602001600073ffffffffffffffffffffffffffffffffffffffff168152602001600073ffffffffffffffffffffffffffffffffffffffff168152602001600063ffffffff168152602001600063ffffffff1681525090565b600080fd5b6000819050919050565b61091681610903565b811461092157600080fd5b50565b6000813590506109338161090d565b92915050565b60006020828403121561094f5761094e6108fe565b5b600061095d84828501610924565b91505092915050565b600073ffffffffffffffffffffffffffffffffffffffff82169050919050565b600061099182610966565b9050919050565b6109a181610986565b81146109ac57600080fd5b50565b6000813590506109be81610998565b92915050565b600080604083850312156109db576109da6108fe565b5b60006109e9858286016109af565b92505060206109fa85828601610924565b9150509250929050565b610a0d81610903565b82525050565b6000602082019050610a286000830184610a04565b92915050565b600060208284031215610a4457610a436108fe565b5b6000610a52848285016109af565b91505092915050565b600081519050919050565b600082825260208201905092915050565b6000819050602082019050919050565b610a9081610903565b82525050565b610a9f81610986565b82525050565b600063ffffffff82169050919050565b610abe81610aa5565b82525050565b60a082016000820151610ada6000850182610a87565b506020820151610aed6020850182610a96565b506040820151610b006040850182610a96565b506060820151610b136060850182610ab5565b506080820151610b266080850182610ab5565b50505050565b6000610b388383610ac4565b60a08301905092915050565b6000602082019050919050565b6000610b5c82610a5b565b610b668185610a66565b9350610b7183610a77565b8060005b83811015610ba2578151610b898882610b2c565b9750610b9483610b44565b925050600181019050610b75565b5085935050505092915050565b60006020820190508181036000830152610bc98184610b51565b905092915050565b60a082016000820151610be76000850182610a87565b506020820151610bfa6020850182610a96565b506040820151610c0d6040850182610a96565b506060820151610c206060850182610ab5565b506080820151610c336080850182610ab5565b50505050565b600060a082019050610c4e6000830184610bd1565b92915050565b610c5d81610aa5565b8114610c6857600080fd5b50565b600081359050610c7a81610c54565b92915050565b600080600080600060a08688031215610c9c57610c9b6108fe565b5b6000610caa88828901610924565b9550506020610cbb888289016109af565b9450506040610ccc888289016109af565b9350506060610cdd88828901610c6b565b9250506080610cee88828901610c6b565b9150509295509295909350565b610d0481610986565b82525050565b610d1381610aa5565b82525050565b600060a082019050610d2e6000830188610a04565b610d3b6020830187610cfb565b610d486040830186610cfb565b610d556060830185610d0a565b610d626080830184610d0a565b9695505050505050565b6000602082019050610d816000830184610d0a565b92915050565b7f4e487b7100000000000000000000000000000000000000000000000000000000600052604160045260246000fd5b7f4e487b7100000000000000000000000000000000000000000000000000000000600052603260045260246000fd5b7f4e487b7100000000000000000000000000000000000000000000000000000000600052601160045260246000fd5b6000610e1f82610903565b91507fffffffffffffffffffffffffffffffffffffffffffffffffffffffffffffffff8203610e5157610e50610de5565b5b600182019050919050565b6000606082019050610e716000830186610cfb565b610e7e6020830185610cfb565b610e8b6040830184610d0a565b94935050505056fea264697066735822122071a9248f94e2cf30be5cb7e11471aab01226c4bea93e8f0d81810024e9ed4a1564736f6c63430008130033",
  "linkReferences": {},
  "deployedLinkReferences": {}
}