{
  "_format": "hh-sol-artifact-1",
  "contractName": "userDetails",
  "sourceName": "contracts/userDetails.sol",
  "abi": [
    {
      "anonymous": false,
      "inputs": [
        {
          "indexed": false,
          "internalType": "address",
          "name": "_address",
          "type": "address"
        }
      ],
      "name": "eventDeleteUser",
      "type": "event"
    },
    {
      "anonymous": false,
      "inputs": [
        {
          "indexed": false,
          "internalType": "address",
          "name": "_address",
          "type": "address"
        },
        {
          "indexed": false,
          "internalType": "enum IUserDetails.userType",
          "name": "_type",
          "type": "uint8"
        },
        {
          "indexed": false,
          "internalType": "bytes",
          "name": "_name",
          "type": "bytes"
        },
        {
          "indexed": false,
          "internalType": "bytes",
          "name": "_physicalAddress",
          "type": "bytes"
        },
        {
          "indexed": false,
          "internalType": "bytes",
          "name": "_image",
          "type": "bytes"
        },
        {
          "indexed": false,
          "internalType": "uint256",
          "name": "_timeUpdated",
          "type": "uint256"
        }
      ],
      "name": "eventUserData",
      "type": "event"
    },
    {
      "inputs": [
        {
          "internalType": "enum IUserDetails.userType",
          "name": "_type",
          "type": "uint8"
        },
        {
          "internalType": "bytes",
          "name": "_name",
          "type": "bytes"
        },
        {
          "internalType": "bytes",
          "name": "_physicalAddress",
          "type": "bytes"
        },
        {
          "internalType": "bytes",
          "name": "_image",
          "type": "bytes"
        }
      ],
      "name": "addUser",
      "outputs": [],
      "stateMutability": "nonpayable",
      "type": "function"
    },
    {
      "inputs": [
        {
          "internalType": "address",
          "name": "_address",
          "type": "address"
        }
      ],
      "name": "deleteUser",
      "outputs": [],
      "stateMutability": "nonpayable",
      "type": "function"
    },
    {
      "inputs": [
        {
          "internalType": "uint256",
          "name": "",
          "type": "uint256"
        }
      ],
      "name": "distributors",
      "outputs": [
        {
          "internalType": "address",
          "name": "",
          "type": "address"
        }
      ],
      "stateMutability": "view",
      "type": "function"
    },
    {
      "inputs": [
        {
          "internalType": "bytes",
          "name": "_image",
          "type": "bytes"
        }
      ],
      "name": "editImage",
      "outputs": [],
      "stateMutability": "nonpayable",
      "type": "function"
    },
    {
      "inputs": [
        {
          "internalType": "bytes",
          "name": "_name",
          "type": "bytes"
        }
      ],
      "name": "editName",
      "outputs": [],
      "stateMutability": "nonpayable",
      "type": "function"
    },
    {
      "inputs": [
        {
          "internalType": "bytes",
          "name": "_physicalAddress",
          "type": "bytes"
        }
      ],
      "name": "editPhysicalAddress",
      "outputs": [],
      "stateMutability": "nonpayable",
      "type": "function"
    },
    {
      "inputs": [],
      "name": "getAllDistributors",
      "outputs": [
        {
          "components": [
            {
              "internalType": "enum IUserDetails.userType",
              "name": "userType",
              "type": "uint8"
            },
            {
              "internalType": "bytes",
              "name": "userName",
              "type": "bytes"
            },
            {
              "internalType": "bytes",
              "name": "userPhysicalAddress",
              "type": "bytes"
            },
            {
              "internalType": "bytes",
              "name": "userImage",
              "type": "bytes"
            }
          ],
          "internalType": "struct IUserDetails.userDetails[]",
          "name": "",
          "type": "tuple[]"
        }
      ],
      "stateMutability": "view",
      "type": "function"
    },
    {
      "inputs": [],
      "name": "getAllManufacturers",
      "outputs": [
        {
          "components": [
            {
              "internalType": "enum IUserDetails.userType",
              "name": "userType",
              "type": "uint8"
            },
            {
              "internalType": "bytes",
              "name": "userName",
              "type": "bytes"
            },
            {
              "internalType": "bytes",
              "name": "userPhysicalAddress",
              "type": "bytes"
            },
            {
              "internalType": "bytes",
              "name": "userImage",
              "type": "bytes"
            }
          ],
          "internalType": "struct IUserDetails.userDetails[]",
          "name": "",
          "type": "tuple[]"
        }
      ],
      "stateMutability": "view",
      "type": "function"
    },
    {
      "inputs": [],
      "name": "getAllSuppliers",
      "outputs": [
        {
          "components": [
            {
              "internalType": "enum IUserDetails.userType",
              "name": "userType",
              "type": "uint8"
            },
            {
              "internalType": "bytes",
              "name": "userName",
              "type": "bytes"
            },
            {
              "internalType": "bytes",
              "name": "userPhysicalAddress",
              "type": "bytes"
            },
            {
              "internalType": "bytes",
              "name": "userImage",
              "type": "bytes"
            }
          ],
          "internalType": "struct IUserDetails.userDetails[]",
          "name": "",
          "type": "tuple[]"
        }
      ],
      "stateMutability": "view",
      "type": "function"
    },
    {
      "inputs": [],
      "name": "getAllUsers",
      "outputs": [
        {
          "components": [
            {
              "internalType": "enum IUserDetails.userType",
              "name": "userType",
              "type": "uint8"
            },
            {
              "internalType": "bytes",
              "name": "userName",
              "type": "bytes"
            },
            {
              "internalType": "bytes",
              "name": "userPhysicalAddress",
              "type": "bytes"
            },
            {
              "internalType": "bytes",
              "name": "userImage",
              "type": "bytes"
            }
          ],
          "internalType": "struct IUserDetails.userDetails[]",
          "name": "",
          "type": "tuple[]"
        }
      ],
      "stateMutability": "view",
      "type": "function"
    },
    {
      "inputs": [
        {
          "internalType": "address",
          "name": "_address",
          "type": "address"
        }
      ],
      "name": "getSingleUser",
      "outputs": [
        {
          "components": [
            {
              "internalType": "enum IUserDetails.userType",
              "name": "userType",
              "type": "uint8"
            },
            {
              "internalType": "bytes",
              "name": "userName",
              "type": "bytes"
            },
            {
              "internalType": "bytes",
              "name": "userPhysicalAddress",
              "type": "bytes"
            },
            {
              "internalType": "bytes",
              "name": "userImage",
              "type": "bytes"
            }
          ],
          "internalType": "struct IUserDetails.userDetails",
          "name": "",
          "type": "tuple"
        }
      ],
      "stateMutability": "view",
      "type": "function"
    },
    {
      "inputs": [
        {
          "internalType": "uint256",
          "name": "",
          "type": "uint256"
        }
      ],
      "name": "manufacturers",
      "outputs": [
        {
          "internalType": "address",
          "name": "",
          "type": "address"
        }
      ],
      "stateMutability": "view",
      "type": "function"
    },
    {
      "inputs": [
        {
          "internalType": "uint256",
          "name": "",
          "type": "uint256"
        }
      ],
      "name": "suppliers",
      "outputs": [
        {
          "internalType": "address",
          "name": "",
          "type": "address"
        }
      ],
      "stateMutability": "view",
      "type": "function"
    },
    {
      "inputs": [
        {
          "internalType": "address",
          "name": "",
          "type": "address"
        }
      ],
      "name": "userDetailsMapping",
      "outputs": [
        {
          "internalType": "enum IUserDetails.userType",
          "name": "userType",
          "type": "uint8"
        },
        {
          "internalType": "bytes",
          "name": "userName",
          "type": "bytes"
        },
        {
          "internalType": "bytes",
          "name": "userPhysicalAddress",
          "type": "bytes"
        },
        {
          "internalType": "bytes",
          "name": "userImage",
          "type": "bytes"
        }
      ],
      "stateMutability": "view",
      "type": "function"
    },
    {
      "inputs": [
        {
          "internalType": "uint256",
          "name": "",
          "type": "uint256"
        }
      ],
      "name": "users",
      "outputs": [
        {
          "internalType": "address",
          "name": "",
          "type": "address"
        }
      ],
      "stateMutability": "view",
      "type": "function"
    }
  ],
  "bytecode": "0x608060405234801561001057600080fd5b50612fff806100206000396000f3fe608060405234801561001057600080fd5b50600436106100f55760003560e01c80638e24c34b11610097578063cea2312111610066578063cea2312114610299578063d1bab143146102c9578063ddba07a4146102e5578063e2842d7914610303576100f5565b80638e24c34b1461021157806390175af11461022f5780639ae7d0081461025f578063b53305dc1461027b576100f5565b806350b492ba116100d357806350b492ba146101765780635166608f146101a65780635c60f226146101d95780636a26d064146101f5576100f5565b80630c6c92ba146100fa5780633585254114610116578063365b98b214610146575b600080fd5b610114600480360381019061010f9190612462565b610321565b005b610130600480360381019061012b9190612509565b6105ff565b60405161013d919061269d565b60405180910390f35b610160600480360381019061015b91906126f5565b610848565b60405161016d9190612731565b60405180910390f35b610190600480360381019061018b91906126f5565b610887565b60405161019d9190612731565b60405180910390f35b6101c060048036038101906101bb9190612509565b6108c6565b6040516101d094939291906127a5565b60405180910390f35b6101f360048036038101906101ee9190612509565b610a9b565b005b61020f600480360381019061020a9190612462565b610b5a565b005b610219610e38565b6040516102269190612932565b60405180910390f35b610249600480360381019061024491906126f5565b611158565b6040516102569190612731565b60405180910390f35b610279600480360381019061027491906129d9565b611197565b005b6102836115f4565b6040516102909190612932565b60405180910390f35b6102b360048036038101906102ae91906126f5565b611914565b6040516102c09190612731565b60405180910390f35b6102e360048036038101906102de9190612462565b611953565b005b6102ed611c31565b6040516102fa9190612932565b60405180910390f35b61030b611f51565b6040516103189190612932565b60405180910390f35b806000803373ffffffffffffffffffffffffffffffffffffffff1673ffffffffffffffffffffffffffffffffffffffff168152602001908152602001600020600101908161036f9190612ca8565b5060008060003373ffffffffffffffffffffffffffffffffffffffff1673ffffffffffffffffffffffffffffffffffffffff1681526020019081526020016000206040518060800160405290816000820160009054906101000a900460ff1660028111156103e0576103df612536565b5b60028111156103f2576103f1612536565b5b815260200160018201805461040690612acb565b80601f016020809104026020016040519081016040528092919081815260200182805461043290612acb565b801561047f5780601f106104545761010080835404028352916020019161047f565b820191906000526020600020905b81548152906001019060200180831161046257829003601f168201915b5050505050815260200160028201805461049890612acb565b80601f01602080910402602001604051908101604052809291908181526020018280546104c490612acb565b80156105115780601f106104e657610100808354040283529160200191610511565b820191906000526020600020905b8154815290600101906020018083116104f457829003601f168201915b5050505050815260200160038201805461052a90612acb565b80601f016020809104026020016040519081016040528092919081815260200182805461055690612acb565b80156105a35780601f10610578576101008083540402835291602001916105a3565b820191906000526020600020905b81548152906001019060200180831161058657829003601f168201915b50505050508152505090507fe49f40f57c43bcc0ea51de08718dcc45efb3325fb9d155e76c2a5ab33be2de163382600001518484604001518560600151426040516105f396959493929190612d89565b60405180910390a15050565b610607612271565b6000808373ffffffffffffffffffffffffffffffffffffffff1673ffffffffffffffffffffffffffffffffffffffff1681526020019081526020016000206040518060800160405290816000820160009054906101000a900460ff16600281111561067557610674612536565b5b600281111561068757610686612536565b5b815260200160018201805461069b90612acb565b80601f01602080910402602001604051908101604052809291908181526020018280546106c790612acb565b80156107145780601f106106e957610100808354040283529160200191610714565b820191906000526020600020905b8154815290600101906020018083116106f757829003601f168201915b5050505050815260200160028201805461072d90612acb565b80601f016020809104026020016040519081016040528092919081815260200182805461075990612acb565b80156107a65780601f1061077b576101008083540402835291602001916107a6565b820191906000526020600020905b81548152906001019060200180831161078957829003601f168201915b505050505081526020016003820180546107bf90612acb565b80601f01602080910402602001604051908101604052809291908181526020018280546107eb90612acb565b80156108385780601f1061080d57610100808354040283529160200191610838565b820191906000526020600020905b81548152906001019060200180831161081b57829003601f168201915b5050505050815250509050919050565b6001818154811061085857600080fd5b906000526020600020016000915054906101000a900473ffffffffffffffffffffffffffffffffffffffff1681565b6004818154811061089757600080fd5b906000526020600020016000915054906101000a900473ffffffffffffffffffffffffffffffffffffffff1681565b60006020528060005260406000206000915090508060000160009054906101000a900460ff16908060010180546108fc90612acb565b80601f016020809104026020016040519081016040528092919081815260200182805461092890612acb565b80156109755780601f1061094a57610100808354040283529160200191610975565b820191906000526020600020905b81548152906001019060200180831161095857829003601f168201915b50505050509080600201805461098a90612acb565b80601f01602080910402602001604051908101604052809291908181526020018280546109b690612acb565b8015610a035780601f106109d857610100808354040283529160200191610a03565b820191906000526020600020905b8154815290600101906020018083116109e657829003601f168201915b505050505090806003018054610a1890612acb565b80601f0160208091040260200160405190810160405280929190818152602001828054610a4490612acb565b8015610a915780601f10610a6657610100808354040283529160200191610a91565b820191906000526020600020905b815481529060010190602001808311610a7457829003601f168201915b5050505050905084565b6000808273ffffffffffffffffffffffffffffffffffffffff1673ffffffffffffffffffffffffffffffffffffffff168152602001908152602001600020600080820160006101000a81549060ff0219169055600182016000610afe91906122ab565b600282016000610b0e91906122ab565b600382016000610b1e91906122ab565b50507f5db32fb34ad07587763cb39a6a4e3e11627af9bb8b3754c2734c1e7c107c0b5b33604051610b4f9190612731565b60405180910390a150565b806000803373ffffffffffffffffffffffffffffffffffffffff1673ffffffffffffffffffffffffffffffffffffffff1681526020019081526020016000206002019081610ba89190612ca8565b5060008060003373ffffffffffffffffffffffffffffffffffffffff1673ffffffffffffffffffffffffffffffffffffffff1681526020019081526020016000206040518060800160405290816000820160009054906101000a900460ff166002811115610c1957610c18612536565b5b6002811115610c2b57610c2a612536565b5b8152602001600182018054610c3f90612acb565b80601f0160208091040260200160405190810160405280929190818152602001828054610c6b90612acb565b8015610cb85780601f10610c8d57610100808354040283529160200191610cb8565b820191906000526020600020905b815481529060010190602001808311610c9b57829003601f168201915b50505050508152602001600282018054610cd190612acb565b80601f0160208091040260200160405190810160405280929190818152602001828054610cfd90612acb565b8015610d4a5780601f10610d1f57610100808354040283529160200191610d4a565b820191906000526020600020905b815481529060010190602001808311610d2d57829003601f168201915b50505050508152602001600382018054610d6390612acb565b80601f0160208091040260200160405190810160405280929190818152602001828054610d8f90612acb565b8015610ddc5780601f10610db157610100808354040283529160200191610ddc565b820191906000526020600020905b815481529060010190602001808311610dbf57829003601f168201915b50505050508152505090507fe49f40f57c43bcc0ea51de08718dcc45efb3325fb9d155e76c2a5ab33be2de16338260000151836020015185856060015142604051610e2c96959493929190612d89565b60405180910390a15050565b6060600060048054905067ffffffffffffffff811115610e5b57610e5a612337565b5b604051908082528060200260200182016040528015610e9457816020015b610e81612271565b815260200190600190039081610e795790505b50905060005b6004805490508110156111505760008060048381548110610ebe57610ebd612dff565b5b9060005260206000200160009054906101000a900473ffffffffffffffffffffffffffffffffffffffff1673ffffffffffffffffffffffffffffffffffffffff1673ffffffffffffffffffffffffffffffffffffffff1681526020019081526020016000206040518060800160405290816000820160009054906101000a900460ff166002811115610f5357610f52612536565b5b6002811115610f6557610f64612536565b5b8152602001600182018054610f7990612acb565b80601f0160208091040260200160405190810160405280929190818152602001828054610fa590612acb565b8015610ff25780601f10610fc757610100808354040283529160200191610ff2565b820191906000526020600020905b815481529060010190602001808311610fd557829003601f168201915b5050505050815260200160028201805461100b90612acb565b80601f016020809104026020016040519081016040528092919081815260200182805461103790612acb565b80156110845780601f1061105957610100808354040283529160200191611084565b820191906000526020600020905b81548152906001019060200180831161106757829003601f168201915b5050505050815260200160038201805461109d90612acb565b80601f01602080910402602001604051908101604052809291908181526020018280546110c990612acb565b80156111165780601f106110eb57610100808354040283529160200191611116565b820191906000526020600020905b8154815290600101906020018083116110f957829003601f168201915b50505050508152505082828151811061113257611131612dff565b5b6020026020010181905250808061114890612e5d565b915050610e9a565b508091505090565b6003818154811061116857600080fd5b906000526020600020016000915054906101000a900473ffffffffffffffffffffffffffffffffffffffff1681565b60008060003373ffffffffffffffffffffffffffffffffffffffff1673ffffffffffffffffffffffffffffffffffffffff16815260200190815260200160002060010180546111e590612acb565b905014611227576040517f08c379a000000000000000000000000000000000000000000000000000000000815260040161121e90612f02565b60405180910390fd5b604051806080016040528087600281111561124557611244612536565b5b815260200186868080601f016020809104026020016040519081016040528093929190818152602001838380828437600081840152601f19601f82011690508083019250505050505050815260200184848080601f016020809104026020016040519081016040528093929190818152602001838380828437600081840152601f19601f820116905080830192505050505050508152602001828152506000803373ffffffffffffffffffffffffffffffffffffffff1673ffffffffffffffffffffffffffffffffffffffff16815260200190815260200160002060008201518160000160006101000a81548160ff0219169083600281111561134b5761134a612536565b5b021790555060208201518160010190816113659190612ca8565b50604082015181600201908161137b9190612ca8565b5060608201518160030190816113919190612ca8565b509050506001339080600181540180825580915050600190039060005260206000200160009091909190916101000a81548173ffffffffffffffffffffffffffffffffffffffff021916908373ffffffffffffffffffffffffffffffffffffffff1602179055506000600281111561140c5761140b612536565b5b86600281111561141f5761141e612536565b5b03611488576002339080600181540180825580915050600190039060005260206000200160009091909190916101000a81548173ffffffffffffffffffffffffffffffffffffffff021916908373ffffffffffffffffffffffffffffffffffffffff1602179055505b6001600281111561149c5761149b612536565b5b8660028111156114af576114ae612536565b5b03611518576003339080600181540180825580915050600190039060005260206000200160009091909190916101000a81548173ffffffffffffffffffffffffffffffffffffffff021916908373ffffffffffffffffffffffffffffffffffffffff1602179055505b60028081111561152b5761152a612536565b5b86600281111561153e5761153d612536565b5b036115a7576004339080600181540180825580915050600190039060005260206000200160009091909190916101000a81548173ffffffffffffffffffffffffffffffffffffffff021916908373ffffffffffffffffffffffffffffffffffffffff1602179055505b7fe49f40f57c43bcc0ea51de08718dcc45efb3325fb9d155e76c2a5ab33be2de1633878787878787426040516115e4989796959493929190612f4f565b60405180910390a1505050505050565b6060600060028054905067ffffffffffffffff81111561161757611616612337565b5b60405190808252806020026020018201604052801561165057816020015b61163d612271565b8152602001906001900390816116355790505b50905060005b60028054905081101561190c576000806002838154811061167a57611679612dff565b5b9060005260206000200160009054906101000a900473ffffffffffffffffffffffffffffffffffffffff1673ffffffffffffffffffffffffffffffffffffffff1673ffffffffffffffffffffffffffffffffffffffff1681526020019081526020016000206040518060800160405290816000820160009054906101000a900460ff16600281111561170f5761170e612536565b5b600281111561172157611720612536565b5b815260200160018201805461173590612acb565b80601f016020809104026020016040519081016040528092919081815260200182805461176190612acb565b80156117ae5780601f10611783576101008083540402835291602001916117ae565b820191906000526020600020905b81548152906001019060200180831161179157829003601f168201915b505050505081526020016002820180546117c790612acb565b80601f01602080910402602001604051908101604052809291908181526020018280546117f390612acb565b80156118405780601f1061181557610100808354040283529160200191611840565b820191906000526020600020905b81548152906001019060200180831161182357829003601f168201915b5050505050815260200160038201805461185990612acb565b80601f016020809104026020016040519081016040528092919081815260200182805461188590612acb565b80156118d25780601f106118a7576101008083540402835291602001916118d2565b820191906000526020600020905b8154815290600101906020018083116118b557829003601f168201915b5050505050815250508282815181106118ee576118ed612dff565b5b6020026020010181905250808061190490612e5d565b915050611656565b508091505090565b6002818154811061192457600080fd5b906000526020600020016000915054906101000a900473ffffffffffffffffffffffffffffffffffffffff1681565b806000803373ffffffffffffffffffffffffffffffffffffffff1673ffffffffffffffffffffffffffffffffffffffff16815260200190815260200160002060030190816119a19190612ca8565b5060008060003373ffffffffffffffffffffffffffffffffffffffff1673ffffffffffffffffffffffffffffffffffffffff1681526020019081526020016000206040518060800160405290816000820160009054906101000a900460ff166002811115611a1257611a11612536565b5b6002811115611a2457611a23612536565b5b8152602001600182018054611a3890612acb565b80601f0160208091040260200160405190810160405280929190818152602001828054611a6490612acb565b8015611ab15780601f10611a8657610100808354040283529160200191611ab1565b820191906000526020600020905b815481529060010190602001808311611a9457829003601f168201915b50505050508152602001600282018054611aca90612acb565b80601f0160208091040260200160405190810160405280929190818152602001828054611af690612acb565b8015611b435780601f10611b1857610100808354040283529160200191611b43565b820191906000526020600020905b815481529060010190602001808311611b2657829003601f168201915b50505050508152602001600382018054611b5c90612acb565b80601f0160208091040260200160405190810160405280929190818152602001828054611b8890612acb565b8015611bd55780601f10611baa57610100808354040283529160200191611bd5565b820191906000526020600020905b815481529060010190602001808311611bb857829003601f168201915b50505050508152505090507fe49f40f57c43bcc0ea51de08718dcc45efb3325fb9d155e76c2a5ab33be2de16338260000151836020015184606001518642604051611c2596959493929190612d89565b60405180910390a15050565b6060600060038054905067ffffffffffffffff811115611c5457611c53612337565b5b604051908082528060200260200182016040528015611c8d57816020015b611c7a612271565b815260200190600190039081611c725790505b50905060005b600380549050811015611f495760008060038381548110611cb757611cb6612dff565b5b9060005260206000200160009054906101000a900473ffffffffffffffffffffffffffffffffffffffff1673ffffffffffffffffffffffffffffffffffffffff1673ffffffffffffffffffffffffffffffffffffffff1681526020019081526020016000206040518060800160405290816000820160009054906101000a900460ff166002811115611d4c57611d4b612536565b5b6002811115611d5e57611d5d612536565b5b8152602001600182018054611d7290612acb565b80601f0160208091040260200160405190810160405280929190818152602001828054611d9e90612acb565b8015611deb5780601f10611dc057610100808354040283529160200191611deb565b820191906000526020600020905b815481529060010190602001808311611dce57829003601f168201915b50505050508152602001600282018054611e0490612acb565b80601f0160208091040260200160405190810160405280929190818152602001828054611e3090612acb565b8015611e7d5780601f10611e5257610100808354040283529160200191611e7d565b820191906000526020600020905b815481529060010190602001808311611e6057829003601f168201915b50505050508152602001600382018054611e9690612acb565b80601f0160208091040260200160405190810160405280929190818152602001828054611ec290612acb565b8015611f0f5780601f10611ee457610100808354040283529160200191611f0f565b820191906000526020600020905b815481529060010190602001808311611ef257829003601f168201915b505050505081525050828281518110611f2b57611f2a612dff565b5b60200260200101819052508080611f4190612e5d565b915050611c93565b508091505090565b6060600060018054905067ffffffffffffffff811115611f7457611f73612337565b5b604051908082528060200260200182016040528015611fad57816020015b611f9a612271565b815260200190600190039081611f925790505b50905060005b6001805490508110156122695760008060018381548110611fd757611fd6612dff565b5b9060005260206000200160009054906101000a900473ffffffffffffffffffffffffffffffffffffffff1673ffffffffffffffffffffffffffffffffffffffff1673ffffffffffffffffffffffffffffffffffffffff1681526020019081526020016000206040518060800160405290816000820160009054906101000a900460ff16600281111561206c5761206b612536565b5b600281111561207e5761207d612536565b5b815260200160018201805461209290612acb565b80601f01602080910402602001604051908101604052809291908181526020018280546120be90612acb565b801561210b5780601f106120e05761010080835404028352916020019161210b565b820191906000526020600020905b8154815290600101906020018083116120ee57829003601f168201915b5050505050815260200160028201805461212490612acb565b80601f016020809104026020016040519081016040528092919081815260200182805461215090612acb565b801561219d5780601f106121725761010080835404028352916020019161219d565b820191906000526020600020905b81548152906001019060200180831161218057829003601f168201915b505050505081526020016003820180546121b690612acb565b80601f01602080910402602001604051908101604052809291908181526020018280546121e290612acb565b801561222f5780601f106122045761010080835404028352916020019161222f565b820191906000526020600020905b81548152906001019060200180831161221257829003601f168201915b50505050508152505082828151811061224b5761224a612dff565b5b6020026020010181905250808061226190612e5d565b915050611fb3565b508091505090565b6040518060800160405280600060028111156122905761228f612536565b5b81526020016060815260200160608152602001606081525090565b5080546122b790612acb565b6000825580601f106122c957506122e8565b601f0160209004906000526020600020908101906122e791906122eb565b5b50565b5b808211156123045760008160009055506001016122ec565b5090565b6000604051905090565b600080fd5b600080fd5b600080fd5b600080fd5b6000601f19601f8301169050919050565b7f4e487b7100000000000000000000000000000000000000000000000000000000600052604160045260246000fd5b61236f82612326565b810181811067ffffffffffffffff8211171561238e5761238d612337565b5b80604052505050565b60006123a1612308565b90506123ad8282612366565b919050565b600067ffffffffffffffff8211156123cd576123cc612337565b5b6123d682612326565b9050602081019050919050565b82818337600083830152505050565b6000612405612400846123b2565b612397565b90508281526020810184848401111561242157612420612321565b5b61242c8482856123e3565b509392505050565b600082601f8301126124495761244861231c565b5b81356124598482602086016123f2565b91505092915050565b60006020828403121561247857612477612312565b5b600082013567ffffffffffffffff81111561249657612495612317565b5b6124a284828501612434565b91505092915050565b600073ffffffffffffffffffffffffffffffffffffffff82169050919050565b60006124d6826124ab565b9050919050565b6124e6816124cb565b81146124f157600080fd5b50565b600081359050612503816124dd565b92915050565b60006020828403121561251f5761251e612312565b5b600061252d848285016124f4565b91505092915050565b7f4e487b7100000000000000000000000000000000000000000000000000000000600052602160045260246000fd5b6003811061257657612575612536565b5b50565b600081905061258782612565565b919050565b600061259782612579565b9050919050565b6125a78161258c565b82525050565b600081519050919050565b600082825260208201905092915050565b60005b838110156125e75780820151818401526020810190506125cc565b60008484015250505050565b60006125fe826125ad565b61260881856125b8565b93506126188185602086016125c9565b61262181612326565b840191505092915050565b6000608083016000830151612644600086018261259e565b506020830151848203602086015261265c82826125f3565b9150506040830151848203604086015261267682826125f3565b9150506060830151848203606086015261269082826125f3565b9150508091505092915050565b600060208201905081810360008301526126b7818461262c565b905092915050565b6000819050919050565b6126d2816126bf565b81146126dd57600080fd5b50565b6000813590506126ef816126c9565b92915050565b60006020828403121561270b5761270a612312565b5b6000612719848285016126e0565b91505092915050565b61272b816124cb565b82525050565b60006020820190506127466000830184612722565b92915050565b6127558161258c565b82525050565b600082825260208201905092915050565b6000612777826125ad565b612781818561275b565b93506127918185602086016125c9565b61279a81612326565b840191505092915050565b60006080820190506127ba600083018761274c565b81810360208301526127cc818661276c565b905081810360408301526127e0818561276c565b905081810360608301526127f4818461276c565b905095945050505050565b600081519050919050565b600082825260208201905092915050565b6000819050602082019050919050565b6000608083016000830151612843600086018261259e565b506020830151848203602086015261285b82826125f3565b9150506040830151848203604086015261287582826125f3565b9150506060830151848203606086015261288f82826125f3565b9150508091505092915050565b60006128a8838361282b565b905092915050565b6000602082019050919050565b60006128c8826127ff565b6128d2818561280a565b9350836020820285016128e48561281b565b8060005b858110156129205784840389528151612901858261289c565b945061290c836128b0565b925060208a019950506001810190506128e8565b50829750879550505050505092915050565b6000602082019050818103600083015261294c81846128bd565b905092915050565b6003811061296157600080fd5b50565b60008135905061297381612954565b92915050565b600080fd5b600080fd5b60008083601f8401126129995761299861231c565b5b8235905067ffffffffffffffff8111156129b6576129b5612979565b5b6020830191508360018202830111156129d2576129d161297e565b5b9250929050565b600080600080600080608087890312156129f6576129f5612312565b5b6000612a0489828a01612964565b965050602087013567ffffffffffffffff811115612a2557612a24612317565b5b612a3189828a01612983565b9550955050604087013567ffffffffffffffff811115612a5457612a53612317565b5b612a6089828a01612983565b9350935050606087013567ffffffffffffffff811115612a8357612a82612317565b5b612a8f89828a01612434565b9150509295509295509295565b7f4e487b7100000000000000000000000000000000000000000000000000000000600052602260045260246000fd5b60006002820490506001821680612ae357607f821691505b602082108103612af657612af5612a9c565b5b50919050565b60008190508160005260206000209050919050565b60006020601f8301049050919050565b600082821b905092915050565b600060088302612b5e7fffffffffffffffffffffffffffffffffffffffffffffffffffffffffffffffff82612b21565b612b688683612b21565b95508019841693508086168417925050509392505050565b6000819050919050565b6000612ba5612ba0612b9b846126bf565b612b80565b6126bf565b9050919050565b6000819050919050565b612bbf83612b8a565b612bd3612bcb82612bac565b848454612b2e565b825550505050565b600090565b612be8612bdb565b612bf3818484612bb6565b505050565b5b81811015612c1757612c0c600082612be0565b600181019050612bf9565b5050565b601f821115612c5c57612c2d81612afc565b612c3684612b11565b81016020851015612c45578190505b612c59612c5185612b11565b830182612bf8565b50505b505050565b600082821c905092915050565b6000612c7f60001984600802612c61565b1980831691505092915050565b6000612c988383612c6e565b9150826002028217905092915050565b612cb1826125ad565b67ffffffffffffffff811115612cca57612cc9612337565b5b612cd48254612acb565b612cdf828285612c1b565b600060209050601f831160018114612d125760008415612d00578287015190505b612d0a8582612c8c565b865550612d72565b601f198416612d2086612afc565b60005b82811015612d4857848901518255600182019150602085019450602081019050612d23565b86831015612d655784890151612d61601f891682612c6e565b8355505b6001600288020188555050505b505050505050565b612d83816126bf565b82525050565b600060c082019050612d9e6000830189612722565b612dab602083018861274c565b8181036040830152612dbd818761276c565b90508181036060830152612dd1818661276c565b90508181036080830152612de5818561276c565b9050612df460a0830184612d7a565b979650505050505050565b7f4e487b7100000000000000000000000000000000000000000000000000000000600052603260045260246000fd5b7f4e487b7100000000000000000000000000000000000000000000000000000000600052601160045260246000fd5b6000612e68826126bf565b91507fffffffffffffffffffffffffffffffffffffffffffffffffffffffffffffffff8203612e9a57612e99612e2e565b5b600182019050919050565b600082825260208201905092915050565b7f5573657220616c72656164792072656769737465726564000000000000000000600082015250565b6000612eec601783612ea5565b9150612ef782612eb6565b602082019050919050565b60006020820190508181036000830152612f1b81612edf565b9050919050565b6000612f2e838561275b565b9350612f3b8385846123e3565b612f4483612326565b840190509392505050565b600060c082019050612f64600083018b612722565b612f71602083018a61274c565b8181036040830152612f8481888a612f22565b90508181036060830152612f99818688612f22565b90508181036080830152612fad818561276c565b9050612fbc60a0830184612d7a565b999850505050505050505056fea2646970667358221220f3ed51a4cd292bd6d1a494c9bf853de3e5cb8a690c5d3d94f9e3dd9fed2aabc764736f6c63430008120033",
  "linkReferences": {},
  "deployedLinkReferences": {}
}