{
  "_format": "hh-sol-artifact-1",
  "contractName": "distributorProduct",
  "sourceName": "contracts/distributorProduct.sol",
  "abi": [
    {
      "anonymous": false,
      "inputs": [
        {
          "indexed": true,
          "internalType": "uint256",
          "name": "_dpId",
          "type": "uint256"
        },
        {
          "indexed": true,
          "internalType": "address[]",
          "name": "_manufacturerAddress",
          "type": "address[]"
        },
        {
          "indexed": true,
          "internalType": "uint256[]",
          "name": "_mdId",
          "type": "uint256[]"
        },
        {
          "indexed": false,
          "internalType": "bytes",
          "name": "_name",
          "type": "bytes"
        },
        {
          "indexed": false,
          "internalType": "bytes",
          "name": "_description",
          "type": "bytes"
        },
        {
          "indexed": false,
          "internalType": "uint128",
          "name": "_unit",
          "type": "uint128"
        },
        {
          "indexed": false,
          "internalType": "uint128",
          "name": "_price",
          "type": "uint128"
        },
        {
          "indexed": false,
          "internalType": "uint32",
          "name": "_date",
          "type": "uint32"
        },
        {
          "indexed": false,
          "internalType": "uint32",
          "name": "_expiryDate",
          "type": "uint32"
        }
      ],
      "name": "eventAddDistributorProduct",
      "type": "event"
    },
    {
      "anonymous": false,
      "inputs": [
        {
          "indexed": true,
          "internalType": "uint256",
          "name": "_id",
          "type": "uint256"
        }
      ],
      "name": "eventDeleteDistributorProduct",
      "type": "event"
    },
    {
      "anonymous": false,
      "inputs": [
        {
          "indexed": true,
          "internalType": "uint256",
          "name": "_dpId",
          "type": "uint256"
        },
        {
          "indexed": false,
          "internalType": "uint128",
          "name": "_quantity",
          "type": "uint128"
        }
      ],
      "name": "eventUpdateDistributorProductUints",
      "type": "event"
    },
    {
      "inputs": [
        {
          "internalType": "address[]",
          "name": "_manufacturerAddress",
          "type": "address[]"
        },
        {
          "internalType": "uint256[]",
          "name": "_mdId",
          "type": "uint256[]"
        },
        {
          "internalType": "bytes",
          "name": "_name",
          "type": "bytes"
        },
        {
          "internalType": "bytes",
          "name": "_description",
          "type": "bytes"
        },
        {
          "internalType": "uint128",
          "name": "_unit",
          "type": "uint128"
        },
        {
          "internalType": "uint128",
          "name": "_price",
          "type": "uint128"
        },
        {
          "internalType": "uint32",
          "name": "_date",
          "type": "uint32"
        },
        {
          "internalType": "uint32",
          "name": "_expiryDate",
          "type": "uint32"
        }
      ],
      "name": "addDistributorProduct",
      "outputs": [],
      "stateMutability": "nonpayable",
      "type": "function"
    },
    {
      "inputs": [
        {
          "internalType": "uint256",
          "name": "_id",
          "type": "uint256"
        }
      ],
      "name": "deleteDistributorProduct",
      "outputs": [],
      "stateMutability": "nonpayable",
      "type": "function"
    },
    {
      "inputs": [
        {
          "internalType": "address",
          "name": "",
          "type": "address"
        },
        {
          "internalType": "uint256",
          "name": "",
          "type": "uint256"
        }
      ],
      "name": "distributorAddressToproductsIdMapping",
      "outputs": [
        {
          "internalType": "uint256",
          "name": "",
          "type": "uint256"
        }
      ],
      "stateMutability": "view",
      "type": "function"
    },
    {
      "inputs": [
        {
          "internalType": "uint256",
          "name": "",
          "type": "uint256"
        }
      ],
      "name": "distributorProductsIdToStructMapping",
      "outputs": [
        {
          "internalType": "bytes",
          "name": "dp_name",
          "type": "bytes"
        },
        {
          "internalType": "bytes",
          "name": "dp_description",
          "type": "bytes"
        },
        {
          "internalType": "uint128",
          "name": "dp_unit",
          "type": "uint128"
        },
        {
          "internalType": "uint128",
          "name": "dp_price",
          "type": "uint128"
        },
        {
          "internalType": "uint32",
          "name": "dp_date",
          "type": "uint32"
        },
        {
          "internalType": "uint32",
          "name": "dp_expiryDate",
          "type": "uint32"
        }
      ],
      "stateMutability": "view",
      "type": "function"
    },
    {
      "inputs": [
        {
          "internalType": "address",
          "name": "_distributorAddress",
          "type": "address"
        }
      ],
      "name": "getAllProductsOfDistributor",
      "outputs": [
        {
          "components": [
            {
              "internalType": "address[]",
              "name": "manufacturerAddress",
              "type": "address[]"
            },
            {
              "internalType": "uint256[]",
              "name": "md_id",
              "type": "uint256[]"
            },
            {
              "internalType": "bytes",
              "name": "dp_name",
              "type": "bytes"
            },
            {
              "internalType": "bytes",
              "name": "dp_description",
              "type": "bytes"
            },
            {
              "internalType": "uint128",
              "name": "dp_unit",
              "type": "uint128"
            },
            {
              "internalType": "uint128",
              "name": "dp_price",
              "type": "uint128"
            },
            {
              "internalType": "uint32",
              "name": "dp_date",
              "type": "uint32"
            },
            {
              "internalType": "uint32",
              "name": "dp_expiryDate",
              "type": "uint32"
            }
          ],
          "internalType": "struct IDistributorProduct.distributorProduct[]",
          "name": "",
          "type": "tuple[]"
        }
      ],
      "stateMutability": "view",
      "type": "function"
    },
    {
      "inputs": [],
      "name": "getDistributorProductIds",
      "outputs": [
        {
          "internalType": "uint256[]",
          "name": "",
          "type": "uint256[]"
        }
      ],
      "stateMutability": "view",
      "type": "function"
    },
    {
      "inputs": [
        {
          "internalType": "uint256",
          "name": "_id",
          "type": "uint256"
        }
      ],
      "name": "getSingleDistributorProduct",
      "outputs": [
        {
          "components": [
            {
              "internalType": "address[]",
              "name": "manufacturerAddress",
              "type": "address[]"
            },
            {
              "internalType": "uint256[]",
              "name": "md_id",
              "type": "uint256[]"
            },
            {
              "internalType": "bytes",
              "name": "dp_name",
              "type": "bytes"
            },
            {
              "internalType": "bytes",
              "name": "dp_description",
              "type": "bytes"
            },
            {
              "internalType": "uint128",
              "name": "dp_unit",
              "type": "uint128"
            },
            {
              "internalType": "uint128",
              "name": "dp_price",
              "type": "uint128"
            },
            {
              "internalType": "uint32",
              "name": "dp_date",
              "type": "uint32"
            },
            {
              "internalType": "uint32",
              "name": "dp_expiryDate",
              "type": "uint32"
            }
          ],
          "internalType": "struct IDistributorProduct.distributorProduct",
          "name": "",
          "type": "tuple"
        }
      ],
      "stateMutability": "view",
      "type": "function"
    },
    {
      "inputs": [
        {
          "internalType": "uint256",
          "name": "_dpId",
          "type": "uint256"
        },
        {
          "internalType": "uint128",
          "name": "_quantity",
          "type": "uint128"
        }
      ],
      "name": "updateDistributorProductUints",
      "outputs": [],
      "stateMutability": "nonpayable",
      "type": "function"
    }
  ],
  "bytecode": "0x6080604052600160005534801561001557600080fd5b5061249f806100256000396000f3fe608060405234801561001057600080fd5b50600436106100885760003560e01c80639c9ed59f1161005b5780639c9ed59f14610125578063c4bc397714610143578063f1afff5614610178578063f602b55c146101a857610088565b8063365c66a01461008d5780637d28c7de146100a9578063906374a8146100c5578063961e69ea146100f5575b600080fd5b6100a760048036038101906100a29190611334565b6101c4565b005b6100c360048036038101906100be9190611685565b6102a9565b005b6100df60048036038101906100da91906117b4565b6105e3565b6040516100ec9190611803565b60405180910390f35b61010f600480360381019061010a919061181e565b610614565b60405161011c9190611b29565b60405180910390f35b61012d61092c565b60405161013a9190611bba565b60405180910390f35b61015d6004803603810190610158919061181e565b6109c1565b60405161016f96959493929190611c44565b60405180910390f35b610192600480360381019061018d9190611cb3565b610b65565b60405161019f9190611e67565b60405180910390f35b6101c260048036038101906101bd919061181e565b610fbd565b005b806002600084815260200190815260200160002060040160008282829054906101000a90046fffffffffffffffffffffffffffffffff166102059190611eb8565b92506101000a8154816fffffffffffffffffffffffffffffffff02191690836fffffffffffffffffffffffffffffffff160217905550817f68bde38859e54f5324143149657742ab33dc1d248bbd68795382aa56cc1b99426002600085815260200190815260200160002060040160009054906101000a90046fffffffffffffffffffffffffffffffff1660405161029d9190611efc565b60405180910390a25050565b6040518061010001604052808b81526020018a815260200189898080601f016020809104026020016040519081016040528093929190818152602001838380828437600081840152601f19601f82011690508083019250505050505050815260200187878080601f016020809104026020016040519081016040528093929190818152602001838380828437600081840152601f19601f820116905080830192505050505050508152602001856fffffffffffffffffffffffffffffffff168152602001846fffffffffffffffffffffffffffffffff1681526020018363ffffffff1681526020018263ffffffff16815250600260008054815260200190815260200160002060008201518160000190805190602001906103cb9291906110b7565b5060208201518160010190805190602001906103e8929190611141565b5060408201518160020190816103fe9190612123565b5060608201518160030190816104149190612123565b5060808201518160040160006101000a8154816fffffffffffffffffffffffffffffffff02191690836fffffffffffffffffffffffffffffffff16021790555060a08201518160040160106101000a8154816fffffffffffffffffffffffffffffffff02191690836fffffffffffffffffffffffffffffffff16021790555060c08201518160050160006101000a81548163ffffffff021916908363ffffffff16021790555060e08201518160050160046101000a81548163ffffffff021916908363ffffffff160217905550905050600360003373ffffffffffffffffffffffffffffffffffffffff1673ffffffffffffffffffffffffffffffffffffffff16815260200190815260200160002060005490806001815401808255809150506001900390600052602060002001600090919091909150558860405161055a9190612285565b60405180910390208a604051610570919061232c565b60405180910390206000547f6cb3d046d7c4f38eb3876686d1c24375d3d3687a644ad4c396e3264375b859038b8b8b8b8b8b8b8b6040516105b898979695949392919061237f565b60405180910390a46000808154809291906105d2906123f2565b919050555050505050505050505050565b600360205281600052604060002081815481106105ff57600080fd5b90600052602060002001600091509150505481565b61061c61118e565b6002600083815260200190815260200160002060405180610100016040529081600082018054806020026020016040519081016040528092919081815260200182805480156106c057602002820191906000526020600020905b8160009054906101000a900473ffffffffffffffffffffffffffffffffffffffff1673ffffffffffffffffffffffffffffffffffffffff1681526020019060010190808311610676575b505050505081526020016001820180548060200260200160405190810160405280929190818152602001828054801561071857602002820191906000526020600020905b815481526020019060010190808311610704575b5050505050815260200160028201805461073190611f46565b80601f016020809104026020016040519081016040528092919081815260200182805461075d90611f46565b80156107aa5780601f1061077f576101008083540402835291602001916107aa565b820191906000526020600020905b81548152906001019060200180831161078d57829003601f168201915b505050505081526020016003820180546107c390611f46565b80601f01602080910402602001604051908101604052809291908181526020018280546107ef90611f46565b801561083c5780601f106108115761010080835404028352916020019161083c565b820191906000526020600020905b81548152906001019060200180831161081f57829003601f168201915b505050505081526020016004820160009054906101000a90046fffffffffffffffffffffffffffffffff166fffffffffffffffffffffffffffffffff166fffffffffffffffffffffffffffffffff1681526020016004820160109054906101000a90046fffffffffffffffffffffffffffffffff166fffffffffffffffffffffffffffffffff166fffffffffffffffffffffffffffffffff1681526020016005820160009054906101000a900463ffffffff1663ffffffff1663ffffffff1681526020016005820160049054906101000a900463ffffffff1663ffffffff1663ffffffff16815250509050919050565b6060600360003373ffffffffffffffffffffffffffffffffffffffff1673ffffffffffffffffffffffffffffffffffffffff1681526020019081526020016000208054806020026020016040519081016040528092919081815260200182805480156109b757602002820191906000526020600020905b8154815260200190600101908083116109a3575b5050505050905090565b60026020528060005260406000206000915090508060020180546109e490611f46565b80601f0160208091040260200160405190810160405280929190818152602001828054610a1090611f46565b8015610a5d5780601f10610a3257610100808354040283529160200191610a5d565b820191906000526020600020905b815481529060010190602001808311610a4057829003601f168201915b505050505090806003018054610a7290611f46565b80601f0160208091040260200160405190810160405280929190818152602001828054610a9e90611f46565b8015610aeb5780601f10610ac057610100808354040283529160200191610aeb565b820191906000526020600020905b815481529060010190602001808311610ace57829003601f168201915b5050505050908060040160009054906101000a90046fffffffffffffffffffffffffffffffff16908060040160109054906101000a90046fffffffffffffffffffffffffffffffff16908060050160009054906101000a900463ffffffff16908060050160049054906101000a900463ffffffff16905086565b60606000600360008473ffffffffffffffffffffffffffffffffffffffff1673ffffffffffffffffffffffffffffffffffffffff168152602001908152602001600020805480602002602001604051908101604052809291908181526020018280548015610bf257602002820191906000526020600020905b815481526020019060010190808311610bde575b505050505090506000815167ffffffffffffffff811115610c1657610c1561138a565b5b604051908082528060200260200182016040528015610c4f57816020015b610c3c61118e565b815260200190600190039081610c345790505b50905060005b8251811015610fb25760026000848381518110610c7557610c7461243a565b5b602002602001015181526020019081526020016000206040518061010001604052908160008201805480602002602001604051908101604052809291908181526020018280548015610d1c57602002820191906000526020600020905b8160009054906101000a900473ffffffffffffffffffffffffffffffffffffffff1673ffffffffffffffffffffffffffffffffffffffff1681526020019060010190808311610cd2575b5050505050815260200160018201805480602002602001604051908101604052809291908181526020018280548015610d7457602002820191906000526020600020905b815481526020019060010190808311610d60575b50505050508152602001600282018054610d8d90611f46565b80601f0160208091040260200160405190810160405280929190818152602001828054610db990611f46565b8015610e065780601f10610ddb57610100808354040283529160200191610e06565b820191906000526020600020905b815481529060010190602001808311610de957829003601f168201915b50505050508152602001600382018054610e1f90611f46565b80601f0160208091040260200160405190810160405280929190818152602001828054610e4b90611f46565b8015610e985780601f10610e6d57610100808354040283529160200191610e98565b820191906000526020600020905b815481529060010190602001808311610e7b57829003601f168201915b505050505081526020016004820160009054906101000a90046fffffffffffffffffffffffffffffffff166fffffffffffffffffffffffffffffffff166fffffffffffffffffffffffffffffffff1681526020016004820160109054906101000a90046fffffffffffffffffffffffffffffffff166fffffffffffffffffffffffffffffffff166fffffffffffffffffffffffffffffffff1681526020016005820160009054906101000a900463ffffffff1663ffffffff1663ffffffff1681526020016005820160049054906101000a900463ffffffff1663ffffffff1663ffffffff1681525050828281518110610f9457610f9361243a565b5b60200260200101819052508080610faa906123f2565b915050610c55565b508092505050919050565b6002600082815260200190815260200160002060008082016000610fe19190611203565b600182016000610ff19190611224565b6002820160006110019190611245565b6003820160006110119190611245565b6004820160006101000a8154906fffffffffffffffffffffffffffffffff02191690556004820160106101000a8154906fffffffffffffffffffffffffffffffff02191690556005820160006101000a81549063ffffffff02191690556005820160046101000a81549063ffffffff02191690555050807f0e998fc65a4459eb15332384e57a24f5672951bfdd9b2804cc635dd4ad0a10cd60405160405180910390a250565b828054828255906000526020600020908101928215611130579160200282015b8281111561112f5782518260006101000a81548173ffffffffffffffffffffffffffffffffffffffff021916908373ffffffffffffffffffffffffffffffffffffffff160217905550916020019190600101906110d7565b5b50905061113d9190611285565b5090565b82805482825590600052602060002090810192821561117d579160200282015b8281111561117c578251825591602001919060010190611161565b5b50905061118a9190611285565b5090565b6040518061010001604052806060815260200160608152602001606081526020016060815260200160006fffffffffffffffffffffffffffffffff16815260200160006fffffffffffffffffffffffffffffffff168152602001600063ffffffff168152602001600063ffffffff1681525090565b50805460008255906000526020600020908101906112219190611285565b50565b50805460008255906000526020600020908101906112429190611285565b50565b50805461125190611f46565b6000825580601f106112635750611282565b601f0160209004906000526020600020908101906112819190611285565b5b50565b5b8082111561129e576000816000905550600101611286565b5090565b6000604051905090565b600080fd5b600080fd5b6000819050919050565b6112c9816112b6565b81146112d457600080fd5b50565b6000813590506112e6816112c0565b92915050565b60006fffffffffffffffffffffffffffffffff82169050919050565b611311816112ec565b811461131c57600080fd5b50565b60008135905061132e81611308565b92915050565b6000806040838503121561134b5761134a6112ac565b5b6000611359858286016112d7565b925050602061136a8582860161131f565b9150509250929050565b600080fd5b6000601f19601f8301169050919050565b7f4e487b7100000000000000000000000000000000000000000000000000000000600052604160045260246000fd5b6113c282611379565b810181811067ffffffffffffffff821117156113e1576113e061138a565b5b80604052505050565b60006113f46112a2565b905061140082826113b9565b919050565b600067ffffffffffffffff8211156114205761141f61138a565b5b602082029050602081019050919050565b600080fd5b600073ffffffffffffffffffffffffffffffffffffffff82169050919050565b600061146182611436565b9050919050565b61147181611456565b811461147c57600080fd5b50565b60008135905061148e81611468565b92915050565b60006114a76114a284611405565b6113ea565b905080838252602082019050602084028301858111156114ca576114c9611431565b5b835b818110156114f357806114df888261147f565b8452602084019350506020810190506114cc565b5050509392505050565b600082601f83011261151257611511611374565b5b8135611522848260208601611494565b91505092915050565b600067ffffffffffffffff8211156115465761154561138a565b5b602082029050602081019050919050565b600061156a6115658461152b565b6113ea565b9050808382526020820190506020840283018581111561158d5761158c611431565b5b835b818110156115b657806115a288826112d7565b84526020840193505060208101905061158f565b5050509392505050565b600082601f8301126115d5576115d4611374565b5b81356115e5848260208601611557565b91505092915050565b600080fd5b60008083601f84011261160957611608611374565b5b8235905067ffffffffffffffff811115611626576116256115ee565b5b60208301915083600182028301111561164257611641611431565b5b9250929050565b600063ffffffff82169050919050565b61166281611649565b811461166d57600080fd5b50565b60008135905061167f81611659565b92915050565b6000806000806000806000806000806101008b8d0312156116a9576116a86112ac565b5b60008b013567ffffffffffffffff8111156116c7576116c66112b1565b5b6116d38d828e016114fd565b9a505060208b013567ffffffffffffffff8111156116f4576116f36112b1565b5b6117008d828e016115c0565b99505060408b013567ffffffffffffffff811115611721576117206112b1565b5b61172d8d828e016115f3565b985098505060608b013567ffffffffffffffff8111156117505761174f6112b1565b5b61175c8d828e016115f3565b9650965050608061176f8d828e0161131f565b94505060a06117808d828e0161131f565b93505060c06117918d828e01611670565b92505060e06117a28d828e01611670565b9150509295989b9194979a5092959850565b600080604083850312156117cb576117ca6112ac565b5b60006117d98582860161147f565b92505060206117ea858286016112d7565b9150509250929050565b6117fd816112b6565b82525050565b600060208201905061181860008301846117f4565b92915050565b600060208284031215611834576118336112ac565b5b6000611842848285016112d7565b91505092915050565b600081519050919050565b600082825260208201905092915050565b6000819050602082019050919050565b61188081611456565b82525050565b60006118928383611877565b60208301905092915050565b6000602082019050919050565b60006118b68261184b565b6118c08185611856565b93506118cb83611867565b8060005b838110156118fc5781516118e38882611886565b97506118ee8361189e565b9250506001810190506118cf565b5085935050505092915050565b600081519050919050565b600082825260208201905092915050565b6000819050602082019050919050565b61193e816112b6565b82525050565b60006119508383611935565b60208301905092915050565b6000602082019050919050565b600061197482611909565b61197e8185611914565b935061198983611925565b8060005b838110156119ba5781516119a18882611944565b97506119ac8361195c565b92505060018101905061198d565b5085935050505092915050565b600081519050919050565b600082825260208201905092915050565b60005b83811015611a015780820151818401526020810190506119e6565b60008484015250505050565b6000611a18826119c7565b611a2281856119d2565b9350611a328185602086016119e3565b611a3b81611379565b840191505092915050565b611a4f816112ec565b82525050565b611a5e81611649565b82525050565b6000610100830160008301518482036000860152611a8282826118ab565b91505060208301518482036020860152611a9c8282611969565b91505060408301518482036040860152611ab68282611a0d565b91505060608301518482036060860152611ad08282611a0d565b9150506080830151611ae56080860182611a46565b5060a0830151611af860a0860182611a46565b5060c0830151611b0b60c0860182611a55565b5060e0830151611b1e60e0860182611a55565b508091505092915050565b60006020820190508181036000830152611b438184611a64565b905092915050565b600082825260208201905092915050565b6000611b6782611909565b611b718185611b4b565b9350611b7c83611925565b8060005b83811015611bad578151611b948882611944565b9750611b9f8361195c565b925050600181019050611b80565b5085935050505092915050565b60006020820190508181036000830152611bd48184611b5c565b905092915050565b600082825260208201905092915050565b6000611bf8826119c7565b611c028185611bdc565b9350611c128185602086016119e3565b611c1b81611379565b840191505092915050565b611c2f816112ec565b82525050565b611c3e81611649565b82525050565b600060c0820190508181036000830152611c5e8189611bed565b90508181036020830152611c728188611bed565b9050611c816040830187611c26565b611c8e6060830186611c26565b611c9b6080830185611c35565b611ca860a0830184611c35565b979650505050505050565b600060208284031215611cc957611cc86112ac565b5b6000611cd78482850161147f565b91505092915050565b600081519050919050565b600082825260208201905092915050565b6000819050602082019050919050565b6000610100830160008301518482036000860152611d2a82826118ab565b91505060208301518482036020860152611d448282611969565b91505060408301518482036040860152611d5e8282611a0d565b91505060608301518482036060860152611d788282611a0d565b9150506080830151611d8d6080860182611a46565b5060a0830151611da060a0860182611a46565b5060c0830151611db360c0860182611a55565b5060e0830151611dc660e0860182611a55565b508091505092915050565b6000611ddd8383611d0c565b905092915050565b6000602082019050919050565b6000611dfd82611ce0565b611e078185611ceb565b935083602082028501611e1985611cfc565b8060005b85811015611e555784840389528151611e368582611dd1565b9450611e4183611de5565b925060208a01995050600181019050611e1d565b50829750879550505050505092915050565b60006020820190508181036000830152611e818184611df2565b905092915050565b7f4e487b7100000000000000000000000000000000000000000000000000000000600052601160045260246000fd5b6000611ec3826112ec565b9150611ece836112ec565b925082820390506fffffffffffffffffffffffffffffffff811115611ef657611ef5611e89565b5b92915050565b6000602082019050611f116000830184611c26565b92915050565b7f4e487b7100000000000000000000000000000000000000000000000000000000600052602260045260246000fd5b60006002820490506001821680611f5e57607f821691505b602082108103611f7157611f70611f17565b5b50919050565b60008190508160005260206000209050919050565b60006020601f8301049050919050565b600082821b905092915050565b600060088302611fd97fffffffffffffffffffffffffffffffffffffffffffffffffffffffffffffffff82611f9c565b611fe38683611f9c565b95508019841693508086168417925050509392505050565b6000819050919050565b600061202061201b612016846112b6565b611ffb565b6112b6565b9050919050565b6000819050919050565b61203a83612005565b61204e61204682612027565b848454611fa9565b825550505050565b600090565b612063612056565b61206e818484612031565b505050565b5b818110156120925761208760008261205b565b600181019050612074565b5050565b601f8211156120d7576120a881611f77565b6120b184611f8c565b810160208510156120c0578190505b6120d46120cc85611f8c565b830182612073565b50505b505050565b600082821c905092915050565b60006120fa600019846008026120dc565b1980831691505092915050565b600061211383836120e9565b9150826002028217905092915050565b61212c826119c7565b67ffffffffffffffff8111156121455761214461138a565b5b61214f8254611f46565b61215a828285612096565b600060209050601f83116001811461218d576000841561217b578287015190505b6121858582612107565b8655506121ed565b601f19841661219b86611f77565b60005b828110156121c35784890151825560018201915060208501945060208101905061219e565b868310156121e057848901516121dc601f8916826120e9565b8355505b6001600288020188555050505b505050505050565b600081905092915050565b612209816112b6565b82525050565b600061221b8383612200565b60208301905092915050565b600061223282611909565b61223c81856121f5565b935061224783611925565b8060005b8381101561227857815161225f888261220f565b975061226a8361195c565b92505060018101905061224b565b5085935050505092915050565b60006122918284612227565b915081905092915050565b600081905092915050565b6122b081611456565b82525050565b60006122c283836122a7565b60208301905092915050565b60006122d98261184b565b6122e3818561229c565b93506122ee83611867565b8060005b8381101561231f57815161230688826122b6565b97506123118361189e565b9250506001810190506122f2565b5085935050505092915050565b600061233882846122ce565b915081905092915050565b82818337600083830152505050565b600061235e8385611bdc565b935061236b838584612343565b61237483611379565b840190509392505050565b600060c082019050818103600083015261239a818a8c612352565b905081810360208301526123af81888a612352565b90506123be6040830187611c26565b6123cb6060830186611c26565b6123d86080830185611c35565b6123e560a0830184611c35565b9998505050505050505050565b60006123fd826112b6565b91507fffffffffffffffffffffffffffffffffffffffffffffffffffffffffffffffff820361242f5761242e611e89565b5b600182019050919050565b7f4e487b7100000000000000000000000000000000000000000000000000000000600052603260045260246000fdfea26469706673582212202e7aac3476f984bf86b366be094944afeae31215adff00b35f9d9d61e613ccb864736f6c63430008120033",
  "linkReferences": {},
  "deployedLinkReferences": {}
}